{
	"SimpleStorage.sol": {
		"SimpleStorage": {
			"abi": [
				{
					"inputs": [
						{
							"internalType": "string",
							"name": "_name",
							"type": "string"
						},
						{
							"internalType": "uint256",
							"name": "_favoriteNumber",
							"type": "uint256"
						}
					],
					"name": "addPerson",
					"outputs": [],
					"stateMutability": "nonpayable",
					"type": "function"
				},
				{
					"inputs": [
						{
							"internalType": "uint256",
							"name": "",
							"type": "uint256"
						}
					],
					"name": "listOfPeople",
					"outputs": [
						{
							"internalType": "string",
							"name": "Name",
							"type": "string"
						},
						{
							"internalType": "uint256",
							"name": "favoriteNumber",
							"type": "uint256"
						}
					],
					"stateMutability": "view",
					"type": "function"
				},
				{
					"inputs": [
						{
							"internalType": "string",
							"name": "",
							"type": "string"
						}
					],
					"name": "nameToFavoriteNumber",
					"outputs": [
						{
							"internalType": "uint256",
							"name": "",
							"type": "uint256"
						}
					],
					"stateMutability": "view",
					"type": "function"
				}
			],
			"devdoc": {
				"kind": "dev",
				"methods": {},
				"version": 1
			},
			"evm": {
				"assembly": "    /* \"SimpleStorage.sol\":60:455  contract SimpleStorage {... */\n  mstore(0x40, 0x80)\n  callvalue\n  dup1\n  iszero\n  tag_1\n  jumpi\n  revert(0x00, 0x00)\ntag_1:\n  pop\n  dataSize(sub_0)\n  dup1\n  dataOffset(sub_0)\n  0x00\n  codecopy\n  0x00\n  return\nstop\n\nsub_0: assembly {\n        /* \"SimpleStorage.sol\":60:455  contract SimpleStorage {... */\n      mstore(0x40, 0x80)\n      callvalue\n      dup1\n      iszero\n      tag_1\n      jumpi\n      revert(0x00, 0x00)\n    tag_1:\n      pop\n      jumpi(tag_2, lt(calldatasize, 0x04))\n      shr(0xe0, calldataload(0x00))\n      dup1\n      0x2ebce631\n      eq\n      tag_3\n      jumpi\n      dup1\n      0x6f760f41\n      eq\n      tag_4\n      jumpi\n      dup1\n      0x8bab8dd5\n      eq\n      tag_5\n      jumpi\n    tag_2:\n      revert(0x00, 0x00)\n        /* \"SimpleStorage.sol\":166:194  Person[] public listOfPeople */\n    tag_3:\n      tag_6\n      0x04\n      dup1\n      calldatasize\n      sub\n      dup2\n      add\n      swap1\n      tag_7\n      swap2\n      swap1\n      tag_8\n      jump\t// in\n    tag_7:\n      tag_9\n      jump\t// in\n    tag_6:\n      mload(0x40)\n      tag_10\n      swap3\n      swap2\n      swap1\n      tag_11\n      jump\t// in\n    tag_10:\n      mload(0x40)\n      dup1\n      swap2\n      sub\n      swap1\n      return\n        /* \"SimpleStorage.sol\":263:453  function addPerson(string memory _name, uint _favoriteNumber) public {... */\n    tag_4:\n      tag_12\n      0x04\n      dup1\n      calldatasize\n      sub\n      dup2\n      add\n      swap1\n      tag_13\n      swap2\n      swap1\n      tag_14\n      jump\t// in\n    tag_13:\n      tag_15\n      jump\t// in\n    tag_12:\n      stop\n        /* \"SimpleStorage.sol\":201:252  mapping(string => uint) public nameToFavoriteNumber */\n    tag_5:\n      tag_16\n      0x04\n      dup1\n      calldatasize\n      sub\n      dup2\n      add\n      swap1\n      tag_17\n      swap2\n      swap1\n      tag_18\n      jump\t// in\n    tag_17:\n      tag_19\n      jump\t// in\n    tag_16:\n      mload(0x40)\n      tag_20\n      swap2\n      swap1\n      tag_21\n      jump\t// in\n    tag_20:\n      mload(0x40)\n      dup1\n      swap2\n      sub\n      swap1\n      return\n        /* \"SimpleStorage.sol\":166:194  Person[] public listOfPeople */\n    tag_9:\n      0x00\n      dup2\n      dup2\n      sload\n      dup2\n      lt\n      tag_22\n      jumpi\n      0x00\n      dup1\n      revert\n    tag_22:\n      swap1\n      0x00\n      mstore\n      keccak256(0x00, 0x20)\n      swap1\n      0x02\n      mul\n      add\n      0x00\n      swap2\n      pop\n      swap1\n      pop\n      dup1\n      0x00\n      add\n      dup1\n      sload\n      tag_24\n      swap1\n      tag_25\n      jump\t// in\n    tag_24:\n      dup1\n      0x1f\n      add\n      0x20\n      dup1\n      swap2\n      div\n      mul\n      0x20\n      add\n      mload(0x40)\n      swap1\n      dup2\n      add\n      0x40\n      mstore\n      dup1\n      swap3\n      swap2\n      swap1\n      dup2\n      dup2\n      mstore\n      0x20\n      add\n      dup3\n      dup1\n      sload\n      tag_26\n      swap1\n      tag_25\n      jump\t// in\n    tag_26:\n      dup1\n      iszero\n      tag_27\n      jumpi\n      dup1\n      0x1f\n      lt\n      tag_28\n      jumpi\n      0x0100\n      dup1\n      dup4\n      sload\n      div\n      mul\n      dup4\n      mstore\n      swap2\n      0x20\n      add\n      swap2\n      jump(tag_27)\n    tag_28:\n      dup3\n      add\n      swap2\n      swap1\n      0x00\n      mstore\n      keccak256(0x00, 0x20)\n      swap1\n    tag_29:\n      dup2\n      sload\n      dup2\n      mstore\n      swap1\n      0x01\n      add\n      swap1\n      0x20\n      add\n      dup1\n      dup4\n      gt\n      tag_29\n      jumpi\n      dup3\n      swap1\n      sub\n      0x1f\n      and\n      dup3\n      add\n      swap2\n    tag_27:\n      pop\n      pop\n      pop\n      pop\n      pop\n      swap1\n      dup1\n      0x01\n      add\n      sload\n      swap1\n      pop\n      dup3\n      jump\t// out\n        /* \"SimpleStorage.sol\":263:453  function addPerson(string memory _name, uint _favoriteNumber) public {... */\n    tag_15:\n        /* \"SimpleStorage.sol\":342:354  listOfPeople */\n      0x00\n        /* \"SimpleStorage.sol\":360:390  Person(_name, _favoriteNumber) */\n      mload(0x40)\n      dup1\n      0x40\n      add\n      0x40\n      mstore\n      dup1\n        /* \"SimpleStorage.sol\":367:372  _name */\n      dup5\n        /* \"SimpleStorage.sol\":360:390  Person(_name, _favoriteNumber) */\n      dup2\n      mstore\n      0x20\n      add\n        /* \"SimpleStorage.sol\":374:389  _favoriteNumber */\n      dup4\n        /* \"SimpleStorage.sol\":360:390  Person(_name, _favoriteNumber) */\n      dup2\n      mstore\n      pop\n        /* \"SimpleStorage.sol\":342:391  listOfPeople.push(Person(_name, _favoriteNumber)) */\n      swap1\n      dup1\n      0x01\n      dup2\n      sload\n      add\n      dup1\n      dup3\n      sstore\n      dup1\n      swap2\n      pop\n      pop\n      0x01\n      swap1\n      sub\n      swap1\n      0x00\n      mstore\n      keccak256(0x00, 0x20)\n      swap1\n      0x02\n      mul\n      add\n      0x00\n      swap1\n      swap2\n      swap1\n      swap2\n      swap1\n      swap2\n      pop\n      0x00\n      dup3\n      add\n      mload\n      dup2\n      0x00\n      add\n      swap1\n      dup2\n      tag_32\n      swap2\n      swap1\n      tag_33\n      jump\t// in\n    tag_32:\n      pop\n      0x20\n      dup3\n      add\n      mload\n      dup2\n      0x01\n      add\n      sstore\n      pop\n      pop\n        /* \"SimpleStorage.sol\":431:446  _favoriteNumber */\n      dup1\n        /* \"SimpleStorage.sol\":401:421  nameToFavoriteNumber */\n      0x01\n        /* \"SimpleStorage.sol\":422:427  _name */\n      dup4\n        /* \"SimpleStorage.sol\":401:428  nameToFavoriteNumber[_name] */\n      mload(0x40)\n      tag_34\n      swap2\n      swap1\n      tag_35\n      jump\t// in\n    tag_34:\n      swap1\n      dup2\n      mstore\n      0x20\n      add\n      mload(0x40)\n      dup1\n      swap2\n      sub\n      swap1\n      keccak256\n        /* \"SimpleStorage.sol\":401:446  nameToFavoriteNumber[_name] = _favoriteNumber */\n      dup2\n      swap1\n      sstore\n      pop\n        /* \"SimpleStorage.sol\":263:453  function addPerson(string memory _name, uint _favoriteNumber) public {... */\n      pop\n      pop\n      jump\t// out\n        /* \"SimpleStorage.sol\":201:252  mapping(string => uint) public nameToFavoriteNumber */\n    tag_19:\n      0x01\n      dup2\n      dup1\n      mload\n      0x20\n      dup2\n      add\n      dup3\n      add\n      dup1\n      mload\n      dup5\n      dup3\n      mstore\n      0x20\n      dup4\n      add\n      0x20\n      dup6\n      add\n      keccak256\n      dup2\n      dup4\n      mstore\n      dup1\n      swap6\n      pop\n      pop\n      pop\n      pop\n      pop\n      pop\n      0x00\n      swap2\n      pop\n      swap1\n      pop\n      sload\n      dup2\n      jump\t// out\n        /* \"#utility.yul\":7:82   */\n    tag_36:\n        /* \"#utility.yul\":40:46   */\n      0x00\n        /* \"#utility.yul\":73:75   */\n      0x40\n        /* \"#utility.yul\":67:76   */\n      mload\n        /* \"#utility.yul\":57:76   */\n      swap1\n      pop\n        /* \"#utility.yul\":7:82   */\n      swap1\n      jump\t// out\n        /* \"#utility.yul\":88:205   */\n    tag_37:\n        /* \"#utility.yul\":197:198   */\n      0x00\n        /* \"#utility.yul\":194:195   */\n      0x00\n        /* \"#utility.yul\":187:199   */\n      revert\n        /* \"#utility.yul\":211:328   */\n    tag_38:\n        /* \"#utility.yul\":320:321   */\n      0x00\n        /* \"#utility.yul\":317:318   */\n      0x00\n        /* \"#utility.yul\":310:322   */\n      revert\n        /* \"#utility.yul\":334:411   */\n    tag_39:\n        /* \"#utility.yul\":371:378   */\n      0x00\n        /* \"#utility.yul\":400:405   */\n      dup2\n        /* \"#utility.yul\":389:405   */\n      swap1\n      pop\n        /* \"#utility.yul\":334:411   */\n      swap2\n      swap1\n      pop\n      jump\t// out\n        /* \"#utility.yul\":417:539   */\n    tag_40:\n        /* \"#utility.yul\":490:514   */\n      tag_81\n        /* \"#utility.yul\":508:513   */\n      dup2\n        /* \"#utility.yul\":490:514   */\n      tag_39\n      jump\t// in\n    tag_81:\n        /* \"#utility.yul\":483:488   */\n      dup2\n        /* \"#utility.yul\":480:515   */\n      eq\n        /* \"#utility.yul\":470:533   */\n      tag_82\n      jumpi\n        /* \"#utility.yul\":529:530   */\n      0x00\n        /* \"#utility.yul\":526:527   */\n      0x00\n        /* \"#utility.yul\":519:531   */\n      revert\n        /* \"#utility.yul\":470:533   */\n    tag_82:\n        /* \"#utility.yul\":417:539   */\n      pop\n      jump\t// out\n        /* \"#utility.yul\":545:684   */\n    tag_41:\n        /* \"#utility.yul\":591:596   */\n      0x00\n        /* \"#utility.yul\":629:635   */\n      dup2\n        /* \"#utility.yul\":616:636   */\n      calldataload\n        /* \"#utility.yul\":607:636   */\n      swap1\n      pop\n        /* \"#utility.yul\":645:678   */\n      tag_84\n        /* \"#utility.yul\":672:677   */\n      dup2\n        /* \"#utility.yul\":645:678   */\n      tag_40\n      jump\t// in\n    tag_84:\n        /* \"#utility.yul\":545:684   */\n      swap3\n      swap2\n      pop\n      pop\n      jump\t// out\n        /* \"#utility.yul\":690:1019   */\n    tag_8:\n        /* \"#utility.yul\":749:755   */\n      0x00\n        /* \"#utility.yul\":798:800   */\n      0x20\n        /* \"#utility.yul\":786:795   */\n      dup3\n        /* \"#utility.yul\":777:784   */\n      dup5\n        /* \"#utility.yul\":773:796   */\n      sub\n        /* \"#utility.yul\":769:801   */\n      slt\n        /* \"#utility.yul\":766:885   */\n      iszero\n      tag_86\n      jumpi\n        /* \"#utility.yul\":804:883   */\n      tag_87\n      tag_37\n      jump\t// in\n    tag_87:\n        /* \"#utility.yul\":766:885   */\n    tag_86:\n        /* \"#utility.yul\":924:925   */\n      0x00\n        /* \"#utility.yul\":949:1002   */\n      tag_88\n        /* \"#utility.yul\":994:1001   */\n      dup5\n        /* \"#utility.yul\":985:991   */\n      dup3\n        /* \"#utility.yul\":974:983   */\n      dup6\n        /* \"#utility.yul\":970:992   */\n      add\n        /* \"#utility.yul\":949:1002   */\n      tag_41\n      jump\t// in\n    tag_88:\n        /* \"#utility.yul\":939:1002   */\n      swap2\n      pop\n        /* \"#utility.yul\":895:1012   */\n      pop\n        /* \"#utility.yul\":690:1019   */\n      swap3\n      swap2\n      pop\n      pop\n      jump\t// out\n        /* \"#utility.yul\":1025:1124   */\n    tag_42:\n        /* \"#utility.yul\":1077:1083   */\n      0x00\n        /* \"#utility.yul\":1111:1116   */\n      dup2\n        /* \"#utility.yul\":1105:1117   */\n      mload\n        /* \"#utility.yul\":1095:1117   */\n      swap1\n      pop\n        /* \"#utility.yul\":1025:1124   */\n      swap2\n      swap1\n      pop\n      jump\t// out\n        /* \"#utility.yul\":1130:1299   */\n    tag_43:\n        /* \"#utility.yul\":1214:1225   */\n      0x00\n        /* \"#utility.yul\":1248:1254   */\n      dup3\n        /* \"#utility.yul\":1243:1246   */\n      dup3\n        /* \"#utility.yul\":1236:1255   */\n      mstore\n        /* \"#utility.yul\":1288:1292   */\n      0x20\n        /* \"#utility.yul\":1283:1286   */\n      dup3\n        /* \"#utility.yul\":1279:1293   */\n      add\n        /* \"#utility.yul\":1264:1293   */\n      swap1\n      pop\n        /* \"#utility.yul\":1130:1299   */\n      swap3\n      swap2\n      pop\n      pop\n      jump\t// out\n        /* \"#utility.yul\":1305:1444   */\n    tag_44:\n        /* \"#utility.yul\":1394:1400   */\n      dup3\n        /* \"#utility.yul\":1389:1392   */\n      dup2\n        /* \"#utility.yul\":1384:1387   */\n      dup4\n        /* \"#utility.yul\":1378:1401   */\n      mcopy\n        /* \"#utility.yul\":1435:1436   */\n      0x00\n        /* \"#utility.yul\":1426:1432   */\n      dup4\n        /* \"#utility.yul\":1421:1424   */\n      dup4\n        /* \"#utility.yul\":1417:1433   */\n      add\n        /* \"#utility.yul\":1410:1437   */\n      mstore\n        /* \"#utility.yul\":1305:1444   */\n      pop\n      pop\n      pop\n      jump\t// out\n        /* \"#utility.yul\":1450:1552   */\n    tag_45:\n        /* \"#utility.yul\":1491:1497   */\n      0x00\n        /* \"#utility.yul\":1542:1544   */\n      0x1f\n        /* \"#utility.yul\":1538:1545   */\n      not\n        /* \"#utility.yul\":1533:1535   */\n      0x1f\n        /* \"#utility.yul\":1526:1531   */\n      dup4\n        /* \"#utility.yul\":1522:1536   */\n      add\n        /* \"#utility.yul\":1518:1546   */\n      and\n        /* \"#utility.yul\":1508:1546   */\n      swap1\n      pop\n        /* \"#utility.yul\":1450:1552   */\n      swap2\n      swap1\n      pop\n      jump\t// out\n        /* \"#utility.yul\":1558:1935   */\n    tag_46:\n        /* \"#utility.yul\":1646:1649   */\n      0x00\n        /* \"#utility.yul\":1674:1713   */\n      tag_94\n        /* \"#utility.yul\":1707:1712   */\n      dup3\n        /* \"#utility.yul\":1674:1713   */\n      tag_42\n      jump\t// in\n    tag_94:\n        /* \"#utility.yul\":1729:1800   */\n      tag_95\n        /* \"#utility.yul\":1793:1799   */\n      dup2\n        /* \"#utility.yul\":1788:1791   */\n      dup6\n        /* \"#utility.yul\":1729:1800   */\n      tag_43\n      jump\t// in\n    tag_95:\n        /* \"#utility.yul\":1722:1800   */\n      swap4\n      pop\n        /* \"#utility.yul\":1809:1874   */\n      tag_96\n        /* \"#utility.yul\":1867:1873   */\n      dup2\n        /* \"#utility.yul\":1862:1865   */\n      dup6\n        /* \"#utility.yul\":1855:1859   */\n      0x20\n        /* \"#utility.yul\":1848:1853   */\n      dup7\n        /* \"#utility.yul\":1844:1860   */\n      add\n        /* \"#utility.yul\":1809:1874   */\n      tag_44\n      jump\t// in\n    tag_96:\n        /* \"#utility.yul\":1899:1928   */\n      tag_97\n        /* \"#utility.yul\":1921:1927   */\n      dup2\n        /* \"#utility.yul\":1899:1928   */\n      tag_45\n      jump\t// in\n    tag_97:\n        /* \"#utility.yul\":1894:1897   */\n      dup5\n        /* \"#utility.yul\":1890:1929   */\n      add\n        /* \"#utility.yul\":1883:1929   */\n      swap2\n      pop\n        /* \"#utility.yul\":1650:1935   */\n      pop\n        /* \"#utility.yul\":1558:1935   */\n      swap3\n      swap2\n      pop\n      pop\n      jump\t// out\n        /* \"#utility.yul\":1941:2059   */\n    tag_47:\n        /* \"#utility.yul\":2028:2052   */\n      tag_99\n        /* \"#utility.yul\":2046:2051   */\n      dup2\n        /* \"#utility.yul\":2028:2052   */\n      tag_39\n      jump\t// in\n    tag_99:\n        /* \"#utility.yul\":2023:2026   */\n      dup3\n        /* \"#utility.yul\":2016:2053   */\n      mstore\n        /* \"#utility.yul\":1941:2059   */\n      pop\n      pop\n      jump\t// out\n        /* \"#utility.yul\":2065:2488   */\n    tag_11:\n        /* \"#utility.yul\":2206:2210   */\n      0x00\n        /* \"#utility.yul\":2244:2246   */\n      0x40\n        /* \"#utility.yul\":2233:2242   */\n      dup3\n        /* \"#utility.yul\":2229:2247   */\n      add\n        /* \"#utility.yul\":2221:2247   */\n      swap1\n      pop\n        /* \"#utility.yul\":2293:2302   */\n      dup2\n        /* \"#utility.yul\":2287:2291   */\n      dup2\n        /* \"#utility.yul\":2283:2303   */\n      sub\n        /* \"#utility.yul\":2279:2280   */\n      0x00\n        /* \"#utility.yul\":2268:2277   */\n      dup4\n        /* \"#utility.yul\":2264:2281   */\n      add\n        /* \"#utility.yul\":2257:2304   */\n      mstore\n        /* \"#utility.yul\":2321:2399   */\n      tag_101\n        /* \"#utility.yul\":2394:2398   */\n      dup2\n        /* \"#utility.yul\":2385:2391   */\n      dup6\n        /* \"#utility.yul\":2321:2399   */\n      tag_46\n      jump\t// in\n    tag_101:\n        /* \"#utility.yul\":2313:2399   */\n      swap1\n      pop\n        /* \"#utility.yul\":2409:2481   */\n      tag_102\n        /* \"#utility.yul\":2477:2479   */\n      0x20\n        /* \"#utility.yul\":2466:2475   */\n      dup4\n        /* \"#utility.yul\":2462:2480   */\n      add\n        /* \"#utility.yul\":2453:2459   */\n      dup5\n        /* \"#utility.yul\":2409:2481   */\n      tag_47\n      jump\t// in\n    tag_102:\n        /* \"#utility.yul\":2065:2488   */\n      swap4\n      swap3\n      pop\n      pop\n      pop\n      jump\t// out\n        /* \"#utility.yul\":2494:2611   */\n    tag_48:\n        /* \"#utility.yul\":2603:2604   */\n      0x00\n        /* \"#utility.yul\":2600:2601   */\n      0x00\n        /* \"#utility.yul\":2593:2605   */\n      revert\n        /* \"#utility.yul\":2617:2734   */\n    tag_49:\n        /* \"#utility.yul\":2726:2727   */\n      0x00\n        /* \"#utility.yul\":2723:2724   */\n      0x00\n        /* \"#utility.yul\":2716:2728   */\n      revert\n        /* \"#utility.yul\":2740:2920   */\n    tag_50:\n        /* \"#utility.yul\":2788:2865   */\n      0x4e487b7100000000000000000000000000000000000000000000000000000000\n        /* \"#utility.yul\":2785:2786   */\n      0x00\n        /* \"#utility.yul\":2778:2866   */\n      mstore\n        /* \"#utility.yul\":2885:2889   */\n      0x41\n        /* \"#utility.yul\":2882:2883   */\n      0x04\n        /* \"#utility.yul\":2875:2890   */\n      mstore\n        /* \"#utility.yul\":2909:2913   */\n      0x24\n        /* \"#utility.yul\":2906:2907   */\n      0x00\n        /* \"#utility.yul\":2899:2914   */\n      revert\n        /* \"#utility.yul\":2926:3207   */\n    tag_51:\n        /* \"#utility.yul\":3009:3036   */\n      tag_107\n        /* \"#utility.yul\":3031:3035   */\n      dup3\n        /* \"#utility.yul\":3009:3036   */\n      tag_45\n      jump\t// in\n    tag_107:\n        /* \"#utility.yul\":3001:3007   */\n      dup2\n        /* \"#utility.yul\":2997:3037   */\n      add\n        /* \"#utility.yul\":3139:3145   */\n      dup2\n        /* \"#utility.yul\":3127:3137   */\n      dup2\n        /* \"#utility.yul\":3124:3146   */\n      lt\n        /* \"#utility.yul\":3103:3121   */\n      0xffffffffffffffff\n        /* \"#utility.yul\":3091:3101   */\n      dup3\n        /* \"#utility.yul\":3088:3122   */\n      gt\n        /* \"#utility.yul\":3085:3147   */\n      or\n        /* \"#utility.yul\":3082:3170   */\n      iszero\n      tag_108\n      jumpi\n        /* \"#utility.yul\":3150:3168   */\n      tag_109\n      tag_50\n      jump\t// in\n    tag_109:\n        /* \"#utility.yul\":3082:3170   */\n    tag_108:\n        /* \"#utility.yul\":3190:3200   */\n      dup1\n        /* \"#utility.yul\":3186:3188   */\n      0x40\n        /* \"#utility.yul\":3179:3201   */\n      mstore\n        /* \"#utility.yul\":2969:3207   */\n      pop\n        /* \"#utility.yul\":2926:3207   */\n      pop\n      pop\n      jump\t// out\n        /* \"#utility.yul\":3213:3342   */\n    tag_52:\n        /* \"#utility.yul\":3247:3253   */\n      0x00\n        /* \"#utility.yul\":3274:3294   */\n      tag_111\n      tag_36\n      jump\t// in\n    tag_111:\n        /* \"#utility.yul\":3264:3294   */\n      swap1\n      pop\n        /* \"#utility.yul\":3303:3336   */\n      tag_112\n        /* \"#utility.yul\":3331:3335   */\n      dup3\n        /* \"#utility.yul\":3323:3329   */\n      dup3\n        /* \"#utility.yul\":3303:3336   */\n      tag_51\n      jump\t// in\n    tag_112:\n        /* \"#utility.yul\":3213:3342   */\n      swap2\n      swap1\n      pop\n      jump\t// out\n        /* \"#utility.yul\":3348:3656   */\n    tag_53:\n        /* \"#utility.yul\":3410:3414   */\n      0x00\n        /* \"#utility.yul\":3500:3518   */\n      0xffffffffffffffff\n        /* \"#utility.yul\":3492:3498   */\n      dup3\n        /* \"#utility.yul\":3489:3519   */\n      gt\n        /* \"#utility.yul\":3486:3542   */\n      iszero\n      tag_114\n      jumpi\n        /* \"#utility.yul\":3522:3540   */\n      tag_115\n      tag_50\n      jump\t// in\n    tag_115:\n        /* \"#utility.yul\":3486:3542   */\n    tag_114:\n        /* \"#utility.yul\":3560:3589   */\n      tag_116\n        /* \"#utility.yul\":3582:3588   */\n      dup3\n        /* \"#utility.yul\":3560:3589   */\n      tag_45\n      jump\t// in\n    tag_116:\n        /* \"#utility.yul\":3552:3589   */\n      swap1\n      pop\n        /* \"#utility.yul\":3644:3648   */\n      0x20\n        /* \"#utility.yul\":3638:3642   */\n      dup2\n        /* \"#utility.yul\":3634:3649   */\n      add\n        /* \"#utility.yul\":3626:3649   */\n      swap1\n      pop\n        /* \"#utility.yul\":3348:3656   */\n      swap2\n      swap1\n      pop\n      jump\t// out\n        /* \"#utility.yul\":3662:3810   */\n    tag_54:\n        /* \"#utility.yul\":3760:3766   */\n      dup3\n        /* \"#utility.yul\":3755:3758   */\n      dup2\n        /* \"#utility.yul\":3750:3753   */\n      dup4\n        /* \"#utility.yul\":3737:3767   */\n      calldatacopy\n        /* \"#utility.yul\":3801:3802   */\n      0x00\n        /* \"#utility.yul\":3792:3798   */\n      dup4\n        /* \"#utility.yul\":3787:3790   */\n      dup4\n        /* \"#utility.yul\":3783:3799   */\n      add\n        /* \"#utility.yul\":3776:3803   */\n      mstore\n        /* \"#utility.yul\":3662:3810   */\n      pop\n      pop\n      pop\n      jump\t// out\n        /* \"#utility.yul\":3816:4241   */\n    tag_55:\n        /* \"#utility.yul\":3894:3899   */\n      0x00\n        /* \"#utility.yul\":3919:3985   */\n      tag_119\n        /* \"#utility.yul\":3935:3984   */\n      tag_120\n        /* \"#utility.yul\":3977:3983   */\n      dup5\n        /* \"#utility.yul\":3935:3984   */\n      tag_53\n      jump\t// in\n    tag_120:\n        /* \"#utility.yul\":3919:3985   */\n      tag_52\n      jump\t// in\n    tag_119:\n        /* \"#utility.yul\":3910:3985   */\n      swap1\n      pop\n        /* \"#utility.yul\":4008:4014   */\n      dup3\n        /* \"#utility.yul\":4001:4006   */\n      dup2\n        /* \"#utility.yul\":3994:4015   */\n      mstore\n        /* \"#utility.yul\":4046:4050   */\n      0x20\n        /* \"#utility.yul\":4039:4044   */\n      dup2\n        /* \"#utility.yul\":4035:4051   */\n      add\n        /* \"#utility.yul\":4084:4087   */\n      dup5\n        /* \"#utility.yul\":4075:4081   */\n      dup5\n        /* \"#utility.yul\":4070:4073   */\n      dup5\n        /* \"#utility.yul\":4066:4082   */\n      add\n        /* \"#utility.yul\":4063:4088   */\n      gt\n        /* \"#utility.yul\":4060:4172   */\n      iszero\n      tag_121\n      jumpi\n        /* \"#utility.yul\":4091:4170   */\n      tag_122\n      tag_49\n      jump\t// in\n    tag_122:\n        /* \"#utility.yul\":4060:4172   */\n    tag_121:\n        /* \"#utility.yul\":4181:4235   */\n      tag_123\n        /* \"#utility.yul\":4228:4234   */\n      dup5\n        /* \"#utility.yul\":4223:4226   */\n      dup3\n        /* \"#utility.yul\":4218:4221   */\n      dup6\n        /* \"#utility.yul\":4181:4235   */\n      tag_54\n      jump\t// in\n    tag_123:\n        /* \"#utility.yul\":3900:4241   */\n      pop\n        /* \"#utility.yul\":3816:4241   */\n      swap4\n      swap3\n      pop\n      pop\n      pop\n      jump\t// out\n        /* \"#utility.yul\":4261:4601   */\n    tag_56:\n        /* \"#utility.yul\":4317:4322   */\n      0x00\n        /* \"#utility.yul\":4366:4369   */\n      dup3\n        /* \"#utility.yul\":4359:4363   */\n      0x1f\n        /* \"#utility.yul\":4351:4357   */\n      dup4\n        /* \"#utility.yul\":4347:4364   */\n      add\n        /* \"#utility.yul\":4343:4370   */\n      slt\n        /* \"#utility.yul\":4333:4455   */\n      tag_125\n      jumpi\n        /* \"#utility.yul\":4374:4453   */\n      tag_126\n      tag_48\n      jump\t// in\n    tag_126:\n        /* \"#utility.yul\":4333:4455   */\n    tag_125:\n        /* \"#utility.yul\":4491:4497   */\n      dup2\n        /* \"#utility.yul\":4478:4498   */\n      calldataload\n        /* \"#utility.yul\":4516:4595   */\n      tag_127\n        /* \"#utility.yul\":4591:4594   */\n      dup5\n        /* \"#utility.yul\":4583:4589   */\n      dup3\n        /* \"#utility.yul\":4576:4580   */\n      0x20\n        /* \"#utility.yul\":4568:4574   */\n      dup7\n        /* \"#utility.yul\":4564:4581   */\n      add\n        /* \"#utility.yul\":4516:4595   */\n      tag_55\n      jump\t// in\n    tag_127:\n        /* \"#utility.yul\":4507:4595   */\n      swap2\n      pop\n        /* \"#utility.yul\":4323:4601   */\n      pop\n        /* \"#utility.yul\":4261:4601   */\n      swap3\n      swap2\n      pop\n      pop\n      jump\t// out\n        /* \"#utility.yul\":4607:5261   */\n    tag_14:\n        /* \"#utility.yul\":4685:4691   */\n      0x00\n        /* \"#utility.yul\":4693:4699   */\n      0x00\n        /* \"#utility.yul\":4742:4744   */\n      0x40\n        /* \"#utility.yul\":4730:4739   */\n      dup4\n        /* \"#utility.yul\":4721:4728   */\n      dup6\n        /* \"#utility.yul\":4717:4740   */\n      sub\n        /* \"#utility.yul\":4713:4745   */\n      slt\n        /* \"#utility.yul\":4710:4829   */\n      iszero\n      tag_129\n      jumpi\n        /* \"#utility.yul\":4748:4827   */\n      tag_130\n      tag_37\n      jump\t// in\n    tag_130:\n        /* \"#utility.yul\":4710:4829   */\n    tag_129:\n        /* \"#utility.yul\":4896:4897   */\n      0x00\n        /* \"#utility.yul\":4885:4894   */\n      dup4\n        /* \"#utility.yul\":4881:4898   */\n      add\n        /* \"#utility.yul\":4868:4899   */\n      calldataload\n        /* \"#utility.yul\":4926:4944   */\n      0xffffffffffffffff\n        /* \"#utility.yul\":4918:4924   */\n      dup2\n        /* \"#utility.yul\":4915:4945   */\n      gt\n        /* \"#utility.yul\":4912:5029   */\n      iszero\n      tag_131\n      jumpi\n        /* \"#utility.yul\":4948:5027   */\n      tag_132\n      tag_38\n      jump\t// in\n    tag_132:\n        /* \"#utility.yul\":4912:5029   */\n    tag_131:\n        /* \"#utility.yul\":5053:5116   */\n      tag_133\n        /* \"#utility.yul\":5108:5115   */\n      dup6\n        /* \"#utility.yul\":5099:5105   */\n      dup3\n        /* \"#utility.yul\":5088:5097   */\n      dup7\n        /* \"#utility.yul\":5084:5106   */\n      add\n        /* \"#utility.yul\":5053:5116   */\n      tag_56\n      jump\t// in\n    tag_133:\n        /* \"#utility.yul\":5043:5116   */\n      swap3\n      pop\n        /* \"#utility.yul\":4839:5126   */\n      pop\n        /* \"#utility.yul\":5165:5167   */\n      0x20\n        /* \"#utility.yul\":5191:5244   */\n      tag_134\n        /* \"#utility.yul\":5236:5243   */\n      dup6\n        /* \"#utility.yul\":5227:5233   */\n      dup3\n        /* \"#utility.yul\":5216:5225   */\n      dup7\n        /* \"#utility.yul\":5212:5234   */\n      add\n        /* \"#utility.yul\":5191:5244   */\n      tag_41\n      jump\t// in\n    tag_134:\n        /* \"#utility.yul\":5181:5244   */\n      swap2\n      pop\n        /* \"#utility.yul\":5136:5254   */\n      pop\n        /* \"#utility.yul\":4607:5261   */\n      swap3\n      pop\n      swap3\n      swap1\n      pop\n      jump\t// out\n        /* \"#utility.yul\":5267:5776   */\n    tag_18:\n        /* \"#utility.yul\":5336:5342   */\n      0x00\n        /* \"#utility.yul\":5385:5387   */\n      0x20\n        /* \"#utility.yul\":5373:5382   */\n      dup3\n        /* \"#utility.yul\":5364:5371   */\n      dup5\n        /* \"#utility.yul\":5360:5383   */\n      sub\n        /* \"#utility.yul\":5356:5388   */\n      slt\n        /* \"#utility.yul\":5353:5472   */\n      iszero\n      tag_136\n      jumpi\n        /* \"#utility.yul\":5391:5470   */\n      tag_137\n      tag_37\n      jump\t// in\n    tag_137:\n        /* \"#utility.yul\":5353:5472   */\n    tag_136:\n        /* \"#utility.yul\":5539:5540   */\n      0x00\n        /* \"#utility.yul\":5528:5537   */\n      dup3\n        /* \"#utility.yul\":5524:5541   */\n      add\n        /* \"#utility.yul\":5511:5542   */\n      calldataload\n        /* \"#utility.yul\":5569:5587   */\n      0xffffffffffffffff\n        /* \"#utility.yul\":5561:5567   */\n      dup2\n        /* \"#utility.yul\":5558:5588   */\n      gt\n        /* \"#utility.yul\":5555:5672   */\n      iszero\n      tag_138\n      jumpi\n        /* \"#utility.yul\":5591:5670   */\n      tag_139\n      tag_38\n      jump\t// in\n    tag_139:\n        /* \"#utility.yul\":5555:5672   */\n    tag_138:\n        /* \"#utility.yul\":5696:5759   */\n      tag_140\n        /* \"#utility.yul\":5751:5758   */\n      dup5\n        /* \"#utility.yul\":5742:5748   */\n      dup3\n        /* \"#utility.yul\":5731:5740   */\n      dup6\n        /* \"#utility.yul\":5727:5749   */\n      add\n        /* \"#utility.yul\":5696:5759   */\n      tag_56\n      jump\t// in\n    tag_140:\n        /* \"#utility.yul\":5686:5759   */\n      swap2\n      pop\n        /* \"#utility.yul\":5482:5769   */\n      pop\n        /* \"#utility.yul\":5267:5776   */\n      swap3\n      swap2\n      pop\n      pop\n      jump\t// out\n        /* \"#utility.yul\":5782:6004   */\n    tag_21:\n        /* \"#utility.yul\":5875:5879   */\n      0x00\n        /* \"#utility.yul\":5913:5915   */\n      0x20\n        /* \"#utility.yul\":5902:5911   */\n      dup3\n        /* \"#utility.yul\":5898:5916   */\n      add\n        /* \"#utility.yul\":5890:5916   */\n      swap1\n      pop\n        /* \"#utility.yul\":5926:5997   */\n      tag_142\n        /* \"#utility.yul\":5994:5995   */\n      0x00\n        /* \"#utility.yul\":5983:5992   */\n      dup4\n        /* \"#utility.yul\":5979:5996   */\n      add\n        /* \"#utility.yul\":5970:5976   */\n      dup5\n        /* \"#utility.yul\":5926:5997   */\n      tag_47\n      jump\t// in\n    tag_142:\n        /* \"#utility.yul\":5782:6004   */\n      swap3\n      swap2\n      pop\n      pop\n      jump\t// out\n        /* \"#utility.yul\":6010:6190   */\n    tag_57:\n        /* \"#utility.yul\":6058:6135   */\n      0x4e487b7100000000000000000000000000000000000000000000000000000000\n        /* \"#utility.yul\":6055:6056   */\n      0x00\n        /* \"#utility.yul\":6048:6136   */\n      mstore\n        /* \"#utility.yul\":6155:6159   */\n      0x22\n        /* \"#utility.yul\":6152:6153   */\n      0x04\n        /* \"#utility.yul\":6145:6160   */\n      mstore\n        /* \"#utility.yul\":6179:6183   */\n      0x24\n        /* \"#utility.yul\":6176:6177   */\n      0x00\n        /* \"#utility.yul\":6169:6184   */\n      revert\n        /* \"#utility.yul\":6196:6516   */\n    tag_25:\n        /* \"#utility.yul\":6240:6246   */\n      0x00\n        /* \"#utility.yul\":6277:6278   */\n      0x02\n        /* \"#utility.yul\":6271:6275   */\n      dup3\n        /* \"#utility.yul\":6267:6279   */\n      div\n        /* \"#utility.yul\":6257:6279   */\n      swap1\n      pop\n        /* \"#utility.yul\":6324:6325   */\n      0x01\n        /* \"#utility.yul\":6318:6322   */\n      dup3\n        /* \"#utility.yul\":6314:6326   */\n      and\n        /* \"#utility.yul\":6345:6363   */\n      dup1\n        /* \"#utility.yul\":6335:6416   */\n      tag_145\n      jumpi\n        /* \"#utility.yul\":6401:6405   */\n      0x7f\n        /* \"#utility.yul\":6393:6399   */\n      dup3\n        /* \"#utility.yul\":6389:6406   */\n      and\n        /* \"#utility.yul\":6379:6406   */\n      swap2\n      pop\n        /* \"#utility.yul\":6335:6416   */\n    tag_145:\n        /* \"#utility.yul\":6463:6465   */\n      0x20\n        /* \"#utility.yul\":6455:6461   */\n      dup3\n        /* \"#utility.yul\":6452:6466   */\n      lt\n        /* \"#utility.yul\":6432:6450   */\n      dup2\n        /* \"#utility.yul\":6429:6467   */\n      sub\n        /* \"#utility.yul\":6426:6510   */\n      tag_146\n      jumpi\n        /* \"#utility.yul\":6482:6500   */\n      tag_147\n      tag_57\n      jump\t// in\n    tag_147:\n        /* \"#utility.yul\":6426:6510   */\n    tag_146:\n        /* \"#utility.yul\":6247:6516   */\n      pop\n        /* \"#utility.yul\":6196:6516   */\n      swap2\n      swap1\n      pop\n      jump\t// out\n        /* \"#utility.yul\":6522:6663   */\n    tag_58:\n        /* \"#utility.yul\":6571:6575   */\n      0x00\n        /* \"#utility.yul\":6594:6597   */\n      dup2\n        /* \"#utility.yul\":6586:6597   */\n      swap1\n      pop\n        /* \"#utility.yul\":6617:6620   */\n      dup2\n        /* \"#utility.yul\":6614:6615   */\n      0x00\n        /* \"#utility.yul\":6607:6621   */\n      mstore\n        /* \"#utility.yul\":6651:6655   */\n      0x20\n        /* \"#utility.yul\":6648:6649   */\n      0x00\n        /* \"#utility.yul\":6638:6656   */\n      keccak256\n        /* \"#utility.yul\":6630:6656   */\n      swap1\n      pop\n        /* \"#utility.yul\":6522:6663   */\n      swap2\n      swap1\n      pop\n      jump\t// out\n        /* \"#utility.yul\":6669:6762   */\n    tag_59:\n        /* \"#utility.yul\":6706:6712   */\n      0x00\n        /* \"#utility.yul\":6753:6755   */\n      0x20\n        /* \"#utility.yul\":6748:6750   */\n      0x1f\n        /* \"#utility.yul\":6741:6746   */\n      dup4\n        /* \"#utility.yul\":6737:6751   */\n      add\n        /* \"#utility.yul\":6733:6756   */\n      div\n        /* \"#utility.yul\":6723:6756   */\n      swap1\n      pop\n        /* \"#utility.yul\":6669:6762   */\n      swap2\n      swap1\n      pop\n      jump\t// out\n        /* \"#utility.yul\":6768:6875   */\n    tag_60:\n        /* \"#utility.yul\":6812:6820   */\n      0x00\n        /* \"#utility.yul\":6862:6867   */\n      dup3\n        /* \"#utility.yul\":6856:6860   */\n      dup3\n        /* \"#utility.yul\":6852:6868   */\n      shl\n        /* \"#utility.yul\":6831:6868   */\n      swap1\n      pop\n        /* \"#utility.yul\":6768:6875   */\n      swap3\n      swap2\n      pop\n      pop\n      jump\t// out\n        /* \"#utility.yul\":6881:7274   */\n    tag_61:\n        /* \"#utility.yul\":6950:6956   */\n      0x00\n        /* \"#utility.yul\":7000:7001   */\n      0x08\n        /* \"#utility.yul\":6988:6998   */\n      dup4\n        /* \"#utility.yul\":6984:7002   */\n      mul\n        /* \"#utility.yul\":7023:7120   */\n      tag_152\n        /* \"#utility.yul\":7053:7119   */\n      0xffffffffffffffffffffffffffffffffffffffffffffffffffffffffffffffff\n        /* \"#utility.yul\":7042:7051   */\n      dup3\n        /* \"#utility.yul\":7023:7120   */\n      tag_60\n      jump\t// in\n    tag_152:\n        /* \"#utility.yul\":7141:7180   */\n      tag_153\n        /* \"#utility.yul\":7171:7179   */\n      dup7\n        /* \"#utility.yul\":7160:7169   */\n      dup4\n        /* \"#utility.yul\":7141:7180   */\n      tag_60\n      jump\t// in\n    tag_153:\n        /* \"#utility.yul\":7129:7180   */\n      swap6\n      pop\n        /* \"#utility.yul\":7213:7217   */\n      dup1\n        /* \"#utility.yul\":7209:7218   */\n      not\n        /* \"#utility.yul\":7202:7207   */\n      dup5\n        /* \"#utility.yul\":7198:7219   */\n      and\n        /* \"#utility.yul\":7189:7219   */\n      swap4\n      pop\n        /* \"#utility.yul\":7262:7266   */\n      dup1\n        /* \"#utility.yul\":7252:7260   */\n      dup7\n        /* \"#utility.yul\":7248:7267   */\n      and\n        /* \"#utility.yul\":7241:7246   */\n      dup5\n        /* \"#utility.yul\":7238:7268   */\n      or\n        /* \"#utility.yul\":7228:7268   */\n      swap3\n      pop\n        /* \"#utility.yul\":6957:7274   */\n      pop\n      pop\n        /* \"#utility.yul\":6881:7274   */\n      swap4\n      swap3\n      pop\n      pop\n      pop\n      jump\t// out\n        /* \"#utility.yul\":7280:7340   */\n    tag_62:\n        /* \"#utility.yul\":7308:7311   */\n      0x00\n        /* \"#utility.yul\":7329:7334   */\n      dup2\n        /* \"#utility.yul\":7322:7334   */\n      swap1\n      pop\n        /* \"#utility.yul\":7280:7340   */\n      swap2\n      swap1\n      pop\n      jump\t// out\n        /* \"#utility.yul\":7346:7488   */\n    tag_63:\n        /* \"#utility.yul\":7396:7405   */\n      0x00\n        /* \"#utility.yul\":7429:7482   */\n      tag_156\n        /* \"#utility.yul\":7447:7481   */\n      tag_157\n        /* \"#utility.yul\":7456:7480   */\n      tag_158\n        /* \"#utility.yul\":7474:7479   */\n      dup5\n        /* \"#utility.yul\":7456:7480   */\n      tag_39\n      jump\t// in\n    tag_158:\n        /* \"#utility.yul\":7447:7481   */\n      tag_62\n      jump\t// in\n    tag_157:\n        /* \"#utility.yul\":7429:7482   */\n      tag_39\n      jump\t// in\n    tag_156:\n        /* \"#utility.yul\":7416:7482   */\n      swap1\n      pop\n        /* \"#utility.yul\":7346:7488   */\n      swap2\n      swap1\n      pop\n      jump\t// out\n        /* \"#utility.yul\":7494:7569   */\n    tag_64:\n        /* \"#utility.yul\":7537:7540   */\n      0x00\n        /* \"#utility.yul\":7558:7563   */\n      dup2\n        /* \"#utility.yul\":7551:7563   */\n      swap1\n      pop\n        /* \"#utility.yul\":7494:7569   */\n      swap2\n      swap1\n      pop\n      jump\t// out\n        /* \"#utility.yul\":7575:7844   */\n    tag_65:\n        /* \"#utility.yul\":7685:7724   */\n      tag_161\n        /* \"#utility.yul\":7716:7723   */\n      dup4\n        /* \"#utility.yul\":7685:7724   */\n      tag_63\n      jump\t// in\n    tag_161:\n        /* \"#utility.yul\":7746:7837   */\n      tag_162\n        /* \"#utility.yul\":7795:7836   */\n      tag_163\n        /* \"#utility.yul\":7819:7835   */\n      dup3\n        /* \"#utility.yul\":7795:7836   */\n      tag_64\n      jump\t// in\n    tag_163:\n        /* \"#utility.yul\":7787:7793   */\n      dup5\n        /* \"#utility.yul\":7780:7784   */\n      dup5\n        /* \"#utility.yul\":7774:7785   */\n      sload\n        /* \"#utility.yul\":7746:7837   */\n      tag_61\n      jump\t// in\n    tag_162:\n        /* \"#utility.yul\":7740:7744   */\n      dup3\n        /* \"#utility.yul\":7733:7838   */\n      sstore\n        /* \"#utility.yul\":7651:7844   */\n      pop\n        /* \"#utility.yul\":7575:7844   */\n      pop\n      pop\n      pop\n      jump\t// out\n        /* \"#utility.yul\":7850:7923   */\n    tag_66:\n        /* \"#utility.yul\":7895:7898   */\n      0x00\n        /* \"#utility.yul\":7916:7917   */\n      0x00\n        /* \"#utility.yul\":7909:7917   */\n      swap1\n      pop\n        /* \"#utility.yul\":7850:7923   */\n      swap1\n      jump\t// out\n        /* \"#utility.yul\":7929:8118   */\n    tag_67:\n        /* \"#utility.yul\":8006:8038   */\n      tag_166\n      tag_66\n      jump\t// in\n    tag_166:\n        /* \"#utility.yul\":8047:8112   */\n      tag_167\n        /* \"#utility.yul\":8105:8111   */\n      dup2\n        /* \"#utility.yul\":8097:8103   */\n      dup5\n        /* \"#utility.yul\":8091:8095   */\n      dup5\n        /* \"#utility.yul\":8047:8112   */\n      tag_65\n      jump\t// in\n    tag_167:\n        /* \"#utility.yul\":7982:8118   */\n      pop\n        /* \"#utility.yul\":7929:8118   */\n      pop\n      pop\n      jump\t// out\n        /* \"#utility.yul\":8124:8338   */\n    tag_68:\n        /* \"#utility.yul\":8209:8210   */\n      0x00\n        /* \"#utility.yul\":8194:8332   */\n    tag_169:\n        /* \"#utility.yul\":8219:8228   */\n      dup3\n        /* \"#utility.yul\":8216:8217   */\n      dup2\n        /* \"#utility.yul\":8213:8229   */\n      lt\n        /* \"#utility.yul\":8194:8332   */\n      iszero\n      tag_171\n      jumpi\n        /* \"#utility.yul\":8271:8322   */\n      tag_172\n        /* \"#utility.yul\":8320:8321   */\n      0x00\n        /* \"#utility.yul\":8316:8317   */\n      dup3\n        /* \"#utility.yul\":8305:8314   */\n      dup5\n        /* \"#utility.yul\":8301:8318   */\n      add\n        /* \"#utility.yul\":8271:8322   */\n      tag_67\n      jump\t// in\n    tag_172:\n        /* \"#utility.yul\":8244:8245   */\n      0x01\n        /* \"#utility.yul\":8241:8242   */\n      dup2\n        /* \"#utility.yul\":8237:8246   */\n      add\n        /* \"#utility.yul\":8232:8246   */\n      swap1\n      pop\n        /* \"#utility.yul\":8194:8332   */\n      jump(tag_169)\n    tag_171:\n        /* \"#utility.yul\":8198:8212   */\n      pop\n        /* \"#utility.yul\":8124:8338   */\n      pop\n      pop\n      jump\t// out\n        /* \"#utility.yul\":8344:9090   */\n    tag_69:\n        /* \"#utility.yul\":8445:8447   */\n      0x1f\n        /* \"#utility.yul\":8440:8443   */\n      dup3\n        /* \"#utility.yul\":8437:8448   */\n      gt\n        /* \"#utility.yul\":8434:9083   */\n      iszero\n      tag_174\n      jumpi\n        /* \"#utility.yul\":8474:8484   */\n      dup3\n        /* \"#utility.yul\":8469:8472   */\n      dup3\n        /* \"#utility.yul\":8466:8485   */\n      gt\n        /* \"#utility.yul\":8463:9073   */\n      iszero\n      tag_175\n      jumpi\n        /* \"#utility.yul\":8520:8558   */\n      tag_176\n        /* \"#utility.yul\":8552:8557   */\n      dup2\n        /* \"#utility.yul\":8520:8558   */\n      tag_58\n      jump\t// in\n    tag_176:\n        /* \"#utility.yul\":8595:8617   */\n      tag_177\n        /* \"#utility.yul\":8613:8616   */\n      dup4\n        /* \"#utility.yul\":8595:8617   */\n      tag_59\n      jump\t// in\n    tag_177:\n        /* \"#utility.yul\":8654:8683   */\n      tag_178\n        /* \"#utility.yul\":8672:8682   */\n      dup6\n        /* \"#utility.yul\":8654:8683   */\n      tag_59\n      jump\t// in\n    tag_178:\n        /* \"#utility.yul\":8844:8846   */\n      0x20\n        /* \"#utility.yul\":8832:8842   */\n      dup7\n        /* \"#utility.yul\":8829:8847   */\n      lt\n        /* \"#utility.yul\":8826:8905   */\n      iszero\n      tag_179\n      jumpi\n        /* \"#utility.yul\":8886:8887   */\n      0x00\n        /* \"#utility.yul\":8870:8887   */\n      swap1\n      pop\n        /* \"#utility.yul\":8826:8905   */\n    tag_179:\n        /* \"#utility.yul\":8955:8967   */\n      dup1\n        /* \"#utility.yul\":8945:8953   */\n      dup4\n        /* \"#utility.yul\":8941:8968   */\n      add\n        /* \"#utility.yul\":8985:9059   */\n      tag_180\n        /* \"#utility.yul\":9045:9057   */\n      dup3\n        /* \"#utility.yul\":9031:9043   */\n      dup5\n        /* \"#utility.yul\":9027:9058   */\n      sub\n        /* \"#utility.yul\":9014:9025   */\n      dup3\n        /* \"#utility.yul\":8985:9059   */\n      tag_68\n      jump\t// in\n    tag_180:\n        /* \"#utility.yul\":8486:9073   */\n      pop\n      pop\n      pop\n      pop\n        /* \"#utility.yul\":8463:9073   */\n    tag_175:\n        /* \"#utility.yul\":8434:9083   */\n    tag_174:\n        /* \"#utility.yul\":8344:9090   */\n      pop\n      pop\n      pop\n      jump\t// out\n        /* \"#utility.yul\":9096:9213   */\n    tag_70:\n        /* \"#utility.yul\":9150:9158   */\n      0x00\n        /* \"#utility.yul\":9200:9205   */\n      dup3\n        /* \"#utility.yul\":9194:9198   */\n      dup3\n        /* \"#utility.yul\":9190:9206   */\n      shr\n        /* \"#utility.yul\":9169:9206   */\n      swap1\n      pop\n        /* \"#utility.yul\":9096:9213   */\n      swap3\n      swap2\n      pop\n      pop\n      jump\t// out\n        /* \"#utility.yul\":9219:9388   */\n    tag_71:\n        /* \"#utility.yul\":9263:9269   */\n      0x00\n        /* \"#utility.yul\":9296:9347   */\n      tag_183\n        /* \"#utility.yul\":9344:9345   */\n      0x00\n        /* \"#utility.yul\":9340:9346   */\n      not\n        /* \"#utility.yul\":9332:9337   */\n      dup5\n        /* \"#utility.yul\":9329:9330   */\n      0x08\n        /* \"#utility.yul\":9325:9338   */\n      mul\n        /* \"#utility.yul\":9296:9347   */\n      tag_70\n      jump\t// in\n    tag_183:\n        /* \"#utility.yul\":9292:9348   */\n      not\n        /* \"#utility.yul\":9377:9381   */\n      dup1\n        /* \"#utility.yul\":9371:9375   */\n      dup4\n        /* \"#utility.yul\":9367:9382   */\n      and\n        /* \"#utility.yul\":9357:9382   */\n      swap2\n      pop\n        /* \"#utility.yul\":9270:9388   */\n      pop\n        /* \"#utility.yul\":9219:9388   */\n      swap3\n      swap2\n      pop\n      pop\n      jump\t// out\n        /* \"#utility.yul\":9393:9688   */\n    tag_72:\n        /* \"#utility.yul\":9469:9473   */\n      0x00\n        /* \"#utility.yul\":9615:9644   */\n      tag_185\n        /* \"#utility.yul\":9640:9643   */\n      dup4\n        /* \"#utility.yul\":9634:9638   */\n      dup4\n        /* \"#utility.yul\":9615:9644   */\n      tag_71\n      jump\t// in\n    tag_185:\n        /* \"#utility.yul\":9607:9644   */\n      swap2\n      pop\n        /* \"#utility.yul\":9677:9680   */\n      dup3\n        /* \"#utility.yul\":9674:9675   */\n      0x02\n        /* \"#utility.yul\":9670:9681   */\n      mul\n        /* \"#utility.yul\":9664:9668   */\n      dup3\n        /* \"#utility.yul\":9661:9682   */\n      or\n        /* \"#utility.yul\":9653:9682   */\n      swap1\n      pop\n        /* \"#utility.yul\":9393:9688   */\n      swap3\n      swap2\n      pop\n      pop\n      jump\t// out\n        /* \"#utility.yul\":9693:11088   */\n    tag_33:\n        /* \"#utility.yul\":9810:9847   */\n      tag_187\n        /* \"#utility.yul\":9843:9846   */\n      dup3\n        /* \"#utility.yul\":9810:9847   */\n      tag_42\n      jump\t// in\n    tag_187:\n        /* \"#utility.yul\":9912:9930   */\n      0xffffffffffffffff\n        /* \"#utility.yul\":9904:9910   */\n      dup2\n        /* \"#utility.yul\":9901:9931   */\n      gt\n        /* \"#utility.yul\":9898:9954   */\n      iszero\n      tag_188\n      jumpi\n        /* \"#utility.yul\":9934:9952   */\n      tag_189\n      tag_50\n      jump\t// in\n    tag_189:\n        /* \"#utility.yul\":9898:9954   */\n    tag_188:\n        /* \"#utility.yul\":9978:10016   */\n      tag_190\n        /* \"#utility.yul\":10010:10014   */\n      dup3\n        /* \"#utility.yul\":10004:10015   */\n      sload\n        /* \"#utility.yul\":9978:10016   */\n      tag_25\n      jump\t// in\n    tag_190:\n        /* \"#utility.yul\":10063:10130   */\n      tag_191\n        /* \"#utility.yul\":10123:10129   */\n      dup3\n        /* \"#utility.yul\":10115:10121   */\n      dup3\n        /* \"#utility.yul\":10109:10113   */\n      dup6\n        /* \"#utility.yul\":10063:10130   */\n      tag_69\n      jump\t// in\n    tag_191:\n        /* \"#utility.yul\":10157:10158   */\n      0x00\n        /* \"#utility.yul\":10181:10185   */\n      0x20\n        /* \"#utility.yul\":10168:10185   */\n      swap1\n      pop\n        /* \"#utility.yul\":10213:10215   */\n      0x1f\n        /* \"#utility.yul\":10205:10211   */\n      dup4\n        /* \"#utility.yul\":10202:10216   */\n      gt\n        /* \"#utility.yul\":10230:10231   */\n      0x01\n        /* \"#utility.yul\":10225:10843   */\n      dup2\n      eq\n      tag_193\n      jumpi\n        /* \"#utility.yul\":10887:10888   */\n      0x00\n        /* \"#utility.yul\":10904:10910   */\n      dup5\n        /* \"#utility.yul\":10901:10978   */\n      iszero\n      tag_194\n      jumpi\n        /* \"#utility.yul\":10953:10962   */\n      dup3\n        /* \"#utility.yul\":10948:10951   */\n      dup8\n        /* \"#utility.yul\":10944:10963   */\n      add\n        /* \"#utility.yul\":10938:10964   */\n      mload\n        /* \"#utility.yul\":10929:10964   */\n      swap1\n      pop\n        /* \"#utility.yul\":10901:10978   */\n    tag_194:\n        /* \"#utility.yul\":11004:11071   */\n      tag_195\n        /* \"#utility.yul\":11064:11070   */\n      dup6\n        /* \"#utility.yul\":11057:11062   */\n      dup3\n        /* \"#utility.yul\":11004:11071   */\n      tag_72\n      jump\t// in\n    tag_195:\n        /* \"#utility.yul\":10998:11002   */\n      dup7\n        /* \"#utility.yul\":10991:11072   */\n      sstore\n        /* \"#utility.yul\":10860:11082   */\n      pop\n        /* \"#utility.yul\":10195:11082   */\n      jump(tag_192)\n        /* \"#utility.yul\":10225:10843   */\n    tag_193:\n        /* \"#utility.yul\":10277:10281   */\n      0x1f\n        /* \"#utility.yul\":10273:10282   */\n      not\n        /* \"#utility.yul\":10265:10271   */\n      dup5\n        /* \"#utility.yul\":10261:10283   */\n      and\n        /* \"#utility.yul\":10311:10348   */\n      tag_196\n        /* \"#utility.yul\":10343:10347   */\n      dup7\n        /* \"#utility.yul\":10311:10348   */\n      tag_58\n      jump\t// in\n    tag_196:\n        /* \"#utility.yul\":10370:10371   */\n      0x00\n        /* \"#utility.yul\":10384:10592   */\n    tag_197:\n        /* \"#utility.yul\":10398:10405   */\n      dup3\n        /* \"#utility.yul\":10395:10396   */\n      dup2\n        /* \"#utility.yul\":10392:10406   */\n      lt\n        /* \"#utility.yul\":10384:10592   */\n      iszero\n      tag_199\n      jumpi\n        /* \"#utility.yul\":10477:10486   */\n      dup5\n        /* \"#utility.yul\":10472:10475   */\n      dup10\n        /* \"#utility.yul\":10468:10487   */\n      add\n        /* \"#utility.yul\":10462:10488   */\n      mload\n        /* \"#utility.yul\":10454:10460   */\n      dup3\n        /* \"#utility.yul\":10447:10489   */\n      sstore\n        /* \"#utility.yul\":10528:10529   */\n      0x01\n        /* \"#utility.yul\":10520:10526   */\n      dup3\n        /* \"#utility.yul\":10516:10530   */\n      add\n        /* \"#utility.yul\":10506:10530   */\n      swap2\n      pop\n        /* \"#utility.yul\":10575:10577   */\n      0x20\n        /* \"#utility.yul\":10564:10573   */\n      dup6\n        /* \"#utility.yul\":10560:10578   */\n      add\n        /* \"#utility.yul\":10547:10578   */\n      swap5\n      pop\n        /* \"#utility.yul\":10421:10425   */\n      0x20\n        /* \"#utility.yul\":10418:10419   */\n      dup2\n        /* \"#utility.yul\":10414:10426   */\n      add\n        /* \"#utility.yul\":10409:10426   */\n      swap1\n      pop\n        /* \"#utility.yul\":10384:10592   */\n      jump(tag_197)\n    tag_199:\n        /* \"#utility.yul\":10620:10626   */\n      dup7\n        /* \"#utility.yul\":10611:10618   */\n      dup4\n        /* \"#utility.yul\":10608:10627   */\n      lt\n        /* \"#utility.yul\":10605:10784   */\n      iszero\n      tag_200\n      jumpi\n        /* \"#utility.yul\":10678:10687   */\n      dup5\n        /* \"#utility.yul\":10673:10676   */\n      dup10\n        /* \"#utility.yul\":10669:10688   */\n      add\n        /* \"#utility.yul\":10663:10689   */\n      mload\n        /* \"#utility.yul\":10721:10769   */\n      tag_201\n        /* \"#utility.yul\":10763:10767   */\n      0x1f\n        /* \"#utility.yul\":10755:10761   */\n      dup10\n        /* \"#utility.yul\":10751:10768   */\n      and\n        /* \"#utility.yul\":10740:10749   */\n      dup3\n        /* \"#utility.yul\":10721:10769   */\n      tag_71\n      jump\t// in\n    tag_201:\n        /* \"#utility.yul\":10713:10719   */\n      dup4\n        /* \"#utility.yul\":10706:10770   */\n      sstore\n        /* \"#utility.yul\":10628:10784   */\n      pop\n        /* \"#utility.yul\":10605:10784   */\n    tag_200:\n        /* \"#utility.yul\":10830:10831   */\n      0x01\n        /* \"#utility.yul\":10826:10827   */\n      0x02\n        /* \"#utility.yul\":10818:10824   */\n      dup9\n        /* \"#utility.yul\":10814:10828   */\n      mul\n        /* \"#utility.yul\":10810:10832   */\n      add\n        /* \"#utility.yul\":10804:10808   */\n      dup9\n        /* \"#utility.yul\":10797:10833   */\n      sstore\n        /* \"#utility.yul\":10232:10843   */\n      pop\n      pop\n      pop\n        /* \"#utility.yul\":10195:11082   */\n    tag_192:\n      pop\n        /* \"#utility.yul\":9785:11088   */\n      pop\n      pop\n      pop\n        /* \"#utility.yul\":9693:11088   */\n      pop\n      pop\n      jump\t// out\n        /* \"#utility.yul\":11094:11242   */\n    tag_73:\n        /* \"#utility.yul\":11196:11207   */\n      0x00\n        /* \"#utility.yul\":11233:11236   */\n      dup2\n        /* \"#utility.yul\":11218:11236   */\n      swap1\n      pop\n        /* \"#utility.yul\":11094:11242   */\n      swap3\n      swap2\n      pop\n      pop\n      jump\t// out\n        /* \"#utility.yul\":11248:11638   */\n    tag_74:\n        /* \"#utility.yul\":11354:11357   */\n      0x00\n        /* \"#utility.yul\":11382:11421   */\n      tag_204\n        /* \"#utility.yul\":11415:11420   */\n      dup3\n        /* \"#utility.yul\":11382:11421   */\n      tag_42\n      jump\t// in\n    tag_204:\n        /* \"#utility.yul\":11437:11526   */\n      tag_205\n        /* \"#utility.yul\":11519:11525   */\n      dup2\n        /* \"#utility.yul\":11514:11517   */\n      dup6\n        /* \"#utility.yul\":11437:11526   */\n      tag_73\n      jump\t// in\n    tag_205:\n        /* \"#utility.yul\":11430:11526   */\n      swap4\n      pop\n        /* \"#utility.yul\":11535:11600   */\n      tag_206\n        /* \"#utility.yul\":11593:11599   */\n      dup2\n        /* \"#utility.yul\":11588:11591   */\n      dup6\n        /* \"#utility.yul\":11581:11585   */\n      0x20\n        /* \"#utility.yul\":11574:11579   */\n      dup7\n        /* \"#utility.yul\":11570:11586   */\n      add\n        /* \"#utility.yul\":11535:11600   */\n      tag_44\n      jump\t// in\n    tag_206:\n        /* \"#utility.yul\":11625:11631   */\n      dup1\n        /* \"#utility.yul\":11620:11623   */\n      dup5\n        /* \"#utility.yul\":11616:11632   */\n      add\n        /* \"#utility.yul\":11609:11632   */\n      swap2\n      pop\n        /* \"#utility.yul\":11358:11638   */\n      pop\n        /* \"#utility.yul\":11248:11638   */\n      swap3\n      swap2\n      pop\n      pop\n      jump\t// out\n        /* \"#utility.yul\":11644:11919   */\n    tag_35:\n        /* \"#utility.yul\":11776:11779   */\n      0x00\n        /* \"#utility.yul\":11798:11893   */\n      tag_208\n        /* \"#utility.yul\":11889:11892   */\n      dup3\n        /* \"#utility.yul\":11880:11886   */\n      dup5\n        /* \"#utility.yul\":11798:11893   */\n      tag_74\n      jump\t// in\n    tag_208:\n        /* \"#utility.yul\":11791:11893   */\n      swap2\n      pop\n        /* \"#utility.yul\":11910:11913   */\n      dup2\n        /* \"#utility.yul\":11903:11913   */\n      swap1\n      pop\n        /* \"#utility.yul\":11644:11919   */\n      swap3\n      swap2\n      pop\n      pop\n      jump\t// out\n\n    auxdata: 0xa26469706673582212206c8baaa0895b892ab180ea26cd9f9406b5e6e8a7f0a492ef28c43cbff5af039b64736f6c63430008210033\n}\n",
				"bytecode": {
					"linkReferences": {},
					"object": "6080604052348015600e575f5ffd5b506108898061001c5f395ff3fe608060405234801561000f575f5ffd5b506004361061003f575f3560e01c80632ebce631146100435780636f760f41146100745780638bab8dd514610090575b5f5ffd5b61005d60048036038101906100589190610268565b6100c0565b60405161006b929190610312565b60405180910390f35b61008e6004803603810190610089919061046c565b610174565b005b6100aa60048036038101906100a591906104c6565b6101f7565b6040516100b7919061050d565b60405180910390f35b5f81815481106100ce575f80fd5b905f5260205f2090600202015f91509050805f0180546100ed90610553565b80601f016020809104026020016040519081016040528092919081815260200182805461011990610553565b80156101645780601f1061013b57610100808354040283529160200191610164565b820191905f5260205f20905b81548152906001019060200180831161014757829003601f168201915b5050505050908060010154905082565b5f604051806040016040528084815260200183815250908060018154018082558091505060019003905f5260205f2090600202015f909190919091505f820151815f0190816101c39190610734565b50602082015181600101555050806001836040516101e1919061083d565b9081526020016040518091039020819055505050565b6001818051602081018201805184825260208301602085012081835280955050505050505f915090505481565b5f604051905090565b5f5ffd5b5f5ffd5b5f819050919050565b61024781610235565b8114610251575f5ffd5b50565b5f813590506102628161023e565b92915050565b5f6020828403121561027d5761027c61022d565b5b5f61028a84828501610254565b91505092915050565b5f81519050919050565b5f82825260208201905092915050565b8281835e5f83830152505050565b5f601f19601f8301169050919050565b5f6102d582610293565b6102df818561029d565b93506102ef8185602086016102ad565b6102f8816102bb565b840191505092915050565b61030c81610235565b82525050565b5f6040820190508181035f83015261032a81856102cb565b90506103396020830184610303565b9392505050565b5f5ffd5b5f5ffd5b7f4e487b71000000000000000000000000000000000000000000000000000000005f52604160045260245ffd5b61037e826102bb565b810181811067ffffffffffffffff8211171561039d5761039c610348565b5b80604052505050565b5f6103af610224565b90506103bb8282610375565b919050565b5f67ffffffffffffffff8211156103da576103d9610348565b5b6103e3826102bb565b9050602081019050919050565b828183375f83830152505050565b5f61041061040b846103c0565b6103a6565b90508281526020810184848401111561042c5761042b610344565b5b6104378482856103f0565b509392505050565b5f82601f83011261045357610452610340565b5b81356104638482602086016103fe565b91505092915050565b5f5f604083850312156104825761048161022d565b5b5f83013567ffffffffffffffff81111561049f5761049e610231565b5b6104ab8582860161043f565b92505060206104bc85828601610254565b9150509250929050565b5f602082840312156104db576104da61022d565b5b5f82013567ffffffffffffffff8111156104f8576104f7610231565b5b6105048482850161043f565b91505092915050565b5f6020820190506105205f830184610303565b92915050565b7f4e487b71000000000000000000000000000000000000000000000000000000005f52602260045260245ffd5b5f600282049050600182168061056a57607f821691505b60208210810361057d5761057c610526565b5b50919050565b5f819050815f5260205f209050919050565b5f6020601f8301049050919050565b5f82821b905092915050565b5f600883026105df7fffffffffffffffffffffffffffffffffffffffffffffffffffffffffffffffff826105a4565b6105e986836105a4565b95508019841693508086168417925050509392505050565b5f819050919050565b5f61062461061f61061a84610235565b610601565b610235565b9050919050565b5f819050919050565b61063d8361060a565b6106516106498261062b565b8484546105b0565b825550505050565b5f5f905090565b610668610659565b610673818484610634565b505050565b5f5b828110156106995761068e5f828401610660565b60018101905061067a565b505050565b601f8211156106ec57828211156106eb576106b881610583565b6106c183610595565b6106ca85610595565b60208610156106d7575f90505b8083016106e682840382610678565b505050505b5b505050565b5f82821c905092915050565b5f61070c5f19846008026106f1565b1980831691505092915050565b5f61072483836106fd565b9150826002028217905092915050565b61073d82610293565b67ffffffffffffffff81111561075657610755610348565b5b6107608254610553565b61076b82828561069e565b5f60209050601f83116001811461079c575f841561078a578287015190505b6107948582610719565b8655506107fb565b601f1984166107aa86610583565b5f5b828110156107d1578489015182556001820191506020850194506020810190506107ac565b868310156107ee57848901516107ea601f8916826106fd565b8355505b6001600288020188555050505b505050505050565b5f81905092915050565b5f61081782610293565b6108218185610803565b93506108318185602086016102ad565b80840191505092915050565b5f610848828461080d565b91508190509291505056fea26469706673582212206c8baaa0895b892ab180ea26cd9f9406b5e6e8a7f0a492ef28c43cbff5af039b64736f6c63430008210033",
					"opcodes": "PUSH1 0x80 PUSH1 0x40 MSTORE CALLVALUE DUP1 ISZERO PUSH1 0xE JUMPI PUSH0 PUSH0 REVERT JUMPDEST POP PUSH2 0x889 DUP1 PUSH2 0x1C PUSH0 CODECOPY PUSH0 RETURN INVALID PUSH1 0x80 PUSH1 0x40 MSTORE CALLVALUE DUP1 ISZERO PUSH2 0xF JUMPI PUSH0 PUSH0 REVERT JUMPDEST POP PUSH1 0x4 CALLDATASIZE LT PUSH2 0x3F JUMPI PUSH0 CALLDATALOAD PUSH1 0xE0 SHR DUP1 PUSH4 0x2EBCE631 EQ PUSH2 0x43 JUMPI DUP1 PUSH4 0x6F760F41 EQ PUSH2 0x74 JUMPI DUP1 PUSH4 0x8BAB8DD5 EQ PUSH2 0x90 JUMPI JUMPDEST PUSH0 PUSH0 REVERT JUMPDEST PUSH2 0x5D PUSH1 0x4 DUP1 CALLDATASIZE SUB DUP2 ADD SWAP1 PUSH2 0x58 SWAP2 SWAP1 PUSH2 0x268 JUMP JUMPDEST PUSH2 0xC0 JUMP JUMPDEST PUSH1 0x40 MLOAD PUSH2 0x6B SWAP3 SWAP2 SWAP1 PUSH2 0x312 JUMP JUMPDEST PUSH1 0x40 MLOAD DUP1 SWAP2 SUB SWAP1 RETURN JUMPDEST PUSH2 0x8E PUSH1 0x4 DUP1 CALLDATASIZE SUB DUP2 ADD SWAP1 PUSH2 0x89 SWAP2 SWAP1 PUSH2 0x46C JUMP JUMPDEST PUSH2 0x174 JUMP JUMPDEST STOP JUMPDEST PUSH2 0xAA PUSH1 0x4 DUP1 CALLDATASIZE SUB DUP2 ADD SWAP1 PUSH2 0xA5 SWAP2 SWAP1 PUSH2 0x4C6 JUMP JUMPDEST PUSH2 0x1F7 JUMP JUMPDEST PUSH1 0x40 MLOAD PUSH2 0xB7 SWAP2 SWAP1 PUSH2 0x50D JUMP JUMPDEST PUSH1 0x40 MLOAD DUP1 SWAP2 SUB SWAP1 RETURN JUMPDEST PUSH0 DUP2 DUP2 SLOAD DUP2 LT PUSH2 0xCE JUMPI PUSH0 DUP1 REVERT JUMPDEST SWAP1 PUSH0 MSTORE PUSH1 0x20 PUSH0 KECCAK256 SWAP1 PUSH1 0x2 MUL ADD PUSH0 SWAP2 POP SWAP1 POP DUP1 PUSH0 ADD DUP1 SLOAD PUSH2 0xED SWAP1 PUSH2 0x553 JUMP JUMPDEST DUP1 PUSH1 0x1F ADD PUSH1 0x20 DUP1 SWAP2 DIV MUL PUSH1 0x20 ADD PUSH1 0x40 MLOAD SWAP1 DUP2 ADD PUSH1 0x40 MSTORE DUP1 SWAP3 SWAP2 SWAP1 DUP2 DUP2 MSTORE PUSH1 0x20 ADD DUP3 DUP1 SLOAD PUSH2 0x119 SWAP1 PUSH2 0x553 JUMP JUMPDEST DUP1 ISZERO PUSH2 0x164 JUMPI DUP1 PUSH1 0x1F LT PUSH2 0x13B JUMPI PUSH2 0x100 DUP1 DUP4 SLOAD DIV MUL DUP4 MSTORE SWAP2 PUSH1 0x20 ADD SWAP2 PUSH2 0x164 JUMP JUMPDEST DUP3 ADD SWAP2 SWAP1 PUSH0 MSTORE PUSH1 0x20 PUSH0 KECCAK256 SWAP1 JUMPDEST DUP2 SLOAD DUP2 MSTORE SWAP1 PUSH1 0x1 ADD SWAP1 PUSH1 0x20 ADD DUP1 DUP4 GT PUSH2 0x147 JUMPI DUP3 SWAP1 SUB PUSH1 0x1F AND DUP3 ADD SWAP2 JUMPDEST POP POP POP POP POP SWAP1 DUP1 PUSH1 0x1 ADD SLOAD SWAP1 POP DUP3 JUMP JUMPDEST PUSH0 PUSH1 0x40 MLOAD DUP1 PUSH1 0x40 ADD PUSH1 0x40 MSTORE DUP1 DUP5 DUP2 MSTORE PUSH1 0x20 ADD DUP4 DUP2 MSTORE POP SWAP1 DUP1 PUSH1 0x1 DUP2 SLOAD ADD DUP1 DUP3 SSTORE DUP1 SWAP2 POP POP PUSH1 0x1 SWAP1 SUB SWAP1 PUSH0 MSTORE PUSH1 0x20 PUSH0 KECCAK256 SWAP1 PUSH1 0x2 MUL ADD PUSH0 SWAP1 SWAP2 SWAP1 SWAP2 SWAP1 SWAP2 POP PUSH0 DUP3 ADD MLOAD DUP2 PUSH0 ADD SWAP1 DUP2 PUSH2 0x1C3 SWAP2 SWAP1 PUSH2 0x734 JUMP JUMPDEST POP PUSH1 0x20 DUP3 ADD MLOAD DUP2 PUSH1 0x1 ADD SSTORE POP POP DUP1 PUSH1 0x1 DUP4 PUSH1 0x40 MLOAD PUSH2 0x1E1 SWAP2 SWAP1 PUSH2 0x83D JUMP JUMPDEST SWAP1 DUP2 MSTORE PUSH1 0x20 ADD PUSH1 0x40 MLOAD DUP1 SWAP2 SUB SWAP1 KECCAK256 DUP2 SWAP1 SSTORE POP POP POP JUMP JUMPDEST PUSH1 0x1 DUP2 DUP1 MLOAD PUSH1 0x20 DUP2 ADD DUP3 ADD DUP1 MLOAD DUP5 DUP3 MSTORE PUSH1 0x20 DUP4 ADD PUSH1 0x20 DUP6 ADD KECCAK256 DUP2 DUP4 MSTORE DUP1 SWAP6 POP POP POP POP POP POP PUSH0 SWAP2 POP SWAP1 POP SLOAD DUP2 JUMP JUMPDEST PUSH0 PUSH1 0x40 MLOAD SWAP1 POP SWAP1 JUMP JUMPDEST PUSH0 PUSH0 REVERT JUMPDEST PUSH0 PUSH0 REVERT JUMPDEST PUSH0 DUP2 SWAP1 POP SWAP2 SWAP1 POP JUMP JUMPDEST PUSH2 0x247 DUP2 PUSH2 0x235 JUMP JUMPDEST DUP2 EQ PUSH2 0x251 JUMPI PUSH0 PUSH0 REVERT JUMPDEST POP JUMP JUMPDEST PUSH0 DUP2 CALLDATALOAD SWAP1 POP PUSH2 0x262 DUP2 PUSH2 0x23E JUMP JUMPDEST SWAP3 SWAP2 POP POP JUMP JUMPDEST PUSH0 PUSH1 0x20 DUP3 DUP5 SUB SLT ISZERO PUSH2 0x27D JUMPI PUSH2 0x27C PUSH2 0x22D JUMP JUMPDEST JUMPDEST PUSH0 PUSH2 0x28A DUP5 DUP3 DUP6 ADD PUSH2 0x254 JUMP JUMPDEST SWAP2 POP POP SWAP3 SWAP2 POP POP JUMP JUMPDEST PUSH0 DUP2 MLOAD SWAP1 POP SWAP2 SWAP1 POP JUMP JUMPDEST PUSH0 DUP3 DUP3 MSTORE PUSH1 0x20 DUP3 ADD SWAP1 POP SWAP3 SWAP2 POP POP JUMP JUMPDEST DUP3 DUP2 DUP4 MCOPY PUSH0 DUP4 DUP4 ADD MSTORE POP POP POP JUMP JUMPDEST PUSH0 PUSH1 0x1F NOT PUSH1 0x1F DUP4 ADD AND SWAP1 POP SWAP2 SWAP1 POP JUMP JUMPDEST PUSH0 PUSH2 0x2D5 DUP3 PUSH2 0x293 JUMP JUMPDEST PUSH2 0x2DF DUP2 DUP6 PUSH2 0x29D JUMP JUMPDEST SWAP4 POP PUSH2 0x2EF DUP2 DUP6 PUSH1 0x20 DUP7 ADD PUSH2 0x2AD JUMP JUMPDEST PUSH2 0x2F8 DUP2 PUSH2 0x2BB JUMP JUMPDEST DUP5 ADD SWAP2 POP POP SWAP3 SWAP2 POP POP JUMP JUMPDEST PUSH2 0x30C DUP2 PUSH2 0x235 JUMP JUMPDEST DUP3 MSTORE POP POP JUMP JUMPDEST PUSH0 PUSH1 0x40 DUP3 ADD SWAP1 POP DUP2 DUP2 SUB PUSH0 DUP4 ADD MSTORE PUSH2 0x32A DUP2 DUP6 PUSH2 0x2CB JUMP JUMPDEST SWAP1 POP PUSH2 0x339 PUSH1 0x20 DUP4 ADD DUP5 PUSH2 0x303 JUMP JUMPDEST SWAP4 SWAP3 POP POP POP JUMP JUMPDEST PUSH0 PUSH0 REVERT JUMPDEST PUSH0 PUSH0 REVERT JUMPDEST PUSH32 0x4E487B7100000000000000000000000000000000000000000000000000000000 PUSH0 MSTORE PUSH1 0x41 PUSH1 0x4 MSTORE PUSH1 0x24 PUSH0 REVERT JUMPDEST PUSH2 0x37E DUP3 PUSH2 0x2BB JUMP JUMPDEST DUP2 ADD DUP2 DUP2 LT PUSH8 0xFFFFFFFFFFFFFFFF DUP3 GT OR ISZERO PUSH2 0x39D JUMPI PUSH2 0x39C PUSH2 0x348 JUMP JUMPDEST JUMPDEST DUP1 PUSH1 0x40 MSTORE POP POP POP JUMP JUMPDEST PUSH0 PUSH2 0x3AF PUSH2 0x224 JUMP JUMPDEST SWAP1 POP PUSH2 0x3BB DUP3 DUP3 PUSH2 0x375 JUMP JUMPDEST SWAP2 SWAP1 POP JUMP JUMPDEST PUSH0 PUSH8 0xFFFFFFFFFFFFFFFF DUP3 GT ISZERO PUSH2 0x3DA JUMPI PUSH2 0x3D9 PUSH2 0x348 JUMP JUMPDEST JUMPDEST PUSH2 0x3E3 DUP3 PUSH2 0x2BB JUMP JUMPDEST SWAP1 POP PUSH1 0x20 DUP2 ADD SWAP1 POP SWAP2 SWAP1 POP JUMP JUMPDEST DUP3 DUP2 DUP4 CALLDATACOPY PUSH0 DUP4 DUP4 ADD MSTORE POP POP POP JUMP JUMPDEST PUSH0 PUSH2 0x410 PUSH2 0x40B DUP5 PUSH2 0x3C0 JUMP JUMPDEST PUSH2 0x3A6 JUMP JUMPDEST SWAP1 POP DUP3 DUP2 MSTORE PUSH1 0x20 DUP2 ADD DUP5 DUP5 DUP5 ADD GT ISZERO PUSH2 0x42C JUMPI PUSH2 0x42B PUSH2 0x344 JUMP JUMPDEST JUMPDEST PUSH2 0x437 DUP5 DUP3 DUP6 PUSH2 0x3F0 JUMP JUMPDEST POP SWAP4 SWAP3 POP POP POP JUMP JUMPDEST PUSH0 DUP3 PUSH1 0x1F DUP4 ADD SLT PUSH2 0x453 JUMPI PUSH2 0x452 PUSH2 0x340 JUMP JUMPDEST JUMPDEST DUP2 CALLDATALOAD PUSH2 0x463 DUP5 DUP3 PUSH1 0x20 DUP7 ADD PUSH2 0x3FE JUMP JUMPDEST SWAP2 POP POP SWAP3 SWAP2 POP POP JUMP JUMPDEST PUSH0 PUSH0 PUSH1 0x40 DUP4 DUP6 SUB SLT ISZERO PUSH2 0x482 JUMPI PUSH2 0x481 PUSH2 0x22D JUMP JUMPDEST JUMPDEST PUSH0 DUP4 ADD CALLDATALOAD PUSH8 0xFFFFFFFFFFFFFFFF DUP2 GT ISZERO PUSH2 0x49F JUMPI PUSH2 0x49E PUSH2 0x231 JUMP JUMPDEST JUMPDEST PUSH2 0x4AB DUP6 DUP3 DUP7 ADD PUSH2 0x43F JUMP JUMPDEST SWAP3 POP POP PUSH1 0x20 PUSH2 0x4BC DUP6 DUP3 DUP7 ADD PUSH2 0x254 JUMP JUMPDEST SWAP2 POP POP SWAP3 POP SWAP3 SWAP1 POP JUMP JUMPDEST PUSH0 PUSH1 0x20 DUP3 DUP5 SUB SLT ISZERO PUSH2 0x4DB JUMPI PUSH2 0x4DA PUSH2 0x22D JUMP JUMPDEST JUMPDEST PUSH0 DUP3 ADD CALLDATALOAD PUSH8 0xFFFFFFFFFFFFFFFF DUP2 GT ISZERO PUSH2 0x4F8 JUMPI PUSH2 0x4F7 PUSH2 0x231 JUMP JUMPDEST JUMPDEST PUSH2 0x504 DUP5 DUP3 DUP6 ADD PUSH2 0x43F JUMP JUMPDEST SWAP2 POP POP SWAP3 SWAP2 POP POP JUMP JUMPDEST PUSH0 PUSH1 0x20 DUP3 ADD SWAP1 POP PUSH2 0x520 PUSH0 DUP4 ADD DUP5 PUSH2 0x303 JUMP JUMPDEST SWAP3 SWAP2 POP POP JUMP JUMPDEST PUSH32 0x4E487B7100000000000000000000000000000000000000000000000000000000 PUSH0 MSTORE PUSH1 0x22 PUSH1 0x4 MSTORE PUSH1 0x24 PUSH0 REVERT JUMPDEST PUSH0 PUSH1 0x2 DUP3 DIV SWAP1 POP PUSH1 0x1 DUP3 AND DUP1 PUSH2 0x56A JUMPI PUSH1 0x7F DUP3 AND SWAP2 POP JUMPDEST PUSH1 0x20 DUP3 LT DUP2 SUB PUSH2 0x57D JUMPI PUSH2 0x57C PUSH2 0x526 JUMP JUMPDEST JUMPDEST POP SWAP2 SWAP1 POP JUMP JUMPDEST PUSH0 DUP2 SWAP1 POP DUP2 PUSH0 MSTORE PUSH1 0x20 PUSH0 KECCAK256 SWAP1 POP SWAP2 SWAP1 POP JUMP JUMPDEST PUSH0 PUSH1 0x20 PUSH1 0x1F DUP4 ADD DIV SWAP1 POP SWAP2 SWAP1 POP JUMP JUMPDEST PUSH0 DUP3 DUP3 SHL SWAP1 POP SWAP3 SWAP2 POP POP JUMP JUMPDEST PUSH0 PUSH1 0x8 DUP4 MUL PUSH2 0x5DF PUSH32 0xFFFFFFFFFFFFFFFFFFFFFFFFFFFFFFFFFFFFFFFFFFFFFFFFFFFFFFFFFFFFFFFF DUP3 PUSH2 0x5A4 JUMP JUMPDEST PUSH2 0x5E9 DUP7 DUP4 PUSH2 0x5A4 JUMP JUMPDEST SWAP6 POP DUP1 NOT DUP5 AND SWAP4 POP DUP1 DUP7 AND DUP5 OR SWAP3 POP POP POP SWAP4 SWAP3 POP POP POP JUMP JUMPDEST PUSH0 DUP2 SWAP1 POP SWAP2 SWAP1 POP JUMP JUMPDEST PUSH0 PUSH2 0x624 PUSH2 0x61F PUSH2 0x61A DUP5 PUSH2 0x235 JUMP JUMPDEST PUSH2 0x601 JUMP JUMPDEST PUSH2 0x235 JUMP JUMPDEST SWAP1 POP SWAP2 SWAP1 POP JUMP JUMPDEST PUSH0 DUP2 SWAP1 POP SWAP2 SWAP1 POP JUMP JUMPDEST PUSH2 0x63D DUP4 PUSH2 0x60A JUMP JUMPDEST PUSH2 0x651 PUSH2 0x649 DUP3 PUSH2 0x62B JUMP JUMPDEST DUP5 DUP5 SLOAD PUSH2 0x5B0 JUMP JUMPDEST DUP3 SSTORE POP POP POP POP JUMP JUMPDEST PUSH0 PUSH0 SWAP1 POP SWAP1 JUMP JUMPDEST PUSH2 0x668 PUSH2 0x659 JUMP JUMPDEST PUSH2 0x673 DUP2 DUP5 DUP5 PUSH2 0x634 JUMP JUMPDEST POP POP POP JUMP JUMPDEST PUSH0 JUMPDEST DUP3 DUP2 LT ISZERO PUSH2 0x699 JUMPI PUSH2 0x68E PUSH0 DUP3 DUP5 ADD PUSH2 0x660 JUMP JUMPDEST PUSH1 0x1 DUP2 ADD SWAP1 POP PUSH2 0x67A JUMP JUMPDEST POP POP POP JUMP JUMPDEST PUSH1 0x1F DUP3 GT ISZERO PUSH2 0x6EC JUMPI DUP3 DUP3 GT ISZERO PUSH2 0x6EB JUMPI PUSH2 0x6B8 DUP2 PUSH2 0x583 JUMP JUMPDEST PUSH2 0x6C1 DUP4 PUSH2 0x595 JUMP JUMPDEST PUSH2 0x6CA DUP6 PUSH2 0x595 JUMP JUMPDEST PUSH1 0x20 DUP7 LT ISZERO PUSH2 0x6D7 JUMPI PUSH0 SWAP1 POP JUMPDEST DUP1 DUP4 ADD PUSH2 0x6E6 DUP3 DUP5 SUB DUP3 PUSH2 0x678 JUMP JUMPDEST POP POP POP POP JUMPDEST JUMPDEST POP POP POP JUMP JUMPDEST PUSH0 DUP3 DUP3 SHR SWAP1 POP SWAP3 SWAP2 POP POP JUMP JUMPDEST PUSH0 PUSH2 0x70C PUSH0 NOT DUP5 PUSH1 0x8 MUL PUSH2 0x6F1 JUMP JUMPDEST NOT DUP1 DUP4 AND SWAP2 POP POP SWAP3 SWAP2 POP POP JUMP JUMPDEST PUSH0 PUSH2 0x724 DUP4 DUP4 PUSH2 0x6FD JUMP JUMPDEST SWAP2 POP DUP3 PUSH1 0x2 MUL DUP3 OR SWAP1 POP SWAP3 SWAP2 POP POP JUMP JUMPDEST PUSH2 0x73D DUP3 PUSH2 0x293 JUMP JUMPDEST PUSH8 0xFFFFFFFFFFFFFFFF DUP2 GT ISZERO PUSH2 0x756 JUMPI PUSH2 0x755 PUSH2 0x348 JUMP JUMPDEST JUMPDEST PUSH2 0x760 DUP3 SLOAD PUSH2 0x553 JUMP JUMPDEST PUSH2 0x76B DUP3 DUP3 DUP6 PUSH2 0x69E JUMP JUMPDEST PUSH0 PUSH1 0x20 SWAP1 POP PUSH1 0x1F DUP4 GT PUSH1 0x1 DUP2 EQ PUSH2 0x79C JUMPI PUSH0 DUP5 ISZERO PUSH2 0x78A JUMPI DUP3 DUP8 ADD MLOAD SWAP1 POP JUMPDEST PUSH2 0x794 DUP6 DUP3 PUSH2 0x719 JUMP JUMPDEST DUP7 SSTORE POP PUSH2 0x7FB JUMP JUMPDEST PUSH1 0x1F NOT DUP5 AND PUSH2 0x7AA DUP7 PUSH2 0x583 JUMP JUMPDEST PUSH0 JUMPDEST DUP3 DUP2 LT ISZERO PUSH2 0x7D1 JUMPI DUP5 DUP10 ADD MLOAD DUP3 SSTORE PUSH1 0x1 DUP3 ADD SWAP2 POP PUSH1 0x20 DUP6 ADD SWAP5 POP PUSH1 0x20 DUP2 ADD SWAP1 POP PUSH2 0x7AC JUMP JUMPDEST DUP7 DUP4 LT ISZERO PUSH2 0x7EE JUMPI DUP5 DUP10 ADD MLOAD PUSH2 0x7EA PUSH1 0x1F DUP10 AND DUP3 PUSH2 0x6FD JUMP JUMPDEST DUP4 SSTORE POP JUMPDEST PUSH1 0x1 PUSH1 0x2 DUP9 MUL ADD DUP9 SSTORE POP POP POP JUMPDEST POP POP POP POP POP POP JUMP JUMPDEST PUSH0 DUP2 SWAP1 POP SWAP3 SWAP2 POP POP JUMP JUMPDEST PUSH0 PUSH2 0x817 DUP3 PUSH2 0x293 JUMP JUMPDEST PUSH2 0x821 DUP2 DUP6 PUSH2 0x803 JUMP JUMPDEST SWAP4 POP PUSH2 0x831 DUP2 DUP6 PUSH1 0x20 DUP7 ADD PUSH2 0x2AD JUMP JUMPDEST DUP1 DUP5 ADD SWAP2 POP POP SWAP3 SWAP2 POP POP JUMP JUMPDEST PUSH0 PUSH2 0x848 DUP3 DUP5 PUSH2 0x80D JUMP JUMPDEST SWAP2 POP DUP2 SWAP1 POP SWAP3 SWAP2 POP POP JUMP INVALID LOG2 PUSH5 0x6970667358 0x22 SLT KECCAK256 PUSH13 0x8BAAA0895B892AB180EA26CD9F SWAP5 MOD 0xB5 DUPN 0xE8 0xA7 CREATE LOG4 SWAP3 0xEF 0x28 0xC4 EXTCODECOPY 0xBF CREATE2 0xAF SUB SWAP12 PUSH5 0x736F6C6343 STOP ADDMOD 0x21 STOP CALLER "
				},
				"gasEstimates": {
					"creation": {
						"codeDepositCost": "437000",
						"executionCost": "472",
						"totalCost": "437472"
					},
					"external": {
						"addPerson(string,uint256)": "infinite",
						"listOfPeople(uint256)": "infinite",
						"nameToFavoriteNumber(string)": "infinite"
					}
				},
				"methodIdentifiers": {
					"addPerson(string,uint256)": "6f760f41",
					"listOfPeople(uint256)": "2ebce631",
					"nameToFavoriteNumber(string)": "8bab8dd5"
				}
			},
			"storageLayout": {
				"storage": [
					{
						"astId": 10,
						"contract": "SimpleStorage.sol:SimpleStorage",
						"label": "listOfPeople",
						"offset": 0,
						"slot": "0",
						"type": "t_array(t_struct(Person)6_storage)dyn_storage"
					},
					{
						"astId": 14,
						"contract": "SimpleStorage.sol:SimpleStorage",
						"label": "nameToFavoriteNumber",
						"offset": 0,
						"slot": "1",
						"type": "t_mapping(t_string_memory_ptr,t_uint256)"
					}
				],
				"types": {
					"t_array(t_struct(Person)6_storage)dyn_storage": {
						"base": "t_struct(Person)6_storage",
						"encoding": "dynamic_array",
						"label": "struct SimpleStorage.Person[]",
						"numberOfBytes": "32"
					},
					"t_mapping(t_string_memory_ptr,t_uint256)": {
						"encoding": "mapping",
						"key": "t_string_memory_ptr",
						"label": "mapping(string => uint256)",
						"numberOfBytes": "32",
						"value": "t_uint256"
					},
					"t_string_memory_ptr": {
						"encoding": "bytes",
						"label": "string",
						"numberOfBytes": "32"
					},
					"t_string_storage": {
						"encoding": "bytes",
						"label": "string",
						"numberOfBytes": "32"
					},
					"t_struct(Person)6_storage": {
						"encoding": "inplace",
						"label": "struct SimpleStorage.Person",
						"members": [
							{
								"astId": 3,
								"contract": "SimpleStorage.sol:SimpleStorage",
								"label": "Name",
								"offset": 0,
								"slot": "0",
								"type": "t_string_storage"
							},
							{
								"astId": 5,
								"contract": "SimpleStorage.sol:SimpleStorage",
								"label": "favoriteNumber",
								"offset": 0,
								"slot": "1",
								"type": "t_uint256"
							}
						],
						"numberOfBytes": "64"
					},
					"t_uint256": {
						"encoding": "inplace",
						"label": "uint256",
						"numberOfBytes": "32"
					}
				}
			},
			"userdoc": {
				"kind": "user",
				"methods": {},
				"version": 1
			}
		}
	}
}