{
	"AddFiveStorage.sol": {
		"AddFiveStorage": {
			"abi": [
				{
					"inputs": [
						{
							"internalType": "string",
							"name": "_name",
							"type": "string"
						},
						{
							"internalType": "uint256",
							"name": "_favoriteNumber",
							"type": "uint256"
						}
					],
					"name": "addPerson",
					"outputs": [],
					"stateMutability": "nonpayable",
					"type": "function"
				},
				{
					"inputs": [
						{
							"internalType": "uint256",
							"name": "_index",
							"type": "uint256"
						}
					],
					"name": "getPerson",
					"outputs": [
						{
							"components": [
								{
									"internalType": "string",
									"name": "name",
									"type": "string"
								},
								{
									"internalType": "uint256",
									"name": "favoriteNumber",
									"type": "uint256"
								}
							],
							"internalType": "struct Storage.Person",
							"name": "",
							"type": "tuple"
						}
					],
					"stateMutability": "view",
					"type": "function"
				},
				{
					"inputs": [
						{
							"internalType": "uint256",
							"name": "",
							"type": "uint256"
						}
					],
					"name": "listOfPeople",
					"outputs": [
						{
							"internalType": "string",
							"name": "name",
							"type": "string"
						},
						{
							"internalType": "uint256",
							"name": "favoriteNumber",
							"type": "uint256"
						}
					],
					"stateMutability": "view",
					"type": "function"
				},
				{
					"inputs": [
						{
							"internalType": "string",
							"name": "",
							"type": "string"
						}
					],
					"name": "nameToFavoriteNumber",
					"outputs": [
						{
							"internalType": "uint256",
							"name": "",
							"type": "uint256"
						}
					],
					"stateMutability": "view",
					"type": "function"
				}
			],
			"devdoc": {
				"kind": "dev",
				"methods": {},
				"version": 1
			},
			"evm": {
				"assembly": "    /* \"AddFiveStorage.sol\":102:352  contract AddFiveStorage is Storage {... */\n  mstore(0x40, 0x80)\n  callvalue\n  dup1\n  iszero\n  tag_1\n  jumpi\n  revert(0x00, 0x00)\ntag_1:\n  pop\n  dataSize(sub_0)\n  dup1\n  dataOffset(sub_0)\n  0x00\n  codecopy\n  0x00\n  return\nstop\n\nsub_0: assembly {\n        /* \"AddFiveStorage.sol\":102:352  contract AddFiveStorage is Storage {... */\n      mstore(0x40, 0x80)\n      callvalue\n      dup1\n      iszero\n      tag_1\n      jumpi\n      revert(0x00, 0x00)\n    tag_1:\n      pop\n      jumpi(tag_2, lt(calldatasize, 0x04))\n      shr(0xe0, calldataload(0x00))\n      dup1\n      0x246982c4\n      eq\n      tag_3\n      jumpi\n      dup1\n      0x2ebce631\n      eq\n      tag_4\n      jumpi\n      dup1\n      0x6f760f41\n      eq\n      tag_5\n      jumpi\n      dup1\n      0x8bab8dd5\n      eq\n      tag_6\n      jumpi\n    tag_2:\n      revert(0x00, 0x00)\n        /* \"Storage.sol\":518:633  function getPerson(uint _index) public view returns(Person memory) {... */\n    tag_3:\n      tag_7\n      0x04\n      dup1\n      calldatasize\n      sub\n      dup2\n      add\n      swap1\n      tag_8\n      swap2\n      swap1\n      tag_9\n      jump\t// in\n    tag_8:\n      tag_10\n      jump\t// in\n    tag_7:\n      mload(0x40)\n      tag_11\n      swap2\n      swap1\n      tag_12\n      jump\t// in\n    tag_11:\n      mload(0x40)\n      dup1\n      swap2\n      sub\n      swap1\n      return\n        /* \"Storage.sol\":160:188  Person[] public listOfPeople */\n    tag_4:\n      tag_13\n      0x04\n      dup1\n      calldatasize\n      sub\n      dup2\n      add\n      swap1\n      tag_14\n      swap2\n      swap1\n      tag_9\n      jump\t// in\n    tag_14:\n      tag_15\n      jump\t// in\n    tag_13:\n      mload(0x40)\n      tag_16\n      swap3\n      swap2\n      swap1\n      tag_17\n      jump\t// in\n    tag_16:\n      mload(0x40)\n      dup1\n      swap2\n      sub\n      swap1\n      return\n        /* \"AddFiveStorage.sol\":147:350  function addPerson(string memory _name, uint _favoriteNumber) public override {... */\n    tag_5:\n      tag_18\n      0x04\n      dup1\n      calldatasize\n      sub\n      dup2\n      add\n      swap1\n      tag_19\n      swap2\n      swap1\n      tag_20\n      jump\t// in\n    tag_19:\n      tag_21\n      jump\t// in\n    tag_18:\n      stop\n        /* \"Storage.sol\":195:246  mapping(string => uint) public nameToFavoriteNumber */\n    tag_6:\n      tag_22\n      0x04\n      dup1\n      calldatasize\n      sub\n      dup2\n      add\n      swap1\n      tag_23\n      swap2\n      swap1\n      tag_24\n      jump\t// in\n    tag_23:\n      tag_25\n      jump\t// in\n    tag_22:\n      mload(0x40)\n      tag_26\n      swap2\n      swap1\n      tag_27\n      jump\t// in\n    tag_26:\n      mload(0x40)\n      dup1\n      swap2\n      sub\n      swap1\n      return\n        /* \"Storage.sol\":518:633  function getPerson(uint _index) public view returns(Person memory) {... */\n    tag_10:\n        /* \"Storage.sol\":570:583  Person memory */\n      tag_28\n      tag_29\n      jump\t// in\n    tag_28:\n        /* \"Storage.sol\":606:618  listOfPeople */\n      0x00\n        /* \"Storage.sol\":619:625  _index */\n      dup3\n        /* \"Storage.sol\":606:626  listOfPeople[_index] */\n      dup2\n      sload\n      dup2\n      lt\n      tag_31\n      jumpi\n      tag_32\n      tag_33\n      jump\t// in\n    tag_32:\n    tag_31:\n      swap1\n      0x00\n      mstore\n      keccak256(0x00, 0x20)\n      swap1\n      0x02\n      mul\n      add\n        /* \"Storage.sol\":599:626  return listOfPeople[_index] */\n      mload(0x40)\n      dup1\n      0x40\n      add\n      0x40\n      mstore\n      swap1\n      dup2\n      0x00\n      dup3\n      add\n      dup1\n      sload\n      tag_35\n      swap1\n      tag_36\n      jump\t// in\n    tag_35:\n      dup1\n      0x1f\n      add\n      0x20\n      dup1\n      swap2\n      div\n      mul\n      0x20\n      add\n      mload(0x40)\n      swap1\n      dup2\n      add\n      0x40\n      mstore\n      dup1\n      swap3\n      swap2\n      swap1\n      dup2\n      dup2\n      mstore\n      0x20\n      add\n      dup3\n      dup1\n      sload\n      tag_37\n      swap1\n      tag_36\n      jump\t// in\n    tag_37:\n      dup1\n      iszero\n      tag_38\n      jumpi\n      dup1\n      0x1f\n      lt\n      tag_39\n      jumpi\n      0x0100\n      dup1\n      dup4\n      sload\n      div\n      mul\n      dup4\n      mstore\n      swap2\n      0x20\n      add\n      swap2\n      jump(tag_38)\n    tag_39:\n      dup3\n      add\n      swap2\n      swap1\n      0x00\n      mstore\n      keccak256(0x00, 0x20)\n      swap1\n    tag_40:\n      dup2\n      sload\n      dup2\n      mstore\n      swap1\n      0x01\n      add\n      swap1\n      0x20\n      add\n      dup1\n      dup4\n      gt\n      tag_40\n      jumpi\n      dup3\n      swap1\n      sub\n      0x1f\n      and\n      dup3\n      add\n      swap2\n    tag_38:\n      pop\n      pop\n      pop\n      pop\n      pop\n      dup2\n      mstore\n      0x20\n      add\n      0x01\n      dup3\n      add\n      sload\n      dup2\n      mstore\n      pop\n      pop\n      swap1\n      pop\n        /* \"Storage.sol\":518:633  function getPerson(uint _index) public view returns(Person memory) {... */\n      swap2\n      swap1\n      pop\n      jump\t// out\n        /* \"Storage.sol\":160:188  Person[] public listOfPeople */\n    tag_15:\n      0x00\n      dup2\n      dup2\n      sload\n      dup2\n      lt\n      tag_41\n      jumpi\n      0x00\n      dup1\n      revert\n    tag_41:\n      swap1\n      0x00\n      mstore\n      keccak256(0x00, 0x20)\n      swap1\n      0x02\n      mul\n      add\n      0x00\n      swap2\n      pop\n      swap1\n      pop\n      dup1\n      0x00\n      add\n      dup1\n      sload\n      tag_43\n      swap1\n      tag_36\n      jump\t// in\n    tag_43:\n      dup1\n      0x1f\n      add\n      0x20\n      dup1\n      swap2\n      div\n      mul\n      0x20\n      add\n      mload(0x40)\n      swap1\n      dup2\n      add\n      0x40\n      mstore\n      dup1\n      swap3\n      swap2\n      swap1\n      dup2\n      dup2\n      mstore\n      0x20\n      add\n      dup3\n      dup1\n      sload\n      tag_44\n      swap1\n      tag_36\n      jump\t// in\n    tag_44:\n      dup1\n      iszero\n      tag_45\n      jumpi\n      dup1\n      0x1f\n      lt\n      tag_46\n      jumpi\n      0x0100\n      dup1\n      dup4\n      sload\n      div\n      mul\n      dup4\n      mstore\n      swap2\n      0x20\n      add\n      swap2\n      jump(tag_45)\n    tag_46:\n      dup3\n      add\n      swap2\n      swap1\n      0x00\n      mstore\n      keccak256(0x00, 0x20)\n      swap1\n    tag_47:\n      dup2\n      sload\n      dup2\n      mstore\n      swap1\n      0x01\n      add\n      swap1\n      0x20\n      add\n      dup1\n      dup4\n      gt\n      tag_47\n      jumpi\n      dup3\n      swap1\n      sub\n      0x1f\n      and\n      dup3\n      add\n      swap2\n    tag_45:\n      pop\n      pop\n      pop\n      pop\n      pop\n      swap1\n      dup1\n      0x01\n      add\n      sload\n      swap1\n      pop\n      dup3\n      jump\t// out\n        /* \"AddFiveStorage.sol\":147:350  function addPerson(string memory _name, uint _favoriteNumber) public override {... */\n    tag_21:\n        /* \"AddFiveStorage.sol\":235:247  listOfPeople */\n      0x00\n        /* \"AddFiveStorage.sol\":253:283  Person(_name, _favoriteNumber) */\n      mload(0x40)\n      dup1\n      0x40\n      add\n      0x40\n      mstore\n      dup1\n        /* \"AddFiveStorage.sol\":260:265  _name */\n      dup5\n        /* \"AddFiveStorage.sol\":253:283  Person(_name, _favoriteNumber) */\n      dup2\n      mstore\n      0x20\n      add\n        /* \"AddFiveStorage.sol\":267:282  _favoriteNumber */\n      dup4\n        /* \"AddFiveStorage.sol\":253:283  Person(_name, _favoriteNumber) */\n      dup2\n      mstore\n      pop\n        /* \"AddFiveStorage.sol\":235:284  listOfPeople.push(Person(_name, _favoriteNumber)) */\n      swap1\n      dup1\n      0x01\n      dup2\n      sload\n      add\n      dup1\n      dup3\n      sstore\n      dup1\n      swap2\n      pop\n      pop\n      0x01\n      swap1\n      sub\n      swap1\n      0x00\n      mstore\n      keccak256(0x00, 0x20)\n      swap1\n      0x02\n      mul\n      add\n      0x00\n      swap1\n      swap2\n      swap1\n      swap2\n      swap1\n      swap2\n      pop\n      0x00\n      dup3\n      add\n      mload\n      dup2\n      0x00\n      add\n      swap1\n      dup2\n      tag_50\n      swap2\n      swap1\n      tag_51\n      jump\t// in\n    tag_50:\n      pop\n      0x20\n      dup3\n      add\n      mload\n      dup2\n      0x01\n      add\n      sstore\n      pop\n      pop\n        /* \"AddFiveStorage.sol\":342:343  5 */\n      0x05\n        /* \"AddFiveStorage.sol\":324:339  _favoriteNumber */\n      dup2\n        /* \"AddFiveStorage.sol\":324:343  _favoriteNumber + 5 */\n      tag_52\n      swap2\n      swap1\n      tag_53\n      jump\t// in\n    tag_52:\n        /* \"AddFiveStorage.sol\":294:314  nameToFavoriteNumber */\n      0x01\n        /* \"AddFiveStorage.sol\":315:320  _name */\n      dup4\n        /* \"AddFiveStorage.sol\":294:321  nameToFavoriteNumber[_name] */\n      mload(0x40)\n      tag_54\n      swap2\n      swap1\n      tag_55\n      jump\t// in\n    tag_54:\n      swap1\n      dup2\n      mstore\n      0x20\n      add\n      mload(0x40)\n      dup1\n      swap2\n      sub\n      swap1\n      keccak256\n        /* \"AddFiveStorage.sol\":294:343  nameToFavoriteNumber[_name] = _favoriteNumber + 5 */\n      dup2\n      swap1\n      sstore\n      pop\n        /* \"AddFiveStorage.sol\":147:350  function addPerson(string memory _name, uint _favoriteNumber) public override {... */\n      pop\n      pop\n      jump\t// out\n        /* \"Storage.sol\":195:246  mapping(string => uint) public nameToFavoriteNumber */\n    tag_25:\n      0x01\n      dup2\n      dup1\n      mload\n      0x20\n      dup2\n      add\n      dup3\n      add\n      dup1\n      mload\n      dup5\n      dup3\n      mstore\n      0x20\n      dup4\n      add\n      0x20\n      dup6\n      add\n      keccak256\n      dup2\n      dup4\n      mstore\n      dup1\n      swap6\n      pop\n      pop\n      pop\n      pop\n      pop\n      pop\n      0x00\n      swap2\n      pop\n      swap1\n      pop\n      sload\n      dup2\n      jump\t// out\n    tag_29:\n      mload(0x40)\n      dup1\n      0x40\n      add\n      0x40\n      mstore\n      dup1\n      0x60\n      dup2\n      mstore\n      0x20\n      add\n      0x00\n      dup2\n      mstore\n      pop\n      swap1\n      jump\t// out\n        /* \"#utility.yul\":7:82   */\n    tag_56:\n        /* \"#utility.yul\":40:46   */\n      0x00\n        /* \"#utility.yul\":73:75   */\n      0x40\n        /* \"#utility.yul\":67:76   */\n      mload\n        /* \"#utility.yul\":57:76   */\n      swap1\n      pop\n        /* \"#utility.yul\":7:82   */\n      swap1\n      jump\t// out\n        /* \"#utility.yul\":88:205   */\n    tag_57:\n        /* \"#utility.yul\":197:198   */\n      0x00\n        /* \"#utility.yul\":194:195   */\n      0x00\n        /* \"#utility.yul\":187:199   */\n      revert\n        /* \"#utility.yul\":211:328   */\n    tag_58:\n        /* \"#utility.yul\":320:321   */\n      0x00\n        /* \"#utility.yul\":317:318   */\n      0x00\n        /* \"#utility.yul\":310:322   */\n      revert\n        /* \"#utility.yul\":334:411   */\n    tag_59:\n        /* \"#utility.yul\":371:378   */\n      0x00\n        /* \"#utility.yul\":400:405   */\n      dup2\n        /* \"#utility.yul\":389:405   */\n      swap1\n      pop\n        /* \"#utility.yul\":334:411   */\n      swap2\n      swap1\n      pop\n      jump\t// out\n        /* \"#utility.yul\":417:539   */\n    tag_60:\n        /* \"#utility.yul\":490:514   */\n      tag_106\n        /* \"#utility.yul\":508:513   */\n      dup2\n        /* \"#utility.yul\":490:514   */\n      tag_59\n      jump\t// in\n    tag_106:\n        /* \"#utility.yul\":483:488   */\n      dup2\n        /* \"#utility.yul\":480:515   */\n      eq\n        /* \"#utility.yul\":470:533   */\n      tag_107\n      jumpi\n        /* \"#utility.yul\":529:530   */\n      0x00\n        /* \"#utility.yul\":526:527   */\n      0x00\n        /* \"#utility.yul\":519:531   */\n      revert\n        /* \"#utility.yul\":470:533   */\n    tag_107:\n        /* \"#utility.yul\":417:539   */\n      pop\n      jump\t// out\n        /* \"#utility.yul\":545:684   */\n    tag_61:\n        /* \"#utility.yul\":591:596   */\n      0x00\n        /* \"#utility.yul\":629:635   */\n      dup2\n        /* \"#utility.yul\":616:636   */\n      calldataload\n        /* \"#utility.yul\":607:636   */\n      swap1\n      pop\n        /* \"#utility.yul\":645:678   */\n      tag_109\n        /* \"#utility.yul\":672:677   */\n      dup2\n        /* \"#utility.yul\":645:678   */\n      tag_60\n      jump\t// in\n    tag_109:\n        /* \"#utility.yul\":545:684   */\n      swap3\n      swap2\n      pop\n      pop\n      jump\t// out\n        /* \"#utility.yul\":690:1019   */\n    tag_9:\n        /* \"#utility.yul\":749:755   */\n      0x00\n        /* \"#utility.yul\":798:800   */\n      0x20\n        /* \"#utility.yul\":786:795   */\n      dup3\n        /* \"#utility.yul\":777:784   */\n      dup5\n        /* \"#utility.yul\":773:796   */\n      sub\n        /* \"#utility.yul\":769:801   */\n      slt\n        /* \"#utility.yul\":766:885   */\n      iszero\n      tag_111\n      jumpi\n        /* \"#utility.yul\":804:883   */\n      tag_112\n      tag_57\n      jump\t// in\n    tag_112:\n        /* \"#utility.yul\":766:885   */\n    tag_111:\n        /* \"#utility.yul\":924:925   */\n      0x00\n        /* \"#utility.yul\":949:1002   */\n      tag_113\n        /* \"#utility.yul\":994:1001   */\n      dup5\n        /* \"#utility.yul\":985:991   */\n      dup3\n        /* \"#utility.yul\":974:983   */\n      dup6\n        /* \"#utility.yul\":970:992   */\n      add\n        /* \"#utility.yul\":949:1002   */\n      tag_61\n      jump\t// in\n    tag_113:\n        /* \"#utility.yul\":939:1002   */\n      swap2\n      pop\n        /* \"#utility.yul\":895:1012   */\n      pop\n        /* \"#utility.yul\":690:1019   */\n      swap3\n      swap2\n      pop\n      pop\n      jump\t// out\n        /* \"#utility.yul\":1025:1124   */\n    tag_62:\n        /* \"#utility.yul\":1077:1083   */\n      0x00\n        /* \"#utility.yul\":1111:1116   */\n      dup2\n        /* \"#utility.yul\":1105:1117   */\n      mload\n        /* \"#utility.yul\":1095:1117   */\n      swap1\n      pop\n        /* \"#utility.yul\":1025:1124   */\n      swap2\n      swap1\n      pop\n      jump\t// out\n        /* \"#utility.yul\":1130:1289   */\n    tag_63:\n        /* \"#utility.yul\":1204:1215   */\n      0x00\n        /* \"#utility.yul\":1238:1244   */\n      dup3\n        /* \"#utility.yul\":1233:1236   */\n      dup3\n        /* \"#utility.yul\":1226:1245   */\n      mstore\n        /* \"#utility.yul\":1278:1282   */\n      0x20\n        /* \"#utility.yul\":1273:1276   */\n      dup3\n        /* \"#utility.yul\":1269:1283   */\n      add\n        /* \"#utility.yul\":1254:1283   */\n      swap1\n      pop\n        /* \"#utility.yul\":1130:1289   */\n      swap3\n      swap2\n      pop\n      pop\n      jump\t// out\n        /* \"#utility.yul\":1295:1434   */\n    tag_64:\n        /* \"#utility.yul\":1384:1390   */\n      dup3\n        /* \"#utility.yul\":1379:1382   */\n      dup2\n        /* \"#utility.yul\":1374:1377   */\n      dup4\n        /* \"#utility.yul\":1368:1391   */\n      mcopy\n        /* \"#utility.yul\":1425:1426   */\n      0x00\n        /* \"#utility.yul\":1416:1422   */\n      dup4\n        /* \"#utility.yul\":1411:1414   */\n      dup4\n        /* \"#utility.yul\":1407:1423   */\n      add\n        /* \"#utility.yul\":1400:1427   */\n      mstore\n        /* \"#utility.yul\":1295:1434   */\n      pop\n      pop\n      pop\n      jump\t// out\n        /* \"#utility.yul\":1440:1542   */\n    tag_65:\n        /* \"#utility.yul\":1481:1487   */\n      0x00\n        /* \"#utility.yul\":1532:1534   */\n      0x1f\n        /* \"#utility.yul\":1528:1535   */\n      not\n        /* \"#utility.yul\":1523:1525   */\n      0x1f\n        /* \"#utility.yul\":1516:1521   */\n      dup4\n        /* \"#utility.yul\":1512:1526   */\n      add\n        /* \"#utility.yul\":1508:1536   */\n      and\n        /* \"#utility.yul\":1498:1536   */\n      swap1\n      pop\n        /* \"#utility.yul\":1440:1542   */\n      swap2\n      swap1\n      pop\n      jump\t// out\n        /* \"#utility.yul\":1548:1905   */\n    tag_66:\n        /* \"#utility.yul\":1626:1629   */\n      0x00\n        /* \"#utility.yul\":1654:1693   */\n      tag_119\n        /* \"#utility.yul\":1687:1692   */\n      dup3\n        /* \"#utility.yul\":1654:1693   */\n      tag_62\n      jump\t// in\n    tag_119:\n        /* \"#utility.yul\":1709:1770   */\n      tag_120\n        /* \"#utility.yul\":1763:1769   */\n      dup2\n        /* \"#utility.yul\":1758:1761   */\n      dup6\n        /* \"#utility.yul\":1709:1770   */\n      tag_63\n      jump\t// in\n    tag_120:\n        /* \"#utility.yul\":1702:1770   */\n      swap4\n      pop\n        /* \"#utility.yul\":1779:1844   */\n      tag_121\n        /* \"#utility.yul\":1837:1843   */\n      dup2\n        /* \"#utility.yul\":1832:1835   */\n      dup6\n        /* \"#utility.yul\":1825:1829   */\n      0x20\n        /* \"#utility.yul\":1818:1823   */\n      dup7\n        /* \"#utility.yul\":1814:1830   */\n      add\n        /* \"#utility.yul\":1779:1844   */\n      tag_64\n      jump\t// in\n    tag_121:\n        /* \"#utility.yul\":1869:1898   */\n      tag_122\n        /* \"#utility.yul\":1891:1897   */\n      dup2\n        /* \"#utility.yul\":1869:1898   */\n      tag_65\n      jump\t// in\n    tag_122:\n        /* \"#utility.yul\":1864:1867   */\n      dup5\n        /* \"#utility.yul\":1860:1899   */\n      add\n        /* \"#utility.yul\":1853:1899   */\n      swap2\n      pop\n        /* \"#utility.yul\":1630:1905   */\n      pop\n        /* \"#utility.yul\":1548:1905   */\n      swap3\n      swap2\n      pop\n      pop\n      jump\t// out\n        /* \"#utility.yul\":1911:2019   */\n    tag_67:\n        /* \"#utility.yul\":1988:2012   */\n      tag_124\n        /* \"#utility.yul\":2006:2011   */\n      dup2\n        /* \"#utility.yul\":1988:2012   */\n      tag_59\n      jump\t// in\n    tag_124:\n        /* \"#utility.yul\":1983:1986   */\n      dup3\n        /* \"#utility.yul\":1976:2013   */\n      mstore\n        /* \"#utility.yul\":1911:2019   */\n      pop\n      pop\n      jump\t// out\n        /* \"#utility.yul\":2079:2689   */\n    tag_68:\n        /* \"#utility.yul\":2192:2195   */\n      0x00\n        /* \"#utility.yul\":2228:2232   */\n      0x40\n        /* \"#utility.yul\":2223:2226   */\n      dup4\n        /* \"#utility.yul\":2219:2233   */\n      add\n        /* \"#utility.yul\":2315:2319   */\n      0x00\n        /* \"#utility.yul\":2308:2313   */\n      dup4\n        /* \"#utility.yul\":2304:2320   */\n      add\n        /* \"#utility.yul\":2298:2321   */\n      mload\n        /* \"#utility.yul\":2368:2371   */\n      dup5\n        /* \"#utility.yul\":2362:2366   */\n      dup3\n        /* \"#utility.yul\":2358:2372   */\n      sub\n        /* \"#utility.yul\":2351:2355   */\n      0x00\n        /* \"#utility.yul\":2346:2349   */\n      dup7\n        /* \"#utility.yul\":2342:2356   */\n      add\n        /* \"#utility.yul\":2335:2373   */\n      mstore\n        /* \"#utility.yul\":2394:2467   */\n      tag_126\n        /* \"#utility.yul\":2462:2466   */\n      dup3\n        /* \"#utility.yul\":2448:2460   */\n      dup3\n        /* \"#utility.yul\":2394:2467   */\n      tag_66\n      jump\t// in\n    tag_126:\n        /* \"#utility.yul\":2386:2467   */\n      swap2\n      pop\n        /* \"#utility.yul\":2243:2478   */\n      pop\n        /* \"#utility.yul\":2570:2574   */\n      0x20\n        /* \"#utility.yul\":2563:2568   */\n      dup4\n        /* \"#utility.yul\":2559:2575   */\n      add\n        /* \"#utility.yul\":2553:2576   */\n      mload\n        /* \"#utility.yul\":2589:2652   */\n      tag_127\n        /* \"#utility.yul\":2646:2650   */\n      0x20\n        /* \"#utility.yul\":2641:2644   */\n      dup7\n        /* \"#utility.yul\":2637:2651   */\n      add\n        /* \"#utility.yul\":2623:2635   */\n      dup3\n        /* \"#utility.yul\":2589:2652   */\n      tag_67\n      jump\t// in\n    tag_127:\n        /* \"#utility.yul\":2488:2662   */\n      pop\n        /* \"#utility.yul\":2679:2683   */\n      dup1\n        /* \"#utility.yul\":2672:2683   */\n      swap2\n      pop\n        /* \"#utility.yul\":2197:2689   */\n      pop\n        /* \"#utility.yul\":2079:2689   */\n      swap3\n      swap2\n      pop\n      pop\n      jump\t// out\n        /* \"#utility.yul\":2695:3056   */\n    tag_12:\n        /* \"#utility.yul\":2832:2836   */\n      0x00\n        /* \"#utility.yul\":2870:2872   */\n      0x20\n        /* \"#utility.yul\":2859:2868   */\n      dup3\n        /* \"#utility.yul\":2855:2873   */\n      add\n        /* \"#utility.yul\":2847:2873   */\n      swap1\n      pop\n        /* \"#utility.yul\":2919:2928   */\n      dup2\n        /* \"#utility.yul\":2913:2917   */\n      dup2\n        /* \"#utility.yul\":2909:2929   */\n      sub\n        /* \"#utility.yul\":2905:2906   */\n      0x00\n        /* \"#utility.yul\":2894:2903   */\n      dup4\n        /* \"#utility.yul\":2890:2907   */\n      add\n        /* \"#utility.yul\":2883:2930   */\n      mstore\n        /* \"#utility.yul\":2947:3049   */\n      tag_129\n        /* \"#utility.yul\":3044:3048   */\n      dup2\n        /* \"#utility.yul\":3035:3041   */\n      dup5\n        /* \"#utility.yul\":2947:3049   */\n      tag_68\n      jump\t// in\n    tag_129:\n        /* \"#utility.yul\":2939:3049   */\n      swap1\n      pop\n        /* \"#utility.yul\":2695:3056   */\n      swap3\n      swap2\n      pop\n      pop\n      jump\t// out\n        /* \"#utility.yul\":3062:3231   */\n    tag_69:\n        /* \"#utility.yul\":3146:3157   */\n      0x00\n        /* \"#utility.yul\":3180:3186   */\n      dup3\n        /* \"#utility.yul\":3175:3178   */\n      dup3\n        /* \"#utility.yul\":3168:3187   */\n      mstore\n        /* \"#utility.yul\":3220:3224   */\n      0x20\n        /* \"#utility.yul\":3215:3218   */\n      dup3\n        /* \"#utility.yul\":3211:3225   */\n      add\n        /* \"#utility.yul\":3196:3225   */\n      swap1\n      pop\n        /* \"#utility.yul\":3062:3231   */\n      swap3\n      swap2\n      pop\n      pop\n      jump\t// out\n        /* \"#utility.yul\":3237:3614   */\n    tag_70:\n        /* \"#utility.yul\":3325:3328   */\n      0x00\n        /* \"#utility.yul\":3353:3392   */\n      tag_132\n        /* \"#utility.yul\":3386:3391   */\n      dup3\n        /* \"#utility.yul\":3353:3392   */\n      tag_62\n      jump\t// in\n    tag_132:\n        /* \"#utility.yul\":3408:3479   */\n      tag_133\n        /* \"#utility.yul\":3472:3478   */\n      dup2\n        /* \"#utility.yul\":3467:3470   */\n      dup6\n        /* \"#utility.yul\":3408:3479   */\n      tag_69\n      jump\t// in\n    tag_133:\n        /* \"#utility.yul\":3401:3479   */\n      swap4\n      pop\n        /* \"#utility.yul\":3488:3553   */\n      tag_134\n        /* \"#utility.yul\":3546:3552   */\n      dup2\n        /* \"#utility.yul\":3541:3544   */\n      dup6\n        /* \"#utility.yul\":3534:3538   */\n      0x20\n        /* \"#utility.yul\":3527:3532   */\n      dup7\n        /* \"#utility.yul\":3523:3539   */\n      add\n        /* \"#utility.yul\":3488:3553   */\n      tag_64\n      jump\t// in\n    tag_134:\n        /* \"#utility.yul\":3578:3607   */\n      tag_135\n        /* \"#utility.yul\":3600:3606   */\n      dup2\n        /* \"#utility.yul\":3578:3607   */\n      tag_65\n      jump\t// in\n    tag_135:\n        /* \"#utility.yul\":3573:3576   */\n      dup5\n        /* \"#utility.yul\":3569:3608   */\n      add\n        /* \"#utility.yul\":3562:3608   */\n      swap2\n      pop\n        /* \"#utility.yul\":3329:3614   */\n      pop\n        /* \"#utility.yul\":3237:3614   */\n      swap3\n      swap2\n      pop\n      pop\n      jump\t// out\n        /* \"#utility.yul\":3620:3738   */\n    tag_71:\n        /* \"#utility.yul\":3707:3731   */\n      tag_137\n        /* \"#utility.yul\":3725:3730   */\n      dup2\n        /* \"#utility.yul\":3707:3731   */\n      tag_59\n      jump\t// in\n    tag_137:\n        /* \"#utility.yul\":3702:3705   */\n      dup3\n        /* \"#utility.yul\":3695:3732   */\n      mstore\n        /* \"#utility.yul\":3620:3738   */\n      pop\n      pop\n      jump\t// out\n        /* \"#utility.yul\":3744:4167   */\n    tag_17:\n        /* \"#utility.yul\":3885:3889   */\n      0x00\n        /* \"#utility.yul\":3923:3925   */\n      0x40\n        /* \"#utility.yul\":3912:3921   */\n      dup3\n        /* \"#utility.yul\":3908:3926   */\n      add\n        /* \"#utility.yul\":3900:3926   */\n      swap1\n      pop\n        /* \"#utility.yul\":3972:3981   */\n      dup2\n        /* \"#utility.yul\":3966:3970   */\n      dup2\n        /* \"#utility.yul\":3962:3982   */\n      sub\n        /* \"#utility.yul\":3958:3959   */\n      0x00\n        /* \"#utility.yul\":3947:3956   */\n      dup4\n        /* \"#utility.yul\":3943:3960   */\n      add\n        /* \"#utility.yul\":3936:3983   */\n      mstore\n        /* \"#utility.yul\":4000:4078   */\n      tag_139\n        /* \"#utility.yul\":4073:4077   */\n      dup2\n        /* \"#utility.yul\":4064:4070   */\n      dup6\n        /* \"#utility.yul\":4000:4078   */\n      tag_70\n      jump\t// in\n    tag_139:\n        /* \"#utility.yul\":3992:4078   */\n      swap1\n      pop\n        /* \"#utility.yul\":4088:4160   */\n      tag_140\n        /* \"#utility.yul\":4156:4158   */\n      0x20\n        /* \"#utility.yul\":4145:4154   */\n      dup4\n        /* \"#utility.yul\":4141:4159   */\n      add\n        /* \"#utility.yul\":4132:4138   */\n      dup5\n        /* \"#utility.yul\":4088:4160   */\n      tag_71\n      jump\t// in\n    tag_140:\n        /* \"#utility.yul\":3744:4167   */\n      swap4\n      swap3\n      pop\n      pop\n      pop\n      jump\t// out\n        /* \"#utility.yul\":4173:4290   */\n    tag_72:\n        /* \"#utility.yul\":4282:4283   */\n      0x00\n        /* \"#utility.yul\":4279:4280   */\n      0x00\n        /* \"#utility.yul\":4272:4284   */\n      revert\n        /* \"#utility.yul\":4296:4413   */\n    tag_73:\n        /* \"#utility.yul\":4405:4406   */\n      0x00\n        /* \"#utility.yul\":4402:4403   */\n      0x00\n        /* \"#utility.yul\":4395:4407   */\n      revert\n        /* \"#utility.yul\":4419:4599   */\n    tag_74:\n        /* \"#utility.yul\":4467:4544   */\n      0x4e487b7100000000000000000000000000000000000000000000000000000000\n        /* \"#utility.yul\":4464:4465   */\n      0x00\n        /* \"#utility.yul\":4457:4545   */\n      mstore\n        /* \"#utility.yul\":4564:4568   */\n      0x41\n        /* \"#utility.yul\":4561:4562   */\n      0x04\n        /* \"#utility.yul\":4554:4569   */\n      mstore\n        /* \"#utility.yul\":4588:4592   */\n      0x24\n        /* \"#utility.yul\":4585:4586   */\n      0x00\n        /* \"#utility.yul\":4578:4593   */\n      revert\n        /* \"#utility.yul\":4605:4886   */\n    tag_75:\n        /* \"#utility.yul\":4688:4715   */\n      tag_145\n        /* \"#utility.yul\":4710:4714   */\n      dup3\n        /* \"#utility.yul\":4688:4715   */\n      tag_65\n      jump\t// in\n    tag_145:\n        /* \"#utility.yul\":4680:4686   */\n      dup2\n        /* \"#utility.yul\":4676:4716   */\n      add\n        /* \"#utility.yul\":4818:4824   */\n      dup2\n        /* \"#utility.yul\":4806:4816   */\n      dup2\n        /* \"#utility.yul\":4803:4825   */\n      lt\n        /* \"#utility.yul\":4782:4800   */\n      0xffffffffffffffff\n        /* \"#utility.yul\":4770:4780   */\n      dup3\n        /* \"#utility.yul\":4767:4801   */\n      gt\n        /* \"#utility.yul\":4764:4826   */\n      or\n        /* \"#utility.yul\":4761:4849   */\n      iszero\n      tag_146\n      jumpi\n        /* \"#utility.yul\":4829:4847   */\n      tag_147\n      tag_74\n      jump\t// in\n    tag_147:\n        /* \"#utility.yul\":4761:4849   */\n    tag_146:\n        /* \"#utility.yul\":4869:4879   */\n      dup1\n        /* \"#utility.yul\":4865:4867   */\n      0x40\n        /* \"#utility.yul\":4858:4880   */\n      mstore\n        /* \"#utility.yul\":4648:4886   */\n      pop\n        /* \"#utility.yul\":4605:4886   */\n      pop\n      pop\n      jump\t// out\n        /* \"#utility.yul\":4892:5021   */\n    tag_76:\n        /* \"#utility.yul\":4926:4932   */\n      0x00\n        /* \"#utility.yul\":4953:4973   */\n      tag_149\n      tag_56\n      jump\t// in\n    tag_149:\n        /* \"#utility.yul\":4943:4973   */\n      swap1\n      pop\n        /* \"#utility.yul\":4982:5015   */\n      tag_150\n        /* \"#utility.yul\":5010:5014   */\n      dup3\n        /* \"#utility.yul\":5002:5008   */\n      dup3\n        /* \"#utility.yul\":4982:5015   */\n      tag_75\n      jump\t// in\n    tag_150:\n        /* \"#utility.yul\":4892:5021   */\n      swap2\n      swap1\n      pop\n      jump\t// out\n        /* \"#utility.yul\":5027:5335   */\n    tag_77:\n        /* \"#utility.yul\":5089:5093   */\n      0x00\n        /* \"#utility.yul\":5179:5197   */\n      0xffffffffffffffff\n        /* \"#utility.yul\":5171:5177   */\n      dup3\n        /* \"#utility.yul\":5168:5198   */\n      gt\n        /* \"#utility.yul\":5165:5221   */\n      iszero\n      tag_152\n      jumpi\n        /* \"#utility.yul\":5201:5219   */\n      tag_153\n      tag_74\n      jump\t// in\n    tag_153:\n        /* \"#utility.yul\":5165:5221   */\n    tag_152:\n        /* \"#utility.yul\":5239:5268   */\n      tag_154\n        /* \"#utility.yul\":5261:5267   */\n      dup3\n        /* \"#utility.yul\":5239:5268   */\n      tag_65\n      jump\t// in\n    tag_154:\n        /* \"#utility.yul\":5231:5268   */\n      swap1\n      pop\n        /* \"#utility.yul\":5323:5327   */\n      0x20\n        /* \"#utility.yul\":5317:5321   */\n      dup2\n        /* \"#utility.yul\":5313:5328   */\n      add\n        /* \"#utility.yul\":5305:5328   */\n      swap1\n      pop\n        /* \"#utility.yul\":5027:5335   */\n      swap2\n      swap1\n      pop\n      jump\t// out\n        /* \"#utility.yul\":5341:5489   */\n    tag_78:\n        /* \"#utility.yul\":5439:5445   */\n      dup3\n        /* \"#utility.yul\":5434:5437   */\n      dup2\n        /* \"#utility.yul\":5429:5432   */\n      dup4\n        /* \"#utility.yul\":5416:5446   */\n      calldatacopy\n        /* \"#utility.yul\":5480:5481   */\n      0x00\n        /* \"#utility.yul\":5471:5477   */\n      dup4\n        /* \"#utility.yul\":5466:5469   */\n      dup4\n        /* \"#utility.yul\":5462:5478   */\n      add\n        /* \"#utility.yul\":5455:5482   */\n      mstore\n        /* \"#utility.yul\":5341:5489   */\n      pop\n      pop\n      pop\n      jump\t// out\n        /* \"#utility.yul\":5495:5920   */\n    tag_79:\n        /* \"#utility.yul\":5573:5578   */\n      0x00\n        /* \"#utility.yul\":5598:5664   */\n      tag_157\n        /* \"#utility.yul\":5614:5663   */\n      tag_158\n        /* \"#utility.yul\":5656:5662   */\n      dup5\n        /* \"#utility.yul\":5614:5663   */\n      tag_77\n      jump\t// in\n    tag_158:\n        /* \"#utility.yul\":5598:5664   */\n      tag_76\n      jump\t// in\n    tag_157:\n        /* \"#utility.yul\":5589:5664   */\n      swap1\n      pop\n        /* \"#utility.yul\":5687:5693   */\n      dup3\n        /* \"#utility.yul\":5680:5685   */\n      dup2\n        /* \"#utility.yul\":5673:5694   */\n      mstore\n        /* \"#utility.yul\":5725:5729   */\n      0x20\n        /* \"#utility.yul\":5718:5723   */\n      dup2\n        /* \"#utility.yul\":5714:5730   */\n      add\n        /* \"#utility.yul\":5763:5766   */\n      dup5\n        /* \"#utility.yul\":5754:5760   */\n      dup5\n        /* \"#utility.yul\":5749:5752   */\n      dup5\n        /* \"#utility.yul\":5745:5761   */\n      add\n        /* \"#utility.yul\":5742:5767   */\n      gt\n        /* \"#utility.yul\":5739:5851   */\n      iszero\n      tag_159\n      jumpi\n        /* \"#utility.yul\":5770:5849   */\n      tag_160\n      tag_73\n      jump\t// in\n    tag_160:\n        /* \"#utility.yul\":5739:5851   */\n    tag_159:\n        /* \"#utility.yul\":5860:5914   */\n      tag_161\n        /* \"#utility.yul\":5907:5913   */\n      dup5\n        /* \"#utility.yul\":5902:5905   */\n      dup3\n        /* \"#utility.yul\":5897:5900   */\n      dup6\n        /* \"#utility.yul\":5860:5914   */\n      tag_78\n      jump\t// in\n    tag_161:\n        /* \"#utility.yul\":5579:5920   */\n      pop\n        /* \"#utility.yul\":5495:5920   */\n      swap4\n      swap3\n      pop\n      pop\n      pop\n      jump\t// out\n        /* \"#utility.yul\":5940:6280   */\n    tag_80:\n        /* \"#utility.yul\":5996:6001   */\n      0x00\n        /* \"#utility.yul\":6045:6048   */\n      dup3\n        /* \"#utility.yul\":6038:6042   */\n      0x1f\n        /* \"#utility.yul\":6030:6036   */\n      dup4\n        /* \"#utility.yul\":6026:6043   */\n      add\n        /* \"#utility.yul\":6022:6049   */\n      slt\n        /* \"#utility.yul\":6012:6134   */\n      tag_163\n      jumpi\n        /* \"#utility.yul\":6053:6132   */\n      tag_164\n      tag_72\n      jump\t// in\n    tag_164:\n        /* \"#utility.yul\":6012:6134   */\n    tag_163:\n        /* \"#utility.yul\":6170:6176   */\n      dup2\n        /* \"#utility.yul\":6157:6177   */\n      calldataload\n        /* \"#utility.yul\":6195:6274   */\n      tag_165\n        /* \"#utility.yul\":6270:6273   */\n      dup5\n        /* \"#utility.yul\":6262:6268   */\n      dup3\n        /* \"#utility.yul\":6255:6259   */\n      0x20\n        /* \"#utility.yul\":6247:6253   */\n      dup7\n        /* \"#utility.yul\":6243:6260   */\n      add\n        /* \"#utility.yul\":6195:6274   */\n      tag_79\n      jump\t// in\n    tag_165:\n        /* \"#utility.yul\":6186:6274   */\n      swap2\n      pop\n        /* \"#utility.yul\":6002:6280   */\n      pop\n        /* \"#utility.yul\":5940:6280   */\n      swap3\n      swap2\n      pop\n      pop\n      jump\t// out\n        /* \"#utility.yul\":6286:6940   */\n    tag_20:\n        /* \"#utility.yul\":6364:6370   */\n      0x00\n        /* \"#utility.yul\":6372:6378   */\n      0x00\n        /* \"#utility.yul\":6421:6423   */\n      0x40\n        /* \"#utility.yul\":6409:6418   */\n      dup4\n        /* \"#utility.yul\":6400:6407   */\n      dup6\n        /* \"#utility.yul\":6396:6419   */\n      sub\n        /* \"#utility.yul\":6392:6424   */\n      slt\n        /* \"#utility.yul\":6389:6508   */\n      iszero\n      tag_167\n      jumpi\n        /* \"#utility.yul\":6427:6506   */\n      tag_168\n      tag_57\n      jump\t// in\n    tag_168:\n        /* \"#utility.yul\":6389:6508   */\n    tag_167:\n        /* \"#utility.yul\":6575:6576   */\n      0x00\n        /* \"#utility.yul\":6564:6573   */\n      dup4\n        /* \"#utility.yul\":6560:6577   */\n      add\n        /* \"#utility.yul\":6547:6578   */\n      calldataload\n        /* \"#utility.yul\":6605:6623   */\n      0xffffffffffffffff\n        /* \"#utility.yul\":6597:6603   */\n      dup2\n        /* \"#utility.yul\":6594:6624   */\n      gt\n        /* \"#utility.yul\":6591:6708   */\n      iszero\n      tag_169\n      jumpi\n        /* \"#utility.yul\":6627:6706   */\n      tag_170\n      tag_58\n      jump\t// in\n    tag_170:\n        /* \"#utility.yul\":6591:6708   */\n    tag_169:\n        /* \"#utility.yul\":6732:6795   */\n      tag_171\n        /* \"#utility.yul\":6787:6794   */\n      dup6\n        /* \"#utility.yul\":6778:6784   */\n      dup3\n        /* \"#utility.yul\":6767:6776   */\n      dup7\n        /* \"#utility.yul\":6763:6785   */\n      add\n        /* \"#utility.yul\":6732:6795   */\n      tag_80\n      jump\t// in\n    tag_171:\n        /* \"#utility.yul\":6722:6795   */\n      swap3\n      pop\n        /* \"#utility.yul\":6518:6805   */\n      pop\n        /* \"#utility.yul\":6844:6846   */\n      0x20\n        /* \"#utility.yul\":6870:6923   */\n      tag_172\n        /* \"#utility.yul\":6915:6922   */\n      dup6\n        /* \"#utility.yul\":6906:6912   */\n      dup3\n        /* \"#utility.yul\":6895:6904   */\n      dup7\n        /* \"#utility.yul\":6891:6913   */\n      add\n        /* \"#utility.yul\":6870:6923   */\n      tag_61\n      jump\t// in\n    tag_172:\n        /* \"#utility.yul\":6860:6923   */\n      swap2\n      pop\n        /* \"#utility.yul\":6815:6933   */\n      pop\n        /* \"#utility.yul\":6286:6940   */\n      swap3\n      pop\n      swap3\n      swap1\n      pop\n      jump\t// out\n        /* \"#utility.yul\":6946:7455   */\n    tag_24:\n        /* \"#utility.yul\":7015:7021   */\n      0x00\n        /* \"#utility.yul\":7064:7066   */\n      0x20\n        /* \"#utility.yul\":7052:7061   */\n      dup3\n        /* \"#utility.yul\":7043:7050   */\n      dup5\n        /* \"#utility.yul\":7039:7062   */\n      sub\n        /* \"#utility.yul\":7035:7067   */\n      slt\n        /* \"#utility.yul\":7032:7151   */\n      iszero\n      tag_174\n      jumpi\n        /* \"#utility.yul\":7070:7149   */\n      tag_175\n      tag_57\n      jump\t// in\n    tag_175:\n        /* \"#utility.yul\":7032:7151   */\n    tag_174:\n        /* \"#utility.yul\":7218:7219   */\n      0x00\n        /* \"#utility.yul\":7207:7216   */\n      dup3\n        /* \"#utility.yul\":7203:7220   */\n      add\n        /* \"#utility.yul\":7190:7221   */\n      calldataload\n        /* \"#utility.yul\":7248:7266   */\n      0xffffffffffffffff\n        /* \"#utility.yul\":7240:7246   */\n      dup2\n        /* \"#utility.yul\":7237:7267   */\n      gt\n        /* \"#utility.yul\":7234:7351   */\n      iszero\n      tag_176\n      jumpi\n        /* \"#utility.yul\":7270:7349   */\n      tag_177\n      tag_58\n      jump\t// in\n    tag_177:\n        /* \"#utility.yul\":7234:7351   */\n    tag_176:\n        /* \"#utility.yul\":7375:7438   */\n      tag_178\n        /* \"#utility.yul\":7430:7437   */\n      dup5\n        /* \"#utility.yul\":7421:7427   */\n      dup3\n        /* \"#utility.yul\":7410:7419   */\n      dup6\n        /* \"#utility.yul\":7406:7428   */\n      add\n        /* \"#utility.yul\":7375:7438   */\n      tag_80\n      jump\t// in\n    tag_178:\n        /* \"#utility.yul\":7365:7438   */\n      swap2\n      pop\n        /* \"#utility.yul\":7161:7448   */\n      pop\n        /* \"#utility.yul\":6946:7455   */\n      swap3\n      swap2\n      pop\n      pop\n      jump\t// out\n        /* \"#utility.yul\":7461:7683   */\n    tag_27:\n        /* \"#utility.yul\":7554:7558   */\n      0x00\n        /* \"#utility.yul\":7592:7594   */\n      0x20\n        /* \"#utility.yul\":7581:7590   */\n      dup3\n        /* \"#utility.yul\":7577:7595   */\n      add\n        /* \"#utility.yul\":7569:7595   */\n      swap1\n      pop\n        /* \"#utility.yul\":7605:7676   */\n      tag_180\n        /* \"#utility.yul\":7673:7674   */\n      0x00\n        /* \"#utility.yul\":7662:7671   */\n      dup4\n        /* \"#utility.yul\":7658:7675   */\n      add\n        /* \"#utility.yul\":7649:7655   */\n      dup5\n        /* \"#utility.yul\":7605:7676   */\n      tag_71\n      jump\t// in\n    tag_180:\n        /* \"#utility.yul\":7461:7683   */\n      swap3\n      swap2\n      pop\n      pop\n      jump\t// out\n        /* \"#utility.yul\":7689:7869   */\n    tag_33:\n        /* \"#utility.yul\":7737:7814   */\n      0x4e487b7100000000000000000000000000000000000000000000000000000000\n        /* \"#utility.yul\":7734:7735   */\n      0x00\n        /* \"#utility.yul\":7727:7815   */\n      mstore\n        /* \"#utility.yul\":7834:7838   */\n      0x32\n        /* \"#utility.yul\":7831:7832   */\n      0x04\n        /* \"#utility.yul\":7824:7839   */\n      mstore\n        /* \"#utility.yul\":7858:7862   */\n      0x24\n        /* \"#utility.yul\":7855:7856   */\n      0x00\n        /* \"#utility.yul\":7848:7863   */\n      revert\n        /* \"#utility.yul\":7875:8055   */\n    tag_81:\n        /* \"#utility.yul\":7923:8000   */\n      0x4e487b7100000000000000000000000000000000000000000000000000000000\n        /* \"#utility.yul\":7920:7921   */\n      0x00\n        /* \"#utility.yul\":7913:8001   */\n      mstore\n        /* \"#utility.yul\":8020:8024   */\n      0x22\n        /* \"#utility.yul\":8017:8018   */\n      0x04\n        /* \"#utility.yul\":8010:8025   */\n      mstore\n        /* \"#utility.yul\":8044:8048   */\n      0x24\n        /* \"#utility.yul\":8041:8042   */\n      0x00\n        /* \"#utility.yul\":8034:8049   */\n      revert\n        /* \"#utility.yul\":8061:8381   */\n    tag_36:\n        /* \"#utility.yul\":8105:8111   */\n      0x00\n        /* \"#utility.yul\":8142:8143   */\n      0x02\n        /* \"#utility.yul\":8136:8140   */\n      dup3\n        /* \"#utility.yul\":8132:8144   */\n      div\n        /* \"#utility.yul\":8122:8144   */\n      swap1\n      pop\n        /* \"#utility.yul\":8189:8190   */\n      0x01\n        /* \"#utility.yul\":8183:8187   */\n      dup3\n        /* \"#utility.yul\":8179:8191   */\n      and\n        /* \"#utility.yul\":8210:8228   */\n      dup1\n        /* \"#utility.yul\":8200:8281   */\n      tag_184\n      jumpi\n        /* \"#utility.yul\":8266:8270   */\n      0x7f\n        /* \"#utility.yul\":8258:8264   */\n      dup3\n        /* \"#utility.yul\":8254:8271   */\n      and\n        /* \"#utility.yul\":8244:8271   */\n      swap2\n      pop\n        /* \"#utility.yul\":8200:8281   */\n    tag_184:\n        /* \"#utility.yul\":8328:8330   */\n      0x20\n        /* \"#utility.yul\":8320:8326   */\n      dup3\n        /* \"#utility.yul\":8317:8331   */\n      lt\n        /* \"#utility.yul\":8297:8315   */\n      dup2\n        /* \"#utility.yul\":8294:8332   */\n      sub\n        /* \"#utility.yul\":8291:8375   */\n      tag_185\n      jumpi\n        /* \"#utility.yul\":8347:8365   */\n      tag_186\n      tag_81\n      jump\t// in\n    tag_186:\n        /* \"#utility.yul\":8291:8375   */\n    tag_185:\n        /* \"#utility.yul\":8112:8381   */\n      pop\n        /* \"#utility.yul\":8061:8381   */\n      swap2\n      swap1\n      pop\n      jump\t// out\n        /* \"#utility.yul\":8387:8528   */\n    tag_82:\n        /* \"#utility.yul\":8436:8440   */\n      0x00\n        /* \"#utility.yul\":8459:8462   */\n      dup2\n        /* \"#utility.yul\":8451:8462   */\n      swap1\n      pop\n        /* \"#utility.yul\":8482:8485   */\n      dup2\n        /* \"#utility.yul\":8479:8480   */\n      0x00\n        /* \"#utility.yul\":8472:8486   */\n      mstore\n        /* \"#utility.yul\":8516:8520   */\n      0x20\n        /* \"#utility.yul\":8513:8514   */\n      0x00\n        /* \"#utility.yul\":8503:8521   */\n      keccak256\n        /* \"#utility.yul\":8495:8521   */\n      swap1\n      pop\n        /* \"#utility.yul\":8387:8528   */\n      swap2\n      swap1\n      pop\n      jump\t// out\n        /* \"#utility.yul\":8534:8627   */\n    tag_83:\n        /* \"#utility.yul\":8571:8577   */\n      0x00\n        /* \"#utility.yul\":8618:8620   */\n      0x20\n        /* \"#utility.yul\":8613:8615   */\n      0x1f\n        /* \"#utility.yul\":8606:8611   */\n      dup4\n        /* \"#utility.yul\":8602:8616   */\n      add\n        /* \"#utility.yul\":8598:8621   */\n      div\n        /* \"#utility.yul\":8588:8621   */\n      swap1\n      pop\n        /* \"#utility.yul\":8534:8627   */\n      swap2\n      swap1\n      pop\n      jump\t// out\n        /* \"#utility.yul\":8633:8740   */\n    tag_84:\n        /* \"#utility.yul\":8677:8685   */\n      0x00\n        /* \"#utility.yul\":8727:8732   */\n      dup3\n        /* \"#utility.yul\":8721:8725   */\n      dup3\n        /* \"#utility.yul\":8717:8733   */\n      shl\n        /* \"#utility.yul\":8696:8733   */\n      swap1\n      pop\n        /* \"#utility.yul\":8633:8740   */\n      swap3\n      swap2\n      pop\n      pop\n      jump\t// out\n        /* \"#utility.yul\":8746:9139   */\n    tag_85:\n        /* \"#utility.yul\":8815:8821   */\n      0x00\n        /* \"#utility.yul\":8865:8866   */\n      0x08\n        /* \"#utility.yul\":8853:8863   */\n      dup4\n        /* \"#utility.yul\":8849:8867   */\n      mul\n        /* \"#utility.yul\":8888:8985   */\n      tag_191\n        /* \"#utility.yul\":8918:8984   */\n      0xffffffffffffffffffffffffffffffffffffffffffffffffffffffffffffffff\n        /* \"#utility.yul\":8907:8916   */\n      dup3\n        /* \"#utility.yul\":8888:8985   */\n      tag_84\n      jump\t// in\n    tag_191:\n        /* \"#utility.yul\":9006:9045   */\n      tag_192\n        /* \"#utility.yul\":9036:9044   */\n      dup7\n        /* \"#utility.yul\":9025:9034   */\n      dup4\n        /* \"#utility.yul\":9006:9045   */\n      tag_84\n      jump\t// in\n    tag_192:\n        /* \"#utility.yul\":8994:9045   */\n      swap6\n      pop\n        /* \"#utility.yul\":9078:9082   */\n      dup1\n        /* \"#utility.yul\":9074:9083   */\n      not\n        /* \"#utility.yul\":9067:9072   */\n      dup5\n        /* \"#utility.yul\":9063:9084   */\n      and\n        /* \"#utility.yul\":9054:9084   */\n      swap4\n      pop\n        /* \"#utility.yul\":9127:9131   */\n      dup1\n        /* \"#utility.yul\":9117:9125   */\n      dup7\n        /* \"#utility.yul\":9113:9132   */\n      and\n        /* \"#utility.yul\":9106:9111   */\n      dup5\n        /* \"#utility.yul\":9103:9133   */\n      or\n        /* \"#utility.yul\":9093:9133   */\n      swap3\n      pop\n        /* \"#utility.yul\":8822:9139   */\n      pop\n      pop\n        /* \"#utility.yul\":8746:9139   */\n      swap4\n      swap3\n      pop\n      pop\n      pop\n      jump\t// out\n        /* \"#utility.yul\":9145:9205   */\n    tag_86:\n        /* \"#utility.yul\":9173:9176   */\n      0x00\n        /* \"#utility.yul\":9194:9199   */\n      dup2\n        /* \"#utility.yul\":9187:9199   */\n      swap1\n      pop\n        /* \"#utility.yul\":9145:9205   */\n      swap2\n      swap1\n      pop\n      jump\t// out\n        /* \"#utility.yul\":9211:9353   */\n    tag_87:\n        /* \"#utility.yul\":9261:9270   */\n      0x00\n        /* \"#utility.yul\":9294:9347   */\n      tag_195\n        /* \"#utility.yul\":9312:9346   */\n      tag_196\n        /* \"#utility.yul\":9321:9345   */\n      tag_197\n        /* \"#utility.yul\":9339:9344   */\n      dup5\n        /* \"#utility.yul\":9321:9345   */\n      tag_59\n      jump\t// in\n    tag_197:\n        /* \"#utility.yul\":9312:9346   */\n      tag_86\n      jump\t// in\n    tag_196:\n        /* \"#utility.yul\":9294:9347   */\n      tag_59\n      jump\t// in\n    tag_195:\n        /* \"#utility.yul\":9281:9347   */\n      swap1\n      pop\n        /* \"#utility.yul\":9211:9353   */\n      swap2\n      swap1\n      pop\n      jump\t// out\n        /* \"#utility.yul\":9359:9434   */\n    tag_88:\n        /* \"#utility.yul\":9402:9405   */\n      0x00\n        /* \"#utility.yul\":9423:9428   */\n      dup2\n        /* \"#utility.yul\":9416:9428   */\n      swap1\n      pop\n        /* \"#utility.yul\":9359:9434   */\n      swap2\n      swap1\n      pop\n      jump\t// out\n        /* \"#utility.yul\":9440:9709   */\n    tag_89:\n        /* \"#utility.yul\":9550:9589   */\n      tag_200\n        /* \"#utility.yul\":9581:9588   */\n      dup4\n        /* \"#utility.yul\":9550:9589   */\n      tag_87\n      jump\t// in\n    tag_200:\n        /* \"#utility.yul\":9611:9702   */\n      tag_201\n        /* \"#utility.yul\":9660:9701   */\n      tag_202\n        /* \"#utility.yul\":9684:9700   */\n      dup3\n        /* \"#utility.yul\":9660:9701   */\n      tag_88\n      jump\t// in\n    tag_202:\n        /* \"#utility.yul\":9652:9658   */\n      dup5\n        /* \"#utility.yul\":9645:9649   */\n      dup5\n        /* \"#utility.yul\":9639:9650   */\n      sload\n        /* \"#utility.yul\":9611:9702   */\n      tag_85\n      jump\t// in\n    tag_201:\n        /* \"#utility.yul\":9605:9609   */\n      dup3\n        /* \"#utility.yul\":9598:9703   */\n      sstore\n        /* \"#utility.yul\":9516:9709   */\n      pop\n        /* \"#utility.yul\":9440:9709   */\n      pop\n      pop\n      pop\n      jump\t// out\n        /* \"#utility.yul\":9715:9788   */\n    tag_90:\n        /* \"#utility.yul\":9760:9763   */\n      0x00\n        /* \"#utility.yul\":9781:9782   */\n      0x00\n        /* \"#utility.yul\":9774:9782   */\n      swap1\n      pop\n        /* \"#utility.yul\":9715:9788   */\n      swap1\n      jump\t// out\n        /* \"#utility.yul\":9794:9983   */\n    tag_91:\n        /* \"#utility.yul\":9871:9903   */\n      tag_205\n      tag_90\n      jump\t// in\n    tag_205:\n        /* \"#utility.yul\":9912:9977   */\n      tag_206\n        /* \"#utility.yul\":9970:9976   */\n      dup2\n        /* \"#utility.yul\":9962:9968   */\n      dup5\n        /* \"#utility.yul\":9956:9960   */\n      dup5\n        /* \"#utility.yul\":9912:9977   */\n      tag_89\n      jump\t// in\n    tag_206:\n        /* \"#utility.yul\":9847:9983   */\n      pop\n        /* \"#utility.yul\":9794:9983   */\n      pop\n      pop\n      jump\t// out\n        /* \"#utility.yul\":9989:10203   */\n    tag_92:\n        /* \"#utility.yul\":10074:10075   */\n      0x00\n        /* \"#utility.yul\":10059:10197   */\n    tag_208:\n        /* \"#utility.yul\":10084:10093   */\n      dup3\n        /* \"#utility.yul\":10081:10082   */\n      dup2\n        /* \"#utility.yul\":10078:10094   */\n      lt\n        /* \"#utility.yul\":10059:10197   */\n      iszero\n      tag_210\n      jumpi\n        /* \"#utility.yul\":10136:10187   */\n      tag_211\n        /* \"#utility.yul\":10185:10186   */\n      0x00\n        /* \"#utility.yul\":10181:10182   */\n      dup3\n        /* \"#utility.yul\":10170:10179   */\n      dup5\n        /* \"#utility.yul\":10166:10183   */\n      add\n        /* \"#utility.yul\":10136:10187   */\n      tag_91\n      jump\t// in\n    tag_211:\n        /* \"#utility.yul\":10109:10110   */\n      0x01\n        /* \"#utility.yul\":10106:10107   */\n      dup2\n        /* \"#utility.yul\":10102:10111   */\n      add\n        /* \"#utility.yul\":10097:10111   */\n      swap1\n      pop\n        /* \"#utility.yul\":10059:10197   */\n      jump(tag_208)\n    tag_210:\n        /* \"#utility.yul\":10063:10077   */\n      pop\n        /* \"#utility.yul\":9989:10203   */\n      pop\n      pop\n      jump\t// out\n        /* \"#utility.yul\":10209:10955   */\n    tag_93:\n        /* \"#utility.yul\":10310:10312   */\n      0x1f\n        /* \"#utility.yul\":10305:10308   */\n      dup3\n        /* \"#utility.yul\":10302:10313   */\n      gt\n        /* \"#utility.yul\":10299:10948   */\n      iszero\n      tag_213\n      jumpi\n        /* \"#utility.yul\":10339:10349   */\n      dup3\n        /* \"#utility.yul\":10334:10337   */\n      dup3\n        /* \"#utility.yul\":10331:10350   */\n      gt\n        /* \"#utility.yul\":10328:10938   */\n      iszero\n      tag_214\n      jumpi\n        /* \"#utility.yul\":10385:10423   */\n      tag_215\n        /* \"#utility.yul\":10417:10422   */\n      dup2\n        /* \"#utility.yul\":10385:10423   */\n      tag_82\n      jump\t// in\n    tag_215:\n        /* \"#utility.yul\":10460:10482   */\n      tag_216\n        /* \"#utility.yul\":10478:10481   */\n      dup4\n        /* \"#utility.yul\":10460:10482   */\n      tag_83\n      jump\t// in\n    tag_216:\n        /* \"#utility.yul\":10519:10548   */\n      tag_217\n        /* \"#utility.yul\":10537:10547   */\n      dup6\n        /* \"#utility.yul\":10519:10548   */\n      tag_83\n      jump\t// in\n    tag_217:\n        /* \"#utility.yul\":10709:10711   */\n      0x20\n        /* \"#utility.yul\":10697:10707   */\n      dup7\n        /* \"#utility.yul\":10694:10712   */\n      lt\n        /* \"#utility.yul\":10691:10770   */\n      iszero\n      tag_218\n      jumpi\n        /* \"#utility.yul\":10751:10752   */\n      0x00\n        /* \"#utility.yul\":10735:10752   */\n      swap1\n      pop\n        /* \"#utility.yul\":10691:10770   */\n    tag_218:\n        /* \"#utility.yul\":10820:10832   */\n      dup1\n        /* \"#utility.yul\":10810:10818   */\n      dup4\n        /* \"#utility.yul\":10806:10833   */\n      add\n        /* \"#utility.yul\":10850:10924   */\n      tag_219\n        /* \"#utility.yul\":10910:10922   */\n      dup3\n        /* \"#utility.yul\":10896:10908   */\n      dup5\n        /* \"#utility.yul\":10892:10923   */\n      sub\n        /* \"#utility.yul\":10879:10890   */\n      dup3\n        /* \"#utility.yul\":10850:10924   */\n      tag_92\n      jump\t// in\n    tag_219:\n        /* \"#utility.yul\":10351:10938   */\n      pop\n      pop\n      pop\n      pop\n        /* \"#utility.yul\":10328:10938   */\n    tag_214:\n        /* \"#utility.yul\":10299:10948   */\n    tag_213:\n        /* \"#utility.yul\":10209:10955   */\n      pop\n      pop\n      pop\n      jump\t// out\n        /* \"#utility.yul\":10961:11078   */\n    tag_94:\n        /* \"#utility.yul\":11015:11023   */\n      0x00\n        /* \"#utility.yul\":11065:11070   */\n      dup3\n        /* \"#utility.yul\":11059:11063   */\n      dup3\n        /* \"#utility.yul\":11055:11071   */\n      shr\n        /* \"#utility.yul\":11034:11071   */\n      swap1\n      pop\n        /* \"#utility.yul\":10961:11078   */\n      swap3\n      swap2\n      pop\n      pop\n      jump\t// out\n        /* \"#utility.yul\":11084:11253   */\n    tag_95:\n        /* \"#utility.yul\":11128:11134   */\n      0x00\n        /* \"#utility.yul\":11161:11212   */\n      tag_222\n        /* \"#utility.yul\":11209:11210   */\n      0x00\n        /* \"#utility.yul\":11205:11211   */\n      not\n        /* \"#utility.yul\":11197:11202   */\n      dup5\n        /* \"#utility.yul\":11194:11195   */\n      0x08\n        /* \"#utility.yul\":11190:11203   */\n      mul\n        /* \"#utility.yul\":11161:11212   */\n      tag_94\n      jump\t// in\n    tag_222:\n        /* \"#utility.yul\":11157:11213   */\n      not\n        /* \"#utility.yul\":11242:11246   */\n      dup1\n        /* \"#utility.yul\":11236:11240   */\n      dup4\n        /* \"#utility.yul\":11232:11247   */\n      and\n        /* \"#utility.yul\":11222:11247   */\n      swap2\n      pop\n        /* \"#utility.yul\":11135:11253   */\n      pop\n        /* \"#utility.yul\":11084:11253   */\n      swap3\n      swap2\n      pop\n      pop\n      jump\t// out\n        /* \"#utility.yul\":11258:11553   */\n    tag_96:\n        /* \"#utility.yul\":11334:11338   */\n      0x00\n        /* \"#utility.yul\":11480:11509   */\n      tag_224\n        /* \"#utility.yul\":11505:11508   */\n      dup4\n        /* \"#utility.yul\":11499:11503   */\n      dup4\n        /* \"#utility.yul\":11480:11509   */\n      tag_95\n      jump\t// in\n    tag_224:\n        /* \"#utility.yul\":11472:11509   */\n      swap2\n      pop\n        /* \"#utility.yul\":11542:11545   */\n      dup3\n        /* \"#utility.yul\":11539:11540   */\n      0x02\n        /* \"#utility.yul\":11535:11546   */\n      mul\n        /* \"#utility.yul\":11529:11533   */\n      dup3\n        /* \"#utility.yul\":11526:11547   */\n      or\n        /* \"#utility.yul\":11518:11547   */\n      swap1\n      pop\n        /* \"#utility.yul\":11258:11553   */\n      swap3\n      swap2\n      pop\n      pop\n      jump\t// out\n        /* \"#utility.yul\":11558:12953   */\n    tag_51:\n        /* \"#utility.yul\":11675:11712   */\n      tag_226\n        /* \"#utility.yul\":11708:11711   */\n      dup3\n        /* \"#utility.yul\":11675:11712   */\n      tag_62\n      jump\t// in\n    tag_226:\n        /* \"#utility.yul\":11777:11795   */\n      0xffffffffffffffff\n        /* \"#utility.yul\":11769:11775   */\n      dup2\n        /* \"#utility.yul\":11766:11796   */\n      gt\n        /* \"#utility.yul\":11763:11819   */\n      iszero\n      tag_227\n      jumpi\n        /* \"#utility.yul\":11799:11817   */\n      tag_228\n      tag_74\n      jump\t// in\n    tag_228:\n        /* \"#utility.yul\":11763:11819   */\n    tag_227:\n        /* \"#utility.yul\":11843:11881   */\n      tag_229\n        /* \"#utility.yul\":11875:11879   */\n      dup3\n        /* \"#utility.yul\":11869:11880   */\n      sload\n        /* \"#utility.yul\":11843:11881   */\n      tag_36\n      jump\t// in\n    tag_229:\n        /* \"#utility.yul\":11928:11995   */\n      tag_230\n        /* \"#utility.yul\":11988:11994   */\n      dup3\n        /* \"#utility.yul\":11980:11986   */\n      dup3\n        /* \"#utility.yul\":11974:11978   */\n      dup6\n        /* \"#utility.yul\":11928:11995   */\n      tag_93\n      jump\t// in\n    tag_230:\n        /* \"#utility.yul\":12022:12023   */\n      0x00\n        /* \"#utility.yul\":12046:12050   */\n      0x20\n        /* \"#utility.yul\":12033:12050   */\n      swap1\n      pop\n        /* \"#utility.yul\":12078:12080   */\n      0x1f\n        /* \"#utility.yul\":12070:12076   */\n      dup4\n        /* \"#utility.yul\":12067:12081   */\n      gt\n        /* \"#utility.yul\":12095:12096   */\n      0x01\n        /* \"#utility.yul\":12090:12708   */\n      dup2\n      eq\n      tag_232\n      jumpi\n        /* \"#utility.yul\":12752:12753   */\n      0x00\n        /* \"#utility.yul\":12769:12775   */\n      dup5\n        /* \"#utility.yul\":12766:12843   */\n      iszero\n      tag_233\n      jumpi\n        /* \"#utility.yul\":12818:12827   */\n      dup3\n        /* \"#utility.yul\":12813:12816   */\n      dup8\n        /* \"#utility.yul\":12809:12828   */\n      add\n        /* \"#utility.yul\":12803:12829   */\n      mload\n        /* \"#utility.yul\":12794:12829   */\n      swap1\n      pop\n        /* \"#utility.yul\":12766:12843   */\n    tag_233:\n        /* \"#utility.yul\":12869:12936   */\n      tag_234\n        /* \"#utility.yul\":12929:12935   */\n      dup6\n        /* \"#utility.yul\":12922:12927   */\n      dup3\n        /* \"#utility.yul\":12869:12936   */\n      tag_96\n      jump\t// in\n    tag_234:\n        /* \"#utility.yul\":12863:12867   */\n      dup7\n        /* \"#utility.yul\":12856:12937   */\n      sstore\n        /* \"#utility.yul\":12725:12947   */\n      pop\n        /* \"#utility.yul\":12060:12947   */\n      jump(tag_231)\n        /* \"#utility.yul\":12090:12708   */\n    tag_232:\n        /* \"#utility.yul\":12142:12146   */\n      0x1f\n        /* \"#utility.yul\":12138:12147   */\n      not\n        /* \"#utility.yul\":12130:12136   */\n      dup5\n        /* \"#utility.yul\":12126:12148   */\n      and\n        /* \"#utility.yul\":12176:12213   */\n      tag_235\n        /* \"#utility.yul\":12208:12212   */\n      dup7\n        /* \"#utility.yul\":12176:12213   */\n      tag_82\n      jump\t// in\n    tag_235:\n        /* \"#utility.yul\":12235:12236   */\n      0x00\n        /* \"#utility.yul\":12249:12457   */\n    tag_236:\n        /* \"#utility.yul\":12263:12270   */\n      dup3\n        /* \"#utility.yul\":12260:12261   */\n      dup2\n        /* \"#utility.yul\":12257:12271   */\n      lt\n        /* \"#utility.yul\":12249:12457   */\n      iszero\n      tag_238\n      jumpi\n        /* \"#utility.yul\":12342:12351   */\n      dup5\n        /* \"#utility.yul\":12337:12340   */\n      dup10\n        /* \"#utility.yul\":12333:12352   */\n      add\n        /* \"#utility.yul\":12327:12353   */\n      mload\n        /* \"#utility.yul\":12319:12325   */\n      dup3\n        /* \"#utility.yul\":12312:12354   */\n      sstore\n        /* \"#utility.yul\":12393:12394   */\n      0x01\n        /* \"#utility.yul\":12385:12391   */\n      dup3\n        /* \"#utility.yul\":12381:12395   */\n      add\n        /* \"#utility.yul\":12371:12395   */\n      swap2\n      pop\n        /* \"#utility.yul\":12440:12442   */\n      0x20\n        /* \"#utility.yul\":12429:12438   */\n      dup6\n        /* \"#utility.yul\":12425:12443   */\n      add\n        /* \"#utility.yul\":12412:12443   */\n      swap5\n      pop\n        /* \"#utility.yul\":12286:12290   */\n      0x20\n        /* \"#utility.yul\":12283:12284   */\n      dup2\n        /* \"#utility.yul\":12279:12291   */\n      add\n        /* \"#utility.yul\":12274:12291   */\n      swap1\n      pop\n        /* \"#utility.yul\":12249:12457   */\n      jump(tag_236)\n    tag_238:\n        /* \"#utility.yul\":12485:12491   */\n      dup7\n        /* \"#utility.yul\":12476:12483   */\n      dup4\n        /* \"#utility.yul\":12473:12492   */\n      lt\n        /* \"#utility.yul\":12470:12649   */\n      iszero\n      tag_239\n      jumpi\n        /* \"#utility.yul\":12543:12552   */\n      dup5\n        /* \"#utility.yul\":12538:12541   */\n      dup10\n        /* \"#utility.yul\":12534:12553   */\n      add\n        /* \"#utility.yul\":12528:12554   */\n      mload\n        /* \"#utility.yul\":12586:12634   */\n      tag_240\n        /* \"#utility.yul\":12628:12632   */\n      0x1f\n        /* \"#utility.yul\":12620:12626   */\n      dup10\n        /* \"#utility.yul\":12616:12633   */\n      and\n        /* \"#utility.yul\":12605:12614   */\n      dup3\n        /* \"#utility.yul\":12586:12634   */\n      tag_95\n      jump\t// in\n    tag_240:\n        /* \"#utility.yul\":12578:12584   */\n      dup4\n        /* \"#utility.yul\":12571:12635   */\n      sstore\n        /* \"#utility.yul\":12493:12649   */\n      pop\n        /* \"#utility.yul\":12470:12649   */\n    tag_239:\n        /* \"#utility.yul\":12695:12696   */\n      0x01\n        /* \"#utility.yul\":12691:12692   */\n      0x02\n        /* \"#utility.yul\":12683:12689   */\n      dup9\n        /* \"#utility.yul\":12679:12693   */\n      mul\n        /* \"#utility.yul\":12675:12697   */\n      add\n        /* \"#utility.yul\":12669:12673   */\n      dup9\n        /* \"#utility.yul\":12662:12698   */\n      sstore\n        /* \"#utility.yul\":12097:12708   */\n      pop\n      pop\n      pop\n        /* \"#utility.yul\":12060:12947   */\n    tag_231:\n      pop\n        /* \"#utility.yul\":11650:12953   */\n      pop\n      pop\n      pop\n        /* \"#utility.yul\":11558:12953   */\n      pop\n      pop\n      jump\t// out\n        /* \"#utility.yul\":12959:13139   */\n    tag_97:\n        /* \"#utility.yul\":13007:13084   */\n      0x4e487b7100000000000000000000000000000000000000000000000000000000\n        /* \"#utility.yul\":13004:13005   */\n      0x00\n        /* \"#utility.yul\":12997:13085   */\n      mstore\n        /* \"#utility.yul\":13104:13108   */\n      0x11\n        /* \"#utility.yul\":13101:13102   */\n      0x04\n        /* \"#utility.yul\":13094:13109   */\n      mstore\n        /* \"#utility.yul\":13128:13132   */\n      0x24\n        /* \"#utility.yul\":13125:13126   */\n      0x00\n        /* \"#utility.yul\":13118:13133   */\n      revert\n        /* \"#utility.yul\":13145:13336   */\n    tag_53:\n        /* \"#utility.yul\":13185:13188   */\n      0x00\n        /* \"#utility.yul\":13204:13224   */\n      tag_243\n        /* \"#utility.yul\":13222:13223   */\n      dup3\n        /* \"#utility.yul\":13204:13224   */\n      tag_59\n      jump\t// in\n    tag_243:\n        /* \"#utility.yul\":13199:13224   */\n      swap2\n      pop\n        /* \"#utility.yul\":13238:13258   */\n      tag_244\n        /* \"#utility.yul\":13256:13257   */\n      dup4\n        /* \"#utility.yul\":13238:13258   */\n      tag_59\n      jump\t// in\n    tag_244:\n        /* \"#utility.yul\":13233:13258   */\n      swap3\n      pop\n        /* \"#utility.yul\":13281:13282   */\n      dup3\n        /* \"#utility.yul\":13278:13279   */\n      dup3\n        /* \"#utility.yul\":13274:13283   */\n      add\n        /* \"#utility.yul\":13267:13283   */\n      swap1\n      pop\n        /* \"#utility.yul\":13302:13305   */\n      dup1\n        /* \"#utility.yul\":13299:13300   */\n      dup3\n        /* \"#utility.yul\":13296:13306   */\n      gt\n        /* \"#utility.yul\":13293:13329   */\n      iszero\n      tag_245\n      jumpi\n        /* \"#utility.yul\":13309:13327   */\n      tag_246\n      tag_97\n      jump\t// in\n    tag_246:\n        /* \"#utility.yul\":13293:13329   */\n    tag_245:\n        /* \"#utility.yul\":13145:13336   */\n      swap3\n      swap2\n      pop\n      pop\n      jump\t// out\n        /* \"#utility.yul\":13342:13490   */\n    tag_98:\n        /* \"#utility.yul\":13444:13455   */\n      0x00\n        /* \"#utility.yul\":13481:13484   */\n      dup2\n        /* \"#utility.yul\":13466:13484   */\n      swap1\n      pop\n        /* \"#utility.yul\":13342:13490   */\n      swap3\n      swap2\n      pop\n      pop\n      jump\t// out\n        /* \"#utility.yul\":13496:13886   */\n    tag_99:\n        /* \"#utility.yul\":13602:13605   */\n      0x00\n        /* \"#utility.yul\":13630:13669   */\n      tag_249\n        /* \"#utility.yul\":13663:13668   */\n      dup3\n        /* \"#utility.yul\":13630:13669   */\n      tag_62\n      jump\t// in\n    tag_249:\n        /* \"#utility.yul\":13685:13774   */\n      tag_250\n        /* \"#utility.yul\":13767:13773   */\n      dup2\n        /* \"#utility.yul\":13762:13765   */\n      dup6\n        /* \"#utility.yul\":13685:13774   */\n      tag_98\n      jump\t// in\n    tag_250:\n        /* \"#utility.yul\":13678:13774   */\n      swap4\n      pop\n        /* \"#utility.yul\":13783:13848   */\n      tag_251\n        /* \"#utility.yul\":13841:13847   */\n      dup2\n        /* \"#utility.yul\":13836:13839   */\n      dup6\n        /* \"#utility.yul\":13829:13833   */\n      0x20\n        /* \"#utility.yul\":13822:13827   */\n      dup7\n        /* \"#utility.yul\":13818:13834   */\n      add\n        /* \"#utility.yul\":13783:13848   */\n      tag_64\n      jump\t// in\n    tag_251:\n        /* \"#utility.yul\":13873:13879   */\n      dup1\n        /* \"#utility.yul\":13868:13871   */\n      dup5\n        /* \"#utility.yul\":13864:13880   */\n      add\n        /* \"#utility.yul\":13857:13880   */\n      swap2\n      pop\n        /* \"#utility.yul\":13606:13886   */\n      pop\n        /* \"#utility.yul\":13496:13886   */\n      swap3\n      swap2\n      pop\n      pop\n      jump\t// out\n        /* \"#utility.yul\":13892:14167   */\n    tag_55:\n        /* \"#utility.yul\":14024:14027   */\n      0x00\n        /* \"#utility.yul\":14046:14141   */\n      tag_253\n        /* \"#utility.yul\":14137:14140   */\n      dup3\n        /* \"#utility.yul\":14128:14134   */\n      dup5\n        /* \"#utility.yul\":14046:14141   */\n      tag_99\n      jump\t// in\n    tag_253:\n        /* \"#utility.yul\":14039:14141   */\n      swap2\n      pop\n        /* \"#utility.yul\":14158:14161   */\n      dup2\n        /* \"#utility.yul\":14151:14161   */\n      swap1\n      pop\n        /* \"#utility.yul\":13892:14167   */\n      swap3\n      swap2\n      pop\n      pop\n      jump\t// out\n\n    auxdata: 0xa264697066735822122068a831ffc01648fd0096d697228d5b8f94227499c0d0eab631e49cae3b98666164736f6c63430008210033\n}\n",
				"bytecode": {
					"linkReferences": {},
					"object": "6080604052348015600e575f5ffd5b50610af98061001c5f395ff3fe608060405234801561000f575f5ffd5b506004361061004a575f3560e01c8063246982c41461004e5780632ebce6311461007e5780636f760f41146100af5780638bab8dd5146100cb575b5f5ffd5b6100686004803603810190610063919061039a565b6100fb565b604051610075919061047e565b60405180910390f35b6100986004803603810190610093919061039a565b6101cd565b6040516100a69291906104f5565b60405180910390f35b6100c960048036038101906100c4919061064f565b610281565b005b6100e560048036038101906100e091906106a9565b610310565b6040516100f291906106f0565b60405180910390f35b61010361033d565b5f828154811061011657610115610709565b5b905f5260205f2090600202016040518060400160405290815f8201805461013c90610763565b80601f016020809104026020016040519081016040528092919081815260200182805461016890610763565b80156101b35780601f1061018a576101008083540402835291602001916101b3565b820191905f5260205f20905b81548152906001019060200180831161019657829003601f168201915b505050505081526020016001820154815250509050919050565b5f81815481106101db575f80fd5b905f5260205f2090600202015f91509050805f0180546101fa90610763565b80601f016020809104026020016040519081016040528092919081815260200182805461022690610763565b80156102715780601f1061024857610100808354040283529160200191610271565b820191905f5260205f20905b81548152906001019060200180831161025457829003601f168201915b5050505050908060010154905082565b5f604051806040016040528084815260200183815250908060018154018082558091505060019003905f5260205f2090600202015f909190919091505f820151815f0190816102d09190610944565b506020820151816001015550506005816102ea9190610a40565b6001836040516102fa9190610aad565b9081526020016040518091039020819055505050565b6001818051602081018201805184825260208301602085012081835280955050505050505f915090505481565b6040518060400160405280606081526020015f81525090565b5f604051905090565b5f5ffd5b5f5ffd5b5f819050919050565b61037981610367565b8114610383575f5ffd5b50565b5f8135905061039481610370565b92915050565b5f602082840312156103af576103ae61035f565b5b5f6103bc84828501610386565b91505092915050565b5f81519050919050565b5f82825260208201905092915050565b8281835e5f83830152505050565b5f601f19601f8301169050919050565b5f610407826103c5565b61041181856103cf565b93506104218185602086016103df565b61042a816103ed565b840191505092915050565b61043e81610367565b82525050565b5f604083015f8301518482035f86015261045e82826103fd565b91505060208301516104736020860182610435565b508091505092915050565b5f6020820190508181035f8301526104968184610444565b905092915050565b5f82825260208201905092915050565b5f6104b8826103c5565b6104c2818561049e565b93506104d28185602086016103df565b6104db816103ed565b840191505092915050565b6104ef81610367565b82525050565b5f6040820190508181035f83015261050d81856104ae565b905061051c60208301846104e6565b9392505050565b5f5ffd5b5f5ffd5b7f4e487b71000000000000000000000000000000000000000000000000000000005f52604160045260245ffd5b610561826103ed565b810181811067ffffffffffffffff821117156105805761057f61052b565b5b80604052505050565b5f610592610356565b905061059e8282610558565b919050565b5f67ffffffffffffffff8211156105bd576105bc61052b565b5b6105c6826103ed565b9050602081019050919050565b828183375f83830152505050565b5f6105f36105ee846105a3565b610589565b90508281526020810184848401111561060f5761060e610527565b5b61061a8482856105d3565b509392505050565b5f82601f83011261063657610635610523565b5b81356106468482602086016105e1565b91505092915050565b5f5f604083850312156106655761066461035f565b5b5f83013567ffffffffffffffff81111561068257610681610363565b5b61068e85828601610622565b925050602061069f85828601610386565b9150509250929050565b5f602082840312156106be576106bd61035f565b5b5f82013567ffffffffffffffff8111156106db576106da610363565b5b6106e784828501610622565b91505092915050565b5f6020820190506107035f8301846104e6565b92915050565b7f4e487b71000000000000000000000000000000000000000000000000000000005f52603260045260245ffd5b7f4e487b71000000000000000000000000000000000000000000000000000000005f52602260045260245ffd5b5f600282049050600182168061077a57607f821691505b60208210810361078d5761078c610736565b5b50919050565b5f819050815f5260205f209050919050565b5f6020601f8301049050919050565b5f82821b905092915050565b5f600883026107ef7fffffffffffffffffffffffffffffffffffffffffffffffffffffffffffffffff826107b4565b6107f986836107b4565b95508019841693508086168417925050509392505050565b5f819050919050565b5f61083461082f61082a84610367565b610811565b610367565b9050919050565b5f819050919050565b61084d8361081a565b6108616108598261083b565b8484546107c0565b825550505050565b5f5f905090565b610878610869565b610883818484610844565b505050565b5f5b828110156108a95761089e5f828401610870565b60018101905061088a565b505050565b601f8211156108fc57828211156108fb576108c881610793565b6108d1836107a5565b6108da856107a5565b60208610156108e7575f90505b8083016108f682840382610888565b505050505b5b505050565b5f82821c905092915050565b5f61091c5f1984600802610901565b1980831691505092915050565b5f610934838361090d565b9150826002028217905092915050565b61094d826103c5565b67ffffffffffffffff8111156109665761096561052b565b5b6109708254610763565b61097b8282856108ae565b5f60209050601f8311600181146109ac575f841561099a578287015190505b6109a48582610929565b865550610a0b565b601f1984166109ba86610793565b5f5b828110156109e1578489015182556001820191506020850194506020810190506109bc565b868310156109fe57848901516109fa601f89168261090d565b8355505b6001600288020188555050505b505050505050565b7f4e487b71000000000000000000000000000000000000000000000000000000005f52601160045260245ffd5b5f610a4a82610367565b9150610a5583610367565b9250828201905080821115610a6d57610a6c610a13565b5b92915050565b5f81905092915050565b5f610a87826103c5565b610a918185610a73565b9350610aa18185602086016103df565b80840191505092915050565b5f610ab88284610a7d565b91508190509291505056fea264697066735822122068a831ffc01648fd0096d697228d5b8f94227499c0d0eab631e49cae3b98666164736f6c63430008210033",
					"opcodes": "PUSH1 0x80 PUSH1 0x40 MSTORE CALLVALUE DUP1 ISZERO PUSH1 0xE JUMPI PUSH0 PUSH0 REVERT JUMPDEST POP PUSH2 0xAF9 DUP1 PUSH2 0x1C PUSH0 CODECOPY PUSH0 RETURN INVALID PUSH1 0x80 PUSH1 0x40 MSTORE CALLVALUE DUP1 ISZERO PUSH2 0xF JUMPI PUSH0 PUSH0 REVERT JUMPDEST POP PUSH1 0x4 CALLDATASIZE LT PUSH2 0x4A JUMPI PUSH0 CALLDATALOAD PUSH1 0xE0 SHR DUP1 PUSH4 0x246982C4 EQ PUSH2 0x4E JUMPI DUP1 PUSH4 0x2EBCE631 EQ PUSH2 0x7E JUMPI DUP1 PUSH4 0x6F760F41 EQ PUSH2 0xAF JUMPI DUP1 PUSH4 0x8BAB8DD5 EQ PUSH2 0xCB JUMPI JUMPDEST PUSH0 PUSH0 REVERT JUMPDEST PUSH2 0x68 PUSH1 0x4 DUP1 CALLDATASIZE SUB DUP2 ADD SWAP1 PUSH2 0x63 SWAP2 SWAP1 PUSH2 0x39A JUMP JUMPDEST PUSH2 0xFB JUMP JUMPDEST PUSH1 0x40 MLOAD PUSH2 0x75 SWAP2 SWAP1 PUSH2 0x47E JUMP JUMPDEST PUSH1 0x40 MLOAD DUP1 SWAP2 SUB SWAP1 RETURN JUMPDEST PUSH2 0x98 PUSH1 0x4 DUP1 CALLDATASIZE SUB DUP2 ADD SWAP1 PUSH2 0x93 SWAP2 SWAP1 PUSH2 0x39A JUMP JUMPDEST PUSH2 0x1CD JUMP JUMPDEST PUSH1 0x40 MLOAD PUSH2 0xA6 SWAP3 SWAP2 SWAP1 PUSH2 0x4F5 JUMP JUMPDEST PUSH1 0x40 MLOAD DUP1 SWAP2 SUB SWAP1 RETURN JUMPDEST PUSH2 0xC9 PUSH1 0x4 DUP1 CALLDATASIZE SUB DUP2 ADD SWAP1 PUSH2 0xC4 SWAP2 SWAP1 PUSH2 0x64F JUMP JUMPDEST PUSH2 0x281 JUMP JUMPDEST STOP JUMPDEST PUSH2 0xE5 PUSH1 0x4 DUP1 CALLDATASIZE SUB DUP2 ADD SWAP1 PUSH2 0xE0 SWAP2 SWAP1 PUSH2 0x6A9 JUMP JUMPDEST PUSH2 0x310 JUMP JUMPDEST PUSH1 0x40 MLOAD PUSH2 0xF2 SWAP2 SWAP1 PUSH2 0x6F0 JUMP JUMPDEST PUSH1 0x40 MLOAD DUP1 SWAP2 SUB SWAP1 RETURN JUMPDEST PUSH2 0x103 PUSH2 0x33D JUMP JUMPDEST PUSH0 DUP3 DUP2 SLOAD DUP2 LT PUSH2 0x116 JUMPI PUSH2 0x115 PUSH2 0x709 JUMP JUMPDEST JUMPDEST SWAP1 PUSH0 MSTORE PUSH1 0x20 PUSH0 KECCAK256 SWAP1 PUSH1 0x2 MUL ADD PUSH1 0x40 MLOAD DUP1 PUSH1 0x40 ADD PUSH1 0x40 MSTORE SWAP1 DUP2 PUSH0 DUP3 ADD DUP1 SLOAD PUSH2 0x13C SWAP1 PUSH2 0x763 JUMP JUMPDEST DUP1 PUSH1 0x1F ADD PUSH1 0x20 DUP1 SWAP2 DIV MUL PUSH1 0x20 ADD PUSH1 0x40 MLOAD SWAP1 DUP2 ADD PUSH1 0x40 MSTORE DUP1 SWAP3 SWAP2 SWAP1 DUP2 DUP2 MSTORE PUSH1 0x20 ADD DUP3 DUP1 SLOAD PUSH2 0x168 SWAP1 PUSH2 0x763 JUMP JUMPDEST DUP1 ISZERO PUSH2 0x1B3 JUMPI DUP1 PUSH1 0x1F LT PUSH2 0x18A JUMPI PUSH2 0x100 DUP1 DUP4 SLOAD DIV MUL DUP4 MSTORE SWAP2 PUSH1 0x20 ADD SWAP2 PUSH2 0x1B3 JUMP JUMPDEST DUP3 ADD SWAP2 SWAP1 PUSH0 MSTORE PUSH1 0x20 PUSH0 KECCAK256 SWAP1 JUMPDEST DUP2 SLOAD DUP2 MSTORE SWAP1 PUSH1 0x1 ADD SWAP1 PUSH1 0x20 ADD DUP1 DUP4 GT PUSH2 0x196 JUMPI DUP3 SWAP1 SUB PUSH1 0x1F AND DUP3 ADD SWAP2 JUMPDEST POP POP POP POP POP DUP2 MSTORE PUSH1 0x20 ADD PUSH1 0x1 DUP3 ADD SLOAD DUP2 MSTORE POP POP SWAP1 POP SWAP2 SWAP1 POP JUMP JUMPDEST PUSH0 DUP2 DUP2 SLOAD DUP2 LT PUSH2 0x1DB JUMPI PUSH0 DUP1 REVERT JUMPDEST SWAP1 PUSH0 MSTORE PUSH1 0x20 PUSH0 KECCAK256 SWAP1 PUSH1 0x2 MUL ADD PUSH0 SWAP2 POP SWAP1 POP DUP1 PUSH0 ADD DUP1 SLOAD PUSH2 0x1FA SWAP1 PUSH2 0x763 JUMP JUMPDEST DUP1 PUSH1 0x1F ADD PUSH1 0x20 DUP1 SWAP2 DIV MUL PUSH1 0x20 ADD PUSH1 0x40 MLOAD SWAP1 DUP2 ADD PUSH1 0x40 MSTORE DUP1 SWAP3 SWAP2 SWAP1 DUP2 DUP2 MSTORE PUSH1 0x20 ADD DUP3 DUP1 SLOAD PUSH2 0x226 SWAP1 PUSH2 0x763 JUMP JUMPDEST DUP1 ISZERO PUSH2 0x271 JUMPI DUP1 PUSH1 0x1F LT PUSH2 0x248 JUMPI PUSH2 0x100 DUP1 DUP4 SLOAD DIV MUL DUP4 MSTORE SWAP2 PUSH1 0x20 ADD SWAP2 PUSH2 0x271 JUMP JUMPDEST DUP3 ADD SWAP2 SWAP1 PUSH0 MSTORE PUSH1 0x20 PUSH0 KECCAK256 SWAP1 JUMPDEST DUP2 SLOAD DUP2 MSTORE SWAP1 PUSH1 0x1 ADD SWAP1 PUSH1 0x20 ADD DUP1 DUP4 GT PUSH2 0x254 JUMPI DUP3 SWAP1 SUB PUSH1 0x1F AND DUP3 ADD SWAP2 JUMPDEST POP POP POP POP POP SWAP1 DUP1 PUSH1 0x1 ADD SLOAD SWAP1 POP DUP3 JUMP JUMPDEST PUSH0 PUSH1 0x40 MLOAD DUP1 PUSH1 0x40 ADD PUSH1 0x40 MSTORE DUP1 DUP5 DUP2 MSTORE PUSH1 0x20 ADD DUP4 DUP2 MSTORE POP SWAP1 DUP1 PUSH1 0x1 DUP2 SLOAD ADD DUP1 DUP3 SSTORE DUP1 SWAP2 POP POP PUSH1 0x1 SWAP1 SUB SWAP1 PUSH0 MSTORE PUSH1 0x20 PUSH0 KECCAK256 SWAP1 PUSH1 0x2 MUL ADD PUSH0 SWAP1 SWAP2 SWAP1 SWAP2 SWAP1 SWAP2 POP PUSH0 DUP3 ADD MLOAD DUP2 PUSH0 ADD SWAP1 DUP2 PUSH2 0x2D0 SWAP2 SWAP1 PUSH2 0x944 JUMP JUMPDEST POP PUSH1 0x20 DUP3 ADD MLOAD DUP2 PUSH1 0x1 ADD SSTORE POP POP PUSH1 0x5 DUP2 PUSH2 0x2EA SWAP2 SWAP1 PUSH2 0xA40 JUMP JUMPDEST PUSH1 0x1 DUP4 PUSH1 0x40 MLOAD PUSH2 0x2FA SWAP2 SWAP1 PUSH2 0xAAD JUMP JUMPDEST SWAP1 DUP2 MSTORE PUSH1 0x20 ADD PUSH1 0x40 MLOAD DUP1 SWAP2 SUB SWAP1 KECCAK256 DUP2 SWAP1 SSTORE POP POP POP JUMP JUMPDEST PUSH1 0x1 DUP2 DUP1 MLOAD PUSH1 0x20 DUP2 ADD DUP3 ADD DUP1 MLOAD DUP5 DUP3 MSTORE PUSH1 0x20 DUP4 ADD PUSH1 0x20 DUP6 ADD KECCAK256 DUP2 DUP4 MSTORE DUP1 SWAP6 POP POP POP POP POP POP PUSH0 SWAP2 POP SWAP1 POP SLOAD DUP2 JUMP JUMPDEST PUSH1 0x40 MLOAD DUP1 PUSH1 0x40 ADD PUSH1 0x40 MSTORE DUP1 PUSH1 0x60 DUP2 MSTORE PUSH1 0x20 ADD PUSH0 DUP2 MSTORE POP SWAP1 JUMP JUMPDEST PUSH0 PUSH1 0x40 MLOAD SWAP1 POP SWAP1 JUMP JUMPDEST PUSH0 PUSH0 REVERT JUMPDEST PUSH0 PUSH0 REVERT JUMPDEST PUSH0 DUP2 SWAP1 POP SWAP2 SWAP1 POP JUMP JUMPDEST PUSH2 0x379 DUP2 PUSH2 0x367 JUMP JUMPDEST DUP2 EQ PUSH2 0x383 JUMPI PUSH0 PUSH0 REVERT JUMPDEST POP JUMP JUMPDEST PUSH0 DUP2 CALLDATALOAD SWAP1 POP PUSH2 0x394 DUP2 PUSH2 0x370 JUMP JUMPDEST SWAP3 SWAP2 POP POP JUMP JUMPDEST PUSH0 PUSH1 0x20 DUP3 DUP5 SUB SLT ISZERO PUSH2 0x3AF JUMPI PUSH2 0x3AE PUSH2 0x35F JUMP JUMPDEST JUMPDEST PUSH0 PUSH2 0x3BC DUP5 DUP3 DUP6 ADD PUSH2 0x386 JUMP JUMPDEST SWAP2 POP POP SWAP3 SWAP2 POP POP JUMP JUMPDEST PUSH0 DUP2 MLOAD SWAP1 POP SWAP2 SWAP1 POP JUMP JUMPDEST PUSH0 DUP3 DUP3 MSTORE PUSH1 0x20 DUP3 ADD SWAP1 POP SWAP3 SWAP2 POP POP JUMP JUMPDEST DUP3 DUP2 DUP4 MCOPY PUSH0 DUP4 DUP4 ADD MSTORE POP POP POP JUMP JUMPDEST PUSH0 PUSH1 0x1F NOT PUSH1 0x1F DUP4 ADD AND SWAP1 POP SWAP2 SWAP1 POP JUMP JUMPDEST PUSH0 PUSH2 0x407 DUP3 PUSH2 0x3C5 JUMP JUMPDEST PUSH2 0x411 DUP2 DUP6 PUSH2 0x3CF JUMP JUMPDEST SWAP4 POP PUSH2 0x421 DUP2 DUP6 PUSH1 0x20 DUP7 ADD PUSH2 0x3DF JUMP JUMPDEST PUSH2 0x42A DUP2 PUSH2 0x3ED JUMP JUMPDEST DUP5 ADD SWAP2 POP POP SWAP3 SWAP2 POP POP JUMP JUMPDEST PUSH2 0x43E DUP2 PUSH2 0x367 JUMP JUMPDEST DUP3 MSTORE POP POP JUMP JUMPDEST PUSH0 PUSH1 0x40 DUP4 ADD PUSH0 DUP4 ADD MLOAD DUP5 DUP3 SUB PUSH0 DUP7 ADD MSTORE PUSH2 0x45E DUP3 DUP3 PUSH2 0x3FD JUMP JUMPDEST SWAP2 POP POP PUSH1 0x20 DUP4 ADD MLOAD PUSH2 0x473 PUSH1 0x20 DUP7 ADD DUP3 PUSH2 0x435 JUMP JUMPDEST POP DUP1 SWAP2 POP POP SWAP3 SWAP2 POP POP JUMP JUMPDEST PUSH0 PUSH1 0x20 DUP3 ADD SWAP1 POP DUP2 DUP2 SUB PUSH0 DUP4 ADD MSTORE PUSH2 0x496 DUP2 DUP5 PUSH2 0x444 JUMP JUMPDEST SWAP1 POP SWAP3 SWAP2 POP POP JUMP JUMPDEST PUSH0 DUP3 DUP3 MSTORE PUSH1 0x20 DUP3 ADD SWAP1 POP SWAP3 SWAP2 POP POP JUMP JUMPDEST PUSH0 PUSH2 0x4B8 DUP3 PUSH2 0x3C5 JUMP JUMPDEST PUSH2 0x4C2 DUP2 DUP6 PUSH2 0x49E JUMP JUMPDEST SWAP4 POP PUSH2 0x4D2 DUP2 DUP6 PUSH1 0x20 DUP7 ADD PUSH2 0x3DF JUMP JUMPDEST PUSH2 0x4DB DUP2 PUSH2 0x3ED JUMP JUMPDEST DUP5 ADD SWAP2 POP POP SWAP3 SWAP2 POP POP JUMP JUMPDEST PUSH2 0x4EF DUP2 PUSH2 0x367 JUMP JUMPDEST DUP3 MSTORE POP POP JUMP JUMPDEST PUSH0 PUSH1 0x40 DUP3 ADD SWAP1 POP DUP2 DUP2 SUB PUSH0 DUP4 ADD MSTORE PUSH2 0x50D DUP2 DUP6 PUSH2 0x4AE JUMP JUMPDEST SWAP1 POP PUSH2 0x51C PUSH1 0x20 DUP4 ADD DUP5 PUSH2 0x4E6 JUMP JUMPDEST SWAP4 SWAP3 POP POP POP JUMP JUMPDEST PUSH0 PUSH0 REVERT JUMPDEST PUSH0 PUSH0 REVERT JUMPDEST PUSH32 0x4E487B7100000000000000000000000000000000000000000000000000000000 PUSH0 MSTORE PUSH1 0x41 PUSH1 0x4 MSTORE PUSH1 0x24 PUSH0 REVERT JUMPDEST PUSH2 0x561 DUP3 PUSH2 0x3ED JUMP JUMPDEST DUP2 ADD DUP2 DUP2 LT PUSH8 0xFFFFFFFFFFFFFFFF DUP3 GT OR ISZERO PUSH2 0x580 JUMPI PUSH2 0x57F PUSH2 0x52B JUMP JUMPDEST JUMPDEST DUP1 PUSH1 0x40 MSTORE POP POP POP JUMP JUMPDEST PUSH0 PUSH2 0x592 PUSH2 0x356 JUMP JUMPDEST SWAP1 POP PUSH2 0x59E DUP3 DUP3 PUSH2 0x558 JUMP JUMPDEST SWAP2 SWAP1 POP JUMP JUMPDEST PUSH0 PUSH8 0xFFFFFFFFFFFFFFFF DUP3 GT ISZERO PUSH2 0x5BD JUMPI PUSH2 0x5BC PUSH2 0x52B JUMP JUMPDEST JUMPDEST PUSH2 0x5C6 DUP3 PUSH2 0x3ED JUMP JUMPDEST SWAP1 POP PUSH1 0x20 DUP2 ADD SWAP1 POP SWAP2 SWAP1 POP JUMP JUMPDEST DUP3 DUP2 DUP4 CALLDATACOPY PUSH0 DUP4 DUP4 ADD MSTORE POP POP POP JUMP JUMPDEST PUSH0 PUSH2 0x5F3 PUSH2 0x5EE DUP5 PUSH2 0x5A3 JUMP JUMPDEST PUSH2 0x589 JUMP JUMPDEST SWAP1 POP DUP3 DUP2 MSTORE PUSH1 0x20 DUP2 ADD DUP5 DUP5 DUP5 ADD GT ISZERO PUSH2 0x60F JUMPI PUSH2 0x60E PUSH2 0x527 JUMP JUMPDEST JUMPDEST PUSH2 0x61A DUP5 DUP3 DUP6 PUSH2 0x5D3 JUMP JUMPDEST POP SWAP4 SWAP3 POP POP POP JUMP JUMPDEST PUSH0 DUP3 PUSH1 0x1F DUP4 ADD SLT PUSH2 0x636 JUMPI PUSH2 0x635 PUSH2 0x523 JUMP JUMPDEST JUMPDEST DUP2 CALLDATALOAD PUSH2 0x646 DUP5 DUP3 PUSH1 0x20 DUP7 ADD PUSH2 0x5E1 JUMP JUMPDEST SWAP2 POP POP SWAP3 SWAP2 POP POP JUMP JUMPDEST PUSH0 PUSH0 PUSH1 0x40 DUP4 DUP6 SUB SLT ISZERO PUSH2 0x665 JUMPI PUSH2 0x664 PUSH2 0x35F JUMP JUMPDEST JUMPDEST PUSH0 DUP4 ADD CALLDATALOAD PUSH8 0xFFFFFFFFFFFFFFFF DUP2 GT ISZERO PUSH2 0x682 JUMPI PUSH2 0x681 PUSH2 0x363 JUMP JUMPDEST JUMPDEST PUSH2 0x68E DUP6 DUP3 DUP7 ADD PUSH2 0x622 JUMP JUMPDEST SWAP3 POP POP PUSH1 0x20 PUSH2 0x69F DUP6 DUP3 DUP7 ADD PUSH2 0x386 JUMP JUMPDEST SWAP2 POP POP SWAP3 POP SWAP3 SWAP1 POP JUMP JUMPDEST PUSH0 PUSH1 0x20 DUP3 DUP5 SUB SLT ISZERO PUSH2 0x6BE JUMPI PUSH2 0x6BD PUSH2 0x35F JUMP JUMPDEST JUMPDEST PUSH0 DUP3 ADD CALLDATALOAD PUSH8 0xFFFFFFFFFFFFFFFF DUP2 GT ISZERO PUSH2 0x6DB JUMPI PUSH2 0x6DA PUSH2 0x363 JUMP JUMPDEST JUMPDEST PUSH2 0x6E7 DUP5 DUP3 DUP6 ADD PUSH2 0x622 JUMP JUMPDEST SWAP2 POP POP SWAP3 SWAP2 POP POP JUMP JUMPDEST PUSH0 PUSH1 0x20 DUP3 ADD SWAP1 POP PUSH2 0x703 PUSH0 DUP4 ADD DUP5 PUSH2 0x4E6 JUMP JUMPDEST SWAP3 SWAP2 POP POP JUMP JUMPDEST PUSH32 0x4E487B7100000000000000000000000000000000000000000000000000000000 PUSH0 MSTORE PUSH1 0x32 PUSH1 0x4 MSTORE PUSH1 0x24 PUSH0 REVERT JUMPDEST PUSH32 0x4E487B7100000000000000000000000000000000000000000000000000000000 PUSH0 MSTORE PUSH1 0x22 PUSH1 0x4 MSTORE PUSH1 0x24 PUSH0 REVERT JUMPDEST PUSH0 PUSH1 0x2 DUP3 DIV SWAP1 POP PUSH1 0x1 DUP3 AND DUP1 PUSH2 0x77A JUMPI PUSH1 0x7F DUP3 AND SWAP2 POP JUMPDEST PUSH1 0x20 DUP3 LT DUP2 SUB PUSH2 0x78D JUMPI PUSH2 0x78C PUSH2 0x736 JUMP JUMPDEST JUMPDEST POP SWAP2 SWAP1 POP JUMP JUMPDEST PUSH0 DUP2 SWAP1 POP DUP2 PUSH0 MSTORE PUSH1 0x20 PUSH0 KECCAK256 SWAP1 POP SWAP2 SWAP1 POP JUMP JUMPDEST PUSH0 PUSH1 0x20 PUSH1 0x1F DUP4 ADD DIV SWAP1 POP SWAP2 SWAP1 POP JUMP JUMPDEST PUSH0 DUP3 DUP3 SHL SWAP1 POP SWAP3 SWAP2 POP POP JUMP JUMPDEST PUSH0 PUSH1 0x8 DUP4 MUL PUSH2 0x7EF PUSH32 0xFFFFFFFFFFFFFFFFFFFFFFFFFFFFFFFFFFFFFFFFFFFFFFFFFFFFFFFFFFFFFFFF DUP3 PUSH2 0x7B4 JUMP JUMPDEST PUSH2 0x7F9 DUP7 DUP4 PUSH2 0x7B4 JUMP JUMPDEST SWAP6 POP DUP1 NOT DUP5 AND SWAP4 POP DUP1 DUP7 AND DUP5 OR SWAP3 POP POP POP SWAP4 SWAP3 POP POP POP JUMP JUMPDEST PUSH0 DUP2 SWAP1 POP SWAP2 SWAP1 POP JUMP JUMPDEST PUSH0 PUSH2 0x834 PUSH2 0x82F PUSH2 0x82A DUP5 PUSH2 0x367 JUMP JUMPDEST PUSH2 0x811 JUMP JUMPDEST PUSH2 0x367 JUMP JUMPDEST SWAP1 POP SWAP2 SWAP1 POP JUMP JUMPDEST PUSH0 DUP2 SWAP1 POP SWAP2 SWAP1 POP JUMP JUMPDEST PUSH2 0x84D DUP4 PUSH2 0x81A JUMP JUMPDEST PUSH2 0x861 PUSH2 0x859 DUP3 PUSH2 0x83B JUMP JUMPDEST DUP5 DUP5 SLOAD PUSH2 0x7C0 JUMP JUMPDEST DUP3 SSTORE POP POP POP POP JUMP JUMPDEST PUSH0 PUSH0 SWAP1 POP SWAP1 JUMP JUMPDEST PUSH2 0x878 PUSH2 0x869 JUMP JUMPDEST PUSH2 0x883 DUP2 DUP5 DUP5 PUSH2 0x844 JUMP JUMPDEST POP POP POP JUMP JUMPDEST PUSH0 JUMPDEST DUP3 DUP2 LT ISZERO PUSH2 0x8A9 JUMPI PUSH2 0x89E PUSH0 DUP3 DUP5 ADD PUSH2 0x870 JUMP JUMPDEST PUSH1 0x1 DUP2 ADD SWAP1 POP PUSH2 0x88A JUMP JUMPDEST POP POP POP JUMP JUMPDEST PUSH1 0x1F DUP3 GT ISZERO PUSH2 0x8FC JUMPI DUP3 DUP3 GT ISZERO PUSH2 0x8FB JUMPI PUSH2 0x8C8 DUP2 PUSH2 0x793 JUMP JUMPDEST PUSH2 0x8D1 DUP4 PUSH2 0x7A5 JUMP JUMPDEST PUSH2 0x8DA DUP6 PUSH2 0x7A5 JUMP JUMPDEST PUSH1 0x20 DUP7 LT ISZERO PUSH2 0x8E7 JUMPI PUSH0 SWAP1 POP JUMPDEST DUP1 DUP4 ADD PUSH2 0x8F6 DUP3 DUP5 SUB DUP3 PUSH2 0x888 JUMP JUMPDEST POP POP POP POP JUMPDEST JUMPDEST POP POP POP JUMP JUMPDEST PUSH0 DUP3 DUP3 SHR SWAP1 POP SWAP3 SWAP2 POP POP JUMP JUMPDEST PUSH0 PUSH2 0x91C PUSH0 NOT DUP5 PUSH1 0x8 MUL PUSH2 0x901 JUMP JUMPDEST NOT DUP1 DUP4 AND SWAP2 POP POP SWAP3 SWAP2 POP POP JUMP JUMPDEST PUSH0 PUSH2 0x934 DUP4 DUP4 PUSH2 0x90D JUMP JUMPDEST SWAP2 POP DUP3 PUSH1 0x2 MUL DUP3 OR SWAP1 POP SWAP3 SWAP2 POP POP JUMP JUMPDEST PUSH2 0x94D DUP3 PUSH2 0x3C5 JUMP JUMPDEST PUSH8 0xFFFFFFFFFFFFFFFF DUP2 GT ISZERO PUSH2 0x966 JUMPI PUSH2 0x965 PUSH2 0x52B JUMP JUMPDEST JUMPDEST PUSH2 0x970 DUP3 SLOAD PUSH2 0x763 JUMP JUMPDEST PUSH2 0x97B DUP3 DUP3 DUP6 PUSH2 0x8AE JUMP JUMPDEST PUSH0 PUSH1 0x20 SWAP1 POP PUSH1 0x1F DUP4 GT PUSH1 0x1 DUP2 EQ PUSH2 0x9AC JUMPI PUSH0 DUP5 ISZERO PUSH2 0x99A JUMPI DUP3 DUP8 ADD MLOAD SWAP1 POP JUMPDEST PUSH2 0x9A4 DUP6 DUP3 PUSH2 0x929 JUMP JUMPDEST DUP7 SSTORE POP PUSH2 0xA0B JUMP JUMPDEST PUSH1 0x1F NOT DUP5 AND PUSH2 0x9BA DUP7 PUSH2 0x793 JUMP JUMPDEST PUSH0 JUMPDEST DUP3 DUP2 LT ISZERO PUSH2 0x9E1 JUMPI DUP5 DUP10 ADD MLOAD DUP3 SSTORE PUSH1 0x1 DUP3 ADD SWAP2 POP PUSH1 0x20 DUP6 ADD SWAP5 POP PUSH1 0x20 DUP2 ADD SWAP1 POP PUSH2 0x9BC JUMP JUMPDEST DUP7 DUP4 LT ISZERO PUSH2 0x9FE JUMPI DUP5 DUP10 ADD MLOAD PUSH2 0x9FA PUSH1 0x1F DUP10 AND DUP3 PUSH2 0x90D JUMP JUMPDEST DUP4 SSTORE POP JUMPDEST PUSH1 0x1 PUSH1 0x2 DUP9 MUL ADD DUP9 SSTORE POP POP POP JUMPDEST POP POP POP POP POP POP JUMP JUMPDEST PUSH32 0x4E487B7100000000000000000000000000000000000000000000000000000000 PUSH0 MSTORE PUSH1 0x11 PUSH1 0x4 MSTORE PUSH1 0x24 PUSH0 REVERT JUMPDEST PUSH0 PUSH2 0xA4A DUP3 PUSH2 0x367 JUMP JUMPDEST SWAP2 POP PUSH2 0xA55 DUP4 PUSH2 0x367 JUMP JUMPDEST SWAP3 POP DUP3 DUP3 ADD SWAP1 POP DUP1 DUP3 GT ISZERO PUSH2 0xA6D JUMPI PUSH2 0xA6C PUSH2 0xA13 JUMP JUMPDEST JUMPDEST SWAP3 SWAP2 POP POP JUMP JUMPDEST PUSH0 DUP2 SWAP1 POP SWAP3 SWAP2 POP POP JUMP JUMPDEST PUSH0 PUSH2 0xA87 DUP3 PUSH2 0x3C5 JUMP JUMPDEST PUSH2 0xA91 DUP2 DUP6 PUSH2 0xA73 JUMP JUMPDEST SWAP4 POP PUSH2 0xAA1 DUP2 DUP6 PUSH1 0x20 DUP7 ADD PUSH2 0x3DF JUMP JUMPDEST DUP1 DUP5 ADD SWAP2 POP POP SWAP3 SWAP2 POP POP JUMP JUMPDEST PUSH0 PUSH2 0xAB8 DUP3 DUP5 PUSH2 0xA7D JUMP JUMPDEST SWAP2 POP DUP2 SWAP1 POP SWAP3 SWAP2 POP POP JUMP INVALID LOG2 PUSH5 0x6970667358 0x22 SLT KECCAK256 PUSH9 0xA831FFC01648FD0096 0xD6 SWAP8 0x22 DUP14 JUMPDEST DUP16 SWAP5 0x22 PUSH21 0x99C0D0EAB631E49CAE3B98666164736F6C63430008 0x21 STOP CALLER "
				},
				"gasEstimates": {
					"creation": {
						"codeDepositCost": "561800",
						"executionCost": "592",
						"totalCost": "562392"
					},
					"external": {
						"addPerson(string,uint256)": "infinite",
						"getPerson(uint256)": "infinite",
						"listOfPeople(uint256)": "infinite",
						"nameToFavoriteNumber(string)": "infinite"
					}
				},
				"methodIdentifiers": {
					"addPerson(string,uint256)": "6f760f41",
					"getPerson(uint256)": "246982c4",
					"listOfPeople(uint256)": "2ebce631",
					"nameToFavoriteNumber(string)": "8bab8dd5"
				}
			},
			"storageLayout": {
				"storage": [
					{
						"astId": 43,
						"contract": "AddFiveStorage.sol:AddFiveStorage",
						"label": "listOfPeople",
						"offset": 0,
						"slot": "0",
						"type": "t_array(t_struct(Person)39_storage)dyn_storage"
					},
					{
						"astId": 47,
						"contract": "AddFiveStorage.sol:AddFiveStorage",
						"label": "nameToFavoriteNumber",
						"offset": 0,
						"slot": "1",
						"type": "t_mapping(t_string_memory_ptr,t_uint256)"
					}
				],
				"types": {
					"t_array(t_struct(Person)39_storage)dyn_storage": {
						"base": "t_struct(Person)39_storage",
						"encoding": "dynamic_array",
						"label": "struct Storage.Person[]",
						"numberOfBytes": "32"
					},
					"t_mapping(t_string_memory_ptr,t_uint256)": {
						"encoding": "mapping",
						"key": "t_string_memory_ptr",
						"label": "mapping(string => uint256)",
						"numberOfBytes": "32",
						"value": "t_uint256"
					},
					"t_string_memory_ptr": {
						"encoding": "bytes",
						"label": "string",
						"numberOfBytes": "32"
					},
					"t_string_storage": {
						"encoding": "bytes",
						"label": "string",
						"numberOfBytes": "32"
					},
					"t_struct(Person)39_storage": {
						"encoding": "inplace",
						"label": "struct Storage.Person",
						"members": [
							{
								"astId": 36,
								"contract": "AddFiveStorage.sol:AddFiveStorage",
								"label": "name",
								"offset": 0,
								"slot": "0",
								"type": "t_string_storage"
							},
							{
								"astId": 38,
								"contract": "AddFiveStorage.sol:AddFiveStorage",
								"label": "favoriteNumber",
								"offset": 0,
								"slot": "1",
								"type": "t_uint256"
							}
						],
						"numberOfBytes": "64"
					},
					"t_uint256": {
						"encoding": "inplace",
						"label": "uint256",
						"numberOfBytes": "32"
					}
				}
			},
			"userdoc": {
				"kind": "user",
				"methods": {},
				"version": 1
			}
		}
	}
}